{
  "contractName": "GoBang",
  "abi": [
    {
      "inputs": [
        {
          "internalType": "address payable",
          "name": "master",
          "type": "address"
        },
        {
          "internalType": "uint32",
          "name": "turnLength",
          "type": "uint32"
        },
        {
          "internalType": "uint256",
          "name": "fee",
          "type": "uint256"
        },
        {
          "internalType": "uint256",
          "name": "bonus",
          "type": "uint256"
        }
      ],
      "payable": false,
      "stateMutability": "nonpayable",
      "type": "constructor"
    },
    {
      "anonymous": false,
      "inputs": [
        {
          "indexed": true,
          "internalType": "address",
          "name": "owner",
          "type": "address"
        },
        {
          "indexed": true,
          "internalType": "address",
          "name": "approved",
          "type": "address"
        },
        {
          "indexed": true,
          "internalType": "uint256",
          "name": "tokenId",
          "type": "uint256"
        }
      ],
      "name": "Approval",
      "type": "event"
    },
    {
      "anonymous": false,
      "inputs": [
        {
          "indexed": true,
          "internalType": "address",
          "name": "owner",
          "type": "address"
        },
        {
          "indexed": true,
          "internalType": "address",
          "name": "operator",
          "type": "address"
        },
        {
          "indexed": false,
          "internalType": "bool",
          "name": "approved",
          "type": "bool"
        }
      ],
      "name": "ApprovalForAll",
      "type": "event"
    },
    {
      "anonymous": false,
      "inputs": [
        {
          "indexed": true,
          "internalType": "address",
          "name": "from",
          "type": "address"
        },
        {
          "indexed": true,
          "internalType": "address",
          "name": "to",
          "type": "address"
        },
        {
          "indexed": true,
          "internalType": "uint256",
          "name": "tokenId",
          "type": "uint256"
        }
      ],
      "name": "Transfer",
      "type": "event"
    },
    {
      "constant": false,
      "inputs": [
        {
          "internalType": "address",
          "name": "to",
          "type": "address"
        },
        {
          "internalType": "uint256",
          "name": "tokenId",
          "type": "uint256"
        }
      ],
      "name": "approve",
      "outputs": [],
      "payable": false,
      "stateMutability": "nonpayable",
      "type": "function"
    },
    {
      "constant": true,
      "inputs": [
        {
          "internalType": "address",
          "name": "owner",
          "type": "address"
        }
      ],
      "name": "balanceOf",
      "outputs": [
        {
          "internalType": "uint256",
          "name": "",
          "type": "uint256"
        }
      ],
      "payable": false,
      "stateMutability": "view",
      "type": "function"
    },
    {
      "constant": true,
      "inputs": [
        {
          "internalType": "uint256",
          "name": "tokenId",
          "type": "uint256"
        }
      ],
      "name": "getApproved",
      "outputs": [
        {
          "internalType": "address",
          "name": "",
          "type": "address"
        }
      ],
      "payable": false,
      "stateMutability": "view",
      "type": "function"
    },
    {
      "constant": true,
      "inputs": [
        {
          "internalType": "address",
          "name": "owner",
          "type": "address"
        },
        {
          "internalType": "address",
          "name": "operator",
          "type": "address"
        }
      ],
      "name": "isApprovedForAll",
      "outputs": [
        {
          "internalType": "bool",
          "name": "",
          "type": "bool"
        }
      ],
      "payable": false,
      "stateMutability": "view",
      "type": "function"
    },
    {
      "constant": true,
      "inputs": [],
      "name": "name",
      "outputs": [
        {
          "internalType": "string",
          "name": "",
          "type": "string"
        }
      ],
      "payable": false,
      "stateMutability": "view",
      "type": "function"
    },
    {
      "constant": true,
      "inputs": [
        {
          "internalType": "uint256",
          "name": "tokenId",
          "type": "uint256"
        }
      ],
      "name": "ownerOf",
      "outputs": [
        {
          "internalType": "address",
          "name": "",
          "type": "address"
        }
      ],
      "payable": false,
      "stateMutability": "view",
      "type": "function"
    },
    {
      "constant": false,
      "inputs": [
        {
          "internalType": "address",
          "name": "from",
          "type": "address"
        },
        {
          "internalType": "address",
          "name": "to",
          "type": "address"
        },
        {
          "internalType": "uint256",
          "name": "tokenId",
          "type": "uint256"
        }
      ],
      "name": "safeTransferFrom",
      "outputs": [],
      "payable": false,
      "stateMutability": "nonpayable",
      "type": "function"
    },
    {
      "constant": false,
      "inputs": [
        {
          "internalType": "address",
          "name": "from",
          "type": "address"
        },
        {
          "internalType": "address",
          "name": "to",
          "type": "address"
        },
        {
          "internalType": "uint256",
          "name": "tokenId",
          "type": "uint256"
        },
        {
          "internalType": "bytes",
          "name": "_data",
          "type": "bytes"
        }
      ],
      "name": "safeTransferFrom",
      "outputs": [],
      "payable": false,
      "stateMutability": "nonpayable",
      "type": "function"
    },
    {
      "constant": false,
      "inputs": [
        {
          "internalType": "address",
          "name": "to",
          "type": "address"
        },
        {
          "internalType": "bool",
          "name": "approved",
          "type": "bool"
        }
      ],
      "name": "setApprovalForAll",
      "outputs": [],
      "payable": false,
      "stateMutability": "nonpayable",
      "type": "function"
    },
    {
      "constant": true,
      "inputs": [
        {
          "internalType": "bytes4",
          "name": "interfaceId",
          "type": "bytes4"
        }
      ],
      "name": "supportsInterface",
      "outputs": [
        {
          "internalType": "bool",
          "name": "",
          "type": "bool"
        }
      ],
      "payable": false,
      "stateMutability": "view",
      "type": "function"
    },
    {
      "constant": true,
      "inputs": [],
      "name": "symbol",
      "outputs": [
        {
          "internalType": "string",
          "name": "",
          "type": "string"
        }
      ],
      "payable": false,
      "stateMutability": "view",
      "type": "function"
    },
    {
      "constant": true,
      "inputs": [
        {
          "internalType": "uint256",
          "name": "index",
          "type": "uint256"
        }
      ],
      "name": "tokenByIndex",
      "outputs": [
        {
          "internalType": "uint256",
          "name": "",
          "type": "uint256"
        }
      ],
      "payable": false,
      "stateMutability": "view",
      "type": "function"
    },
    {
      "constant": true,
      "inputs": [
        {
          "internalType": "address",
          "name": "owner",
          "type": "address"
        },
        {
          "internalType": "uint256",
          "name": "index",
          "type": "uint256"
        }
      ],
      "name": "tokenOfOwnerByIndex",
      "outputs": [
        {
          "internalType": "uint256",
          "name": "",
          "type": "uint256"
        }
      ],
      "payable": false,
      "stateMutability": "view",
      "type": "function"
    },
    {
      "constant": true,
      "inputs": [
        {
          "internalType": "uint256",
          "name": "tokenId",
          "type": "uint256"
        }
      ],
      "name": "tokenURI",
      "outputs": [
        {
          "internalType": "string",
          "name": "",
          "type": "string"
        }
      ],
      "payable": false,
      "stateMutability": "view",
      "type": "function"
    },
    {
      "constant": true,
      "inputs": [],
      "name": "totalSupply",
      "outputs": [
        {
          "internalType": "uint256",
          "name": "",
          "type": "uint256"
        }
      ],
      "payable": false,
      "stateMutability": "view",
      "type": "function"
    },
    {
      "constant": false,
      "inputs": [
        {
          "internalType": "address",
          "name": "from",
          "type": "address"
        },
        {
          "internalType": "address",
          "name": "to",
          "type": "address"
        },
        {
          "internalType": "uint256",
          "name": "tokenId",
          "type": "uint256"
        }
      ],
      "name": "transferFrom",
      "outputs": [],
      "payable": false,
      "stateMutability": "nonpayable",
      "type": "function"
    },
    {
      "constant": false,
      "inputs": [
        {
          "internalType": "address",
          "name": "_to",
          "type": "address"
        },
        {
          "internalType": "string",
          "name": "_tokenURI",
          "type": "string"
        }
      ],
      "name": "mint",
      "outputs": [
        {
          "internalType": "bool",
          "name": "",
          "type": "bool"
        }
      ],
      "payable": false,
      "stateMutability": "nonpayable",
      "type": "function"
    },
    {
      "constant": false,
      "inputs": [
        {
          "internalType": "bytes32",
          "name": "p1Commitment",
          "type": "bytes32"
        }
      ],
      "name": "setNonce1",
      "outputs": [],
      "payable": false,
      "stateMutability": "nonpayable",
      "type": "function"
    },
    {
      "constant": false,
      "inputs": [
        {
          "internalType": "uint8",
          "name": "p2Nonce",
          "type": "uint8"
        },
        {
          "internalType": "address payable",
          "name": "player",
          "type": "address"
        }
      ],
      "name": "joinGame",
      "outputs": [],
      "payable": true,
      "stateMutability": "payable",
      "type": "function"
    },
    {
      "constant": false,
      "inputs": [
        {
          "internalType": "uint8",
          "name": "p1Nonce",
          "type": "uint8"
        },
        {
          "internalType": "bytes32",
          "name": "p1Commitment",
          "type": "bytes32"
        }
      ],
      "name": "startGame",
      "outputs": [],
      "payable": true,
      "stateMutability": "payable",
      "type": "function"
    },
    {
      "constant": false,
      "inputs": [
        {
          "internalType": "uint8",
          "name": "winner",
          "type": "uint8"
        }
      ],
      "name": "defineWinned",
      "outputs": [],
      "payable": true,
      "stateMutability": "payable",
      "type": "function"
    },
    {
      "constant": false,
      "inputs": [
        {
          "internalType": "uint8",
          "name": "index",
          "type": "uint8"
        },
        {
          "internalType": "uint8",
          "name": "indexs",
          "type": "uint8"
        }
      ],
      "name": "checkGameOver",
      "outputs": [
        {
          "internalType": "bool",
          "name": "",
          "type": "bool"
        }
      ],
      "payable": false,
      "stateMutability": "nonpayable",
      "type": "function"
    },
    {
      "constant": false,
      "inputs": [
        {
          "internalType": "uint8",
          "name": "index",
          "type": "uint8"
        },
        {
          "internalType": "uint8",
          "name": "indexs",
          "type": "uint8"
        }
      ],
      "name": "playMove",
      "outputs": [
        {
          "internalType": "bool",
          "name": "",
          "type": "bool"
        }
      ],
      "payable": false,
      "stateMutability": "nonpayable",
      "type": "function"
    },
    {
      "constant": false,
      "inputs": [],
      "name": "defaultGame",
      "outputs": [],
      "payable": false,
      "stateMutability": "nonpayable",
      "type": "function"
    }
  ],
  "bytecode": "0x60806040523480156200001157600080fd5b506040516200389e3803806200389e833981810160405260808110156200003757600080fd5b81019080805190602001909291908051906020019092919080519060200190929190805190602001909291905050506040518060400160405280600c81526020017f4d656d6f727920546f6b656e00000000000000000000000000000000000000008152506040518060400160405280600681526020017f4d454d4f525900000000000000000000000000000000000000000000000000008152508181620000ec6301ffc9a760e01b6200028060201b60201c565b620001046380ac58cd60e01b6200028060201b60201c565b6200011c63780e9d6360e01b6200028060201b60201c565b81600990805190602001906200013492919062000389565b5080600a90805190602001906200014d92919062000389565b5062000166635b5e139f60e01b6200028060201b60201c565b5050505083600c6000600281106200017a57fe5b0160006101000a81548173ffffffffffffffffffffffffffffffffffffffff021916908373ffffffffffffffffffffffffffffffffffffffff1602179055506000600c600160028110620001ca57fe5b0160006101000a81548173ffffffffffffffffffffffffffffffffffffffff021916908373ffffffffffffffffffffffffffffffffffffffff1602179055506000602760006101000a81548160ff0219169083151502179055506000602a60006101000a81548160ff02191690831515021790555082600e60006101000a81548163ffffffff021916908363ffffffff16021790555081602881905550806029819055506000602b819055505050505062000438565b63ffffffff60e01b817bffffffffffffffffffffffffffffffffffffffffffffffffffffffff191614156200031d576040517f08c379a000000000000000000000000000000000000000000000000000000000815260040180806020018281038252601c8152602001807f4552433136353a20696e76616c696420696e746572666163652069640000000081525060200191505060405180910390fd5b6001600080837bffffffffffffffffffffffffffffffffffffffffffffffffffffffff19167bffffffffffffffffffffffffffffffffffffffffffffffffffffffff1916815260200190815260200160002060006101000a81548160ff02191690831515021790555050565b828054600181600116156101000203166002900490600052602060002090601f016020900481019282601f10620003cc57805160ff1916838001178555620003fd565b82800160010185558215620003fd579182015b82811115620003fc578251825591602001919060010190620003df565b5b5090506200040c919062000410565b5090565b6200043591905b808211156200043157600081600090555060010162000417565b5090565b90565b61345680620004486000396000f3fe60806040526004361061014b5760003560e01c80636352211e116100b6578063c87b56dd1161006f578063c87b56dd146108cc578063d0def52114610980578063e985e9c514610a80578063edb02a6014610b09578063f1cd0e3114610b44578063f38350a314610ba75761014b565b80636352211e146105b257806369e790361461062d57806370a082311461066857806395d89b41146106cd578063a22cb4651461075d578063b88d4fde146107ba5761014b565b806323b872dd1161010857806323b872dd1461036a57806327bd0db6146103e55780632f745c591461041657806342842e0e146104855780634f6ccce71461050057806352c681d11461054f5761014b565b806301ffc9a71461015057806304e4cbb8146101c257806306fdde03146101d9578063081812fc14610269578063095ea7b3146102e457806318160ddd1461033f575b600080fd5b34801561015c57600080fd5b506101a86004803603602081101561017357600080fd5b8101908080357bffffffffffffffffffffffffffffffffffffffffffffffffffffffff19169060200190929190505050610bf8565b604051808215151515815260200191505060405180910390f35b3480156101ce57600080fd5b506101d7610c5f565b005b3480156101e557600080fd5b506101ee610ca1565b6040518080602001828103825283818151815260200191508051906020019080838360005b8381101561022e578082015181840152602081019050610213565b50505050905090810190601f16801561025b5780820380516001836020036101000a031916815260200191505b509250505060405180910390f35b34801561027557600080fd5b506102a26004803603602081101561028c57600080fd5b8101908080359060200190929190505050610d43565b604051808273ffffffffffffffffffffffffffffffffffffffff1673ffffffffffffffffffffffffffffffffffffffff16815260200191505060405180910390f35b3480156102f057600080fd5b5061033d6004803603604081101561030757600080fd5b81019080803573ffffffffffffffffffffffffffffffffffffffff16906020019092919080359060200190929190505050610dde565b005b34801561034b57600080fd5b50610354610fb7565b6040518082815260200191505060405180910390f35b34801561037657600080fd5b506103e36004803603606081101561038d57600080fd5b81019080803573ffffffffffffffffffffffffffffffffffffffff169060200190929190803573ffffffffffffffffffffffffffffffffffffffff16906020019092919080359060200190929190505050610fc4565b005b610414600480360360208110156103fb57600080fd5b81019080803560ff169060200190929190505050611033565b005b34801561042257600080fd5b5061046f6004803603604081101561043957600080fd5b81019080803573ffffffffffffffffffffffffffffffffffffffff16906020019092919080359060200190929190505050611108565b6040518082815260200191505060405180910390f35b34801561049157600080fd5b506104fe600480360360608110156104a857600080fd5b81019080803573ffffffffffffffffffffffffffffffffffffffff169060200190929190803573ffffffffffffffffffffffffffffffffffffffff169060200190929190803590602001909291905050506111c7565b005b34801561050c57600080fd5b506105396004803603602081101561052357600080fd5b81019080803590602001909291905050506111e7565b6040518082815260200191505060405180910390f35b34801561055b57600080fd5b506105986004803603604081101561057257600080fd5b81019080803560ff169060200190929190803560ff169060200190929190505050611267565b604051808215151515815260200191505060405180910390f35b3480156105be57600080fd5b506105eb600480360360208110156105d557600080fd5b810190808035906020019092919050505061143d565b604051808273ffffffffffffffffffffffffffffffffffffffff1673ffffffffffffffffffffffffffffffffffffffff16815260200191505060405180910390f35b34801561063957600080fd5b506106666004803603602081101561065057600080fd5b8101908080359060200190929190505050611505565b005b34801561067457600080fd5b506106b76004803603602081101561068b57600080fd5b81019080803573ffffffffffffffffffffffffffffffffffffffff169060200190929190505050611576565b6040518082815260200191505060405180910390f35b3480156106d957600080fd5b506106e261164b565b6040518080602001828103825283818151815260200191508051906020019080838360005b83811015610722578082015181840152602081019050610707565b50505050905090810190601f16801561074f5780820380516001836020036101000a031916815260200191505b509250505060405180910390f35b34801561076957600080fd5b506107b86004803603604081101561078057600080fd5b81019080803573ffffffffffffffffffffffffffffffffffffffff1690602001909291908035151590602001909291905050506116ed565b005b3480156107c657600080fd5b506108ca600480360360808110156107dd57600080fd5b81019080803573ffffffffffffffffffffffffffffffffffffffff169060200190929190803573ffffffffffffffffffffffffffffffffffffffff169060200190929190803590602001909291908035906020019064010000000081111561084457600080fd5b82018360208201111561085657600080fd5b8035906020019184600183028401116401000000008311171561087857600080fd5b91908080601f016020809104026020016040519081016040528093929190818152602001838380828437600081840152601f19601f820116905080830192505050505050509192919290505050611890565b005b3480156108d857600080fd5b50610905600480360360208110156108ef57600080fd5b8101908080359060200190929190505050611902565b6040518080602001828103825283818151815260200191508051906020019080838360005b8381101561094557808201518184015260208101905061092a565b50505050905090810190601f1680156109725780820380516001836020036101000a031916815260200191505b509250505060405180910390f35b34801561098c57600080fd5b50610a66600480360360408110156109a357600080fd5b81019080803573ffffffffffffffffffffffffffffffffffffffff169060200190929190803590602001906401000000008111156109e057600080fd5b8201836020820111156109f257600080fd5b80359060200191846001830284011164010000000083111715610a1457600080fd5b91908080601f016020809104026020016040519081016040528093929190818152602001838380828437600081840152601f19601f820116905080830192505050505050509192919290505050611a15565b604051808215151515815260200191505060405180910390f35b348015610a8c57600080fd5b50610aef60048036036040811015610aa357600080fd5b81019080803573ffffffffffffffffffffffffffffffffffffffff169060200190929190803573ffffffffffffffffffffffffffffffffffffffff169060200190929190505050611a54565b604051808215151515815260200191505060405180910390f35b610b4260048036036040811015610b1f57600080fd5b81019080803560ff16906020019092919080359060200190929190505050611ae8565b005b348015610b5057600080fd5b50610b8d60048036036040811015610b6757600080fd5b81019080803560ff169060200190929190803560ff169060200190929190505050611b6a565b604051808215151515815260200191505060405180910390f35b610bf660048036036040811015610bbd57600080fd5b81019080803560ff169060200190929190803573ffffffffffffffffffffffffffffffffffffffff1690602001909291905050506122a3565b005b6000806000837bffffffffffffffffffffffffffffffffffffffffffffffffffffffff19167bffffffffffffffffffffffffffffffffffffffffffffffffffffffff1916815260200190815260200160002060009054906101000a900460ff169050919050565b602654600e60009054906101000a900463ffffffff1663ffffffff1643011115610c9f57610c9e6001602560009054906101000a900460ff1618611033565b5b565b606060098054600181600116156101000203166002900480601f016020809104026020016040519081016040528092919081815260200182805460018160011615610100020316600290048015610d395780601f10610d0e57610100808354040283529160200191610d39565b820191906000526020600020905b815481529060010190602001808311610d1c57829003601f168201915b5050505050905090565b6000610d4e8261237f565b610da3576040517f08c379a000000000000000000000000000000000000000000000000000000000815260040180806020018281038252602c8152602001806132f4602c913960400191505060405180910390fd5b6002600083815260200190815260200160002060009054906101000a900473ffffffffffffffffffffffffffffffffffffffff169050919050565b6000610de98261143d565b90508073ffffffffffffffffffffffffffffffffffffffff168373ffffffffffffffffffffffffffffffffffffffff161415610e70576040517f08c379a00000000000000000000000000000000000000000000000000000000081526004018080602001828103825260218152602001806133a46021913960400191505060405180910390fd5b8073ffffffffffffffffffffffffffffffffffffffff163373ffffffffffffffffffffffffffffffffffffffff161480610eb05750610eaf8133611a54565b5b610f05576040517f08c379a00000000000000000000000000000000000000000000000000000000081526004018080602001828103825260388152602001806132696038913960400191505060405180910390fd5b826002600084815260200190815260200160002060006101000a81548173ffffffffffffffffffffffffffffffffffffffff021916908373ffffffffffffffffffffffffffffffffffffffff160217905550818373ffffffffffffffffffffffffffffffffffffffff168273ffffffffffffffffffffffffffffffffffffffff167f8c5be1e5ebec7d5bd14f71427d1e84f3dd0314c0f7b2291e5b200ac8c7c3b92560405160405180910390a4505050565b6000600780549050905090565b610fce33826123f1565b611023576040517f08c379a00000000000000000000000000000000000000000000000000000000081526004018080602001828103825260318152602001806133c56031913960400191505060405180910390fd5b61102e8383836124e5565b505050565b600115156110a7600c8360ff166002811061104a57fe5b0160009054906101000a900473ffffffffffffffffffffffffffffffffffffffff166040518060400160405280600181526020017f3100000000000000000000000000000000000000000000000000000000000000815250611a15565b1515146110b357600080fd5b602b600081548092919060010191905055506000602760006101000a81548160ff0219169083151502179055506000471415611105576001602a60006101000a81548160ff0219169083151502179055505b50565b600061111383611576565b821061116a576040517f08c379a000000000000000000000000000000000000000000000000000000000815260040180806020018281038252602b8152602001806131bc602b913960400191505060405180910390fd5b600560008473ffffffffffffffffffffffffffffffffffffffff1673ffffffffffffffffffffffffffffffffffffffff16815260200190815260200160002082815481106111b457fe5b9060005260206000200154905092915050565b6111e283838360405180602001604052806000815250611890565b505050565b60006111f1610fb7565b8210611248576040517f08c379a000000000000000000000000000000000000000000000000000000000815260040180806020018281038252602c8152602001806133f6602c913960400191505060405180910390fd5b6007828154811061125557fe5b90600052602060002001549050919050565b6000600c6001602560009054906101000a900460ff161860ff166002811061128b57fe5b0160009054906101000a900473ffffffffffffffffffffffffffffffffffffffff1673ffffffffffffffffffffffffffffffffffffffff163373ffffffffffffffffffffffffffffffffffffffff16146112e457600080fd5b602560009054906101000a900460ff1660118460ff166014811061130457fe5b018360ff166014811061131357fe5b602091828204019190066101000a81548160ff021916908360ff1602179055503073ffffffffffffffffffffffffffffffffffffffff1663f1cd0e3184846040518363ffffffff1660e01b8152600401808360ff1660ff1681526020018260ff1660ff16815260200192505050602060405180830381600087803b15801561139a57600080fd5b505af11580156113ae573d6000803e3d6000fd5b505050506040513d60208110156113c457600080fd5b8101908080519060200190929190505050156113e35760019050611437565b6001602560008282829054906101000a900460ff161892506101000a81548160ff021916908360ff160217905550600e60009054906101000a900463ffffffff1663ffffffff164301602681905550600090505b92915050565b6000806001600084815260200190815260200160002060009054906101000a900473ffffffffffffffffffffffffffffffffffffffff169050600073ffffffffffffffffffffffffffffffffffffffff168173ffffffffffffffffffffffffffffffffffffffff1614156114fc576040517f08c379a00000000000000000000000000000000000000000000000000000000081526004018080602001828103825260298152602001806132cb6029913960400191505060405180910390fd5b80915050919050565b600c60006002811061151357fe5b0160009054906101000a900473ffffffffffffffffffffffffffffffffffffffff1673ffffffffffffffffffffffffffffffffffffffff163373ffffffffffffffffffffffffffffffffffffffff161461156c57600080fd5b80600f8190555050565b60008073ffffffffffffffffffffffffffffffffffffffff168273ffffffffffffffffffffffffffffffffffffffff1614156115fd576040517f08c379a000000000000000000000000000000000000000000000000000000000815260040180806020018281038252602a8152602001806132a1602a913960400191505060405180910390fd5b611644600360008473ffffffffffffffffffffffffffffffffffffffff1673ffffffffffffffffffffffffffffffffffffffff168152602001908152602001600020612509565b9050919050565b6060600a8054600181600116156101000203166002900480601f0160208091040260200160405190810160405280929190818152602001828054600181600116156101000203166002900480156116e35780601f106116b8576101008083540402835291602001916116e3565b820191906000526020600020905b8154815290600101906020018083116116c657829003601f168201915b5050505050905090565b3373ffffffffffffffffffffffffffffffffffffffff168273ffffffffffffffffffffffffffffffffffffffff16141561178f576040517f08c379a00000000000000000000000000000000000000000000000000000000081526004018080602001828103825260198152602001807f4552433732313a20617070726f766520746f2063616c6c65720000000000000081525060200191505060405180910390fd5b80600460003373ffffffffffffffffffffffffffffffffffffffff1673ffffffffffffffffffffffffffffffffffffffff16815260200190815260200160002060008473ffffffffffffffffffffffffffffffffffffffff1673ffffffffffffffffffffffffffffffffffffffff16815260200190815260200160002060006101000a81548160ff0219169083151502179055508173ffffffffffffffffffffffffffffffffffffffff163373ffffffffffffffffffffffffffffffffffffffff167f17307eab39ab6107e8899845ad3d59bd9653f200f220920489ca2b5937696c3183604051808215151515815260200191505060405180910390a35050565b61189b848484610fc4565b6118a784848484612517565b6118fc576040517f08c379a00000000000000000000000000000000000000000000000000000000081526004018080602001828103825260328152602001806131e76032913960400191505060405180910390fd5b50505050565b606061190d8261237f565b611962576040517f08c379a000000000000000000000000000000000000000000000000000000000815260040180806020018281038252602f815260200180613375602f913960400191505060405180910390fd5b600b60008381526020019081526020016000208054600181600116156101000203166002900480601f016020809104026020016040519081016040528092919081815260200182805460018160011615610100020316600290048015611a095780601f106119de57610100808354040283529160200191611a09565b820191906000526020600020905b8154815290600101906020018083116119ec57829003601f168201915b50505050509050919050565b600080611a336001611a25610fb7565b61270090919063ffffffff16565b9050611a3f8482612788565b611a4981846127a9565b600191505092915050565b6000600460008473ffffffffffffffffffffffffffffffffffffffff1673ffffffffffffffffffffffffffffffffffffffff16815260200190815260200160002060008373ffffffffffffffffffffffffffffffffffffffff1673ffffffffffffffffffffffffffffffffffffffff16815260200190815260200160002060009054906101000a900460ff16905092915050565b60001515602a60009054906101000a900460ff16151514611b0857600080fd5b600f548114611b1657600080fd5b6001601060009054906101000a900460ff16831816602560006101000a81548160ff021916908360ff160217905550600e60009054906101000a900463ffffffff1663ffffffff1643016026819055505050565b6000806000905060006001840190505b60148160ff161015611bf657602560009054906101000a900460ff1660ff1660118260ff1660148110611ba957fe5b018660ff1660148110611bb857fe5b602091828204019190069054906101000a900460ff1660ff161415611be4578180600101925050611be9565b611bf6565b8080600101915050611b7a565b5060006001840390505b60008160ff1610611c7c57602560009054906101000a900460ff1660ff1660118260ff1660148110611c2e57fe5b018660ff1660148110611c3d57fe5b602091828204019190069054906101000a900460ff1660ff161415611c69578180600101925050611c6e565b611c7c565b808060019003915050611c00565b5060048160ff1610611d16573073ffffffffffffffffffffffffffffffffffffffff166327bd0db6602560009054906101000a900460ff166040518263ffffffff1660e01b8152600401808260ff1660ff168152602001915050600060405180830381600087803b158015611cf057600080fd5b505af1158015611d04573d6000803e3d6000fd5b5050505060009050600191505061229d565b600080905060006001860190505b60148160ff161015611da057602560009054906101000a900460ff1660ff1660118660ff1660148110611d5357fe5b018260ff1660148110611d6257fe5b602091828204019190069054906101000a900460ff1660ff161415611d8e578180600101925050611d93565b611da0565b8080600101915050611d24565b5060006001860390505b60008160ff1610611e2657602560009054906101000a900460ff1660ff1660118660ff1660148110611dd857fe5b018260ff1660148110611de757fe5b602091828204019190069054906101000a900460ff1660ff161415611e13578180600101925050611e18565b611e26565b808060019003915050611daa565b5060048160ff1610611ec1573073ffffffffffffffffffffffffffffffffffffffff166327bd0db6602560009054906101000a900460ff166040518263ffffffff1660e01b8152600401808260ff1660ff168152602001915050600060405180830381600087803b158015611e9a57600080fd5b505af1158015611eae573d6000803e3d6000fd5b505050506000905060019250505061229d565b6000809050600060018701905060006001870190505b60148260ff16108015611eed575060148160ff16105b15611f6a57602560009054906101000a900460ff1660ff1660118360ff1660148110611f1557fe5b018260ff1660148110611f2457fe5b602091828204019190069054906101000a900460ff1660ff161415611f50578280600101935050611f55565b611f6a565b81806001019250508080600101915050611ed7565b6001880391506001870390505b60008260ff1610158015611f8f575060008160ff1610155b1561200e57602560009054906101000a900460ff1660ff1660118260ff1660148110611fb757fe5b018360ff1660148110611fc657fe5b602091828204019190069054906101000a900460ff1660ff161415611ff2578280600101935050611ff7565b61200e565b818060019003925050808060019003915050611f77565b60048360ff16106120ab573073ffffffffffffffffffffffffffffffffffffffff166327bd0db6602560009054906101000a900460ff166040518263ffffffff1660e01b8152600401808260ff1660ff168152602001915050600060405180830381600087803b15801561208157600080fd5b505af1158015612095573d6000803e3d6000fd5b505050506000925060019550505050505061229d565b60008090506001880192506001890391505b60148360ff161080156120d4575060008260ff1610155b1561215257602560009054906101000a900460ff1660ff1660118460ff16601481106120fc57fe5b018360ff166014811061210b57fe5b602091828204019190069054906101000a900460ff1660ff16141561213757808060010191505061213c565b612152565b82806001019350508180600190039250506120bd565b6001880392506001890191505b60008360ff1610158015612176575060148260ff16105b156121f457602560009054906101000a900460ff1660ff1660118460ff166014811061219e57fe5b018360ff16601481106121ad57fe5b602091828204019190069054906101000a900460ff1660ff1614156121d95780806001019150506121de565b6121f4565b828060019003935050818060010192505061215f565b60048160ff1610612292573073ffffffffffffffffffffffffffffffffffffffff166327bd0db6602560009054906101000a900460ff166040518263ffffffff1660e01b8152600401808260ff1660ff168152602001915050600060405180830381600087803b15801561226757600080fd5b505af115801561227b573d6000803e3d6000fd5b50505050600090506001965050505050505061229d565b600096505050505050505b92915050565b60001515602a60009054906101000a900460ff161515146122c357600080fd5b60285434146122d157600080fd5b60001515602760009054906101000a900460ff161515141561230d576001602760006101000a81548160ff021916908315150217905550612312565b600080fd5b81601060006101000a81548160ff021916908360ff16021790555080600c60016002811061233c57fe5b0160006101000a81548173ffffffffffffffffffffffffffffffffffffffff021916908373ffffffffffffffffffffffffffffffffffffffff1602179055505050565b6000806001600084815260200190815260200160002060009054906101000a900473ffffffffffffffffffffffffffffffffffffffff169050600073ffffffffffffffffffffffffffffffffffffffff168173ffffffffffffffffffffffffffffffffffffffff161415915050919050565b60006123fc8261237f565b612451576040517f08c379a000000000000000000000000000000000000000000000000000000000815260040180806020018281038252602c81526020018061323d602c913960400191505060405180910390fd5b600061245c8361143d565b90508073ffffffffffffffffffffffffffffffffffffffff168473ffffffffffffffffffffffffffffffffffffffff1614806124cb57508373ffffffffffffffffffffffffffffffffffffffff166124b384610d43565b73ffffffffffffffffffffffffffffffffffffffff16145b806124dc57506124db8185611a54565b5b91505092915050565b6124f0838383612833565b6124fa8382612a8e565b6125048282612c2c565b505050565b600081600001549050919050565b60006125388473ffffffffffffffffffffffffffffffffffffffff16612cf3565b61254557600190506126f8565b60008473ffffffffffffffffffffffffffffffffffffffff1663150b7a02338887876040518563ffffffff1660e01b8152600401808573ffffffffffffffffffffffffffffffffffffffff1673ffffffffffffffffffffffffffffffffffffffff1681526020018473ffffffffffffffffffffffffffffffffffffffff1673ffffffffffffffffffffffffffffffffffffffff16815260200183815260200180602001828103825283818151815260200191508051906020019080838360005b83811015612620578082015181840152602081019050612605565b50505050905090810190601f16801561264d5780820380516001836020036101000a031916815260200191505b5095505050505050602060405180830381600087803b15801561266f57600080fd5b505af1158015612683573d6000803e3d6000fd5b505050506040513d602081101561269957600080fd5b8101908080519060200190929190505050905063150b7a0260e01b7bffffffffffffffffffffffffffffffffffffffffffffffffffffffff1916817bffffffffffffffffffffffffffffffffffffffffffffffffffffffff1916149150505b949350505050565b60008082840190508381101561277e576040517f08c379a000000000000000000000000000000000000000000000000000000000815260040180806020018281038252601b8152602001807f536166654d6174683a206164646974696f6e206f766572666c6f77000000000081525060200191505060405180910390fd5b8091505092915050565b6127928282612d06565b61279c8282612c2c565b6127a581612f1e565b5050565b6127b28261237f565b612807576040517f08c379a000000000000000000000000000000000000000000000000000000000815260040180806020018281038252602c815260200180613320602c913960400191505060405180910390fd5b80600b6000848152602001908152602001600020908051906020019061282e9291906130ea565b505050565b8273ffffffffffffffffffffffffffffffffffffffff166128538261143d565b73ffffffffffffffffffffffffffffffffffffffff16146128bf576040517f08c379a000000000000000000000000000000000000000000000000000000000815260040180806020018281038252602981526020018061334c6029913960400191505060405180910390fd5b600073ffffffffffffffffffffffffffffffffffffffff168273ffffffffffffffffffffffffffffffffffffffff161415612945576040517f08c379a00000000000000000000000000000000000000000000000000000000081526004018080602001828103825260248152602001806132196024913960400191505060405180910390fd5b61294e81612f6a565b612995600360008573ffffffffffffffffffffffffffffffffffffffff1673ffffffffffffffffffffffffffffffffffffffff168152602001908152602001600020613028565b6129dc600360008473ffffffffffffffffffffffffffffffffffffffff1673ffffffffffffffffffffffffffffffffffffffff16815260200190815260200160002061304b565b816001600083815260200190815260200160002060006101000a81548173ffffffffffffffffffffffffffffffffffffffff021916908373ffffffffffffffffffffffffffffffffffffffff160217905550808273ffffffffffffffffffffffffffffffffffffffff168473ffffffffffffffffffffffffffffffffffffffff167fddf252ad1be2c89b69c2b068fc378daa952ba7f163c4a11628f55a4df523b3ef60405160405180910390a4505050565b6000612ae66001600560008673ffffffffffffffffffffffffffffffffffffffff1673ffffffffffffffffffffffffffffffffffffffff1681526020019081526020016000208054905061306190919063ffffffff16565b9050600060066000848152602001908152602001600020549050818114612bd3576000600560008673ffffffffffffffffffffffffffffffffffffffff1673ffffffffffffffffffffffffffffffffffffffff1681526020019081526020016000208381548110612b5357fe5b9060005260206000200154905080600560008773ffffffffffffffffffffffffffffffffffffffff1673ffffffffffffffffffffffffffffffffffffffff1681526020019081526020016000208381548110612bab57fe5b9060005260206000200181905550816006600083815260200190815260200160002081905550505b600560008573ffffffffffffffffffffffffffffffffffffffff1673ffffffffffffffffffffffffffffffffffffffff168152602001908152602001600020805480919060019003612c25919061316a565b5050505050565b600560008373ffffffffffffffffffffffffffffffffffffffff1673ffffffffffffffffffffffffffffffffffffffff168152602001908152602001600020805490506006600083815260200190815260200160002081905550600560008373ffffffffffffffffffffffffffffffffffffffff1673ffffffffffffffffffffffffffffffffffffffff1681526020019081526020016000208190806001815401808255809150509060018203906000526020600020016000909192909190915055505050565b600080823b905060008111915050919050565b600073ffffffffffffffffffffffffffffffffffffffff168273ffffffffffffffffffffffffffffffffffffffff161415612da9576040517f08c379a00000000000000000000000000000000000000000000000000000000081526004018080602001828103825260208152602001807f4552433732313a206d696e7420746f20746865207a65726f206164647265737381525060200191505060405180910390fd5b612db28161237f565b15612e25576040517f08c379a000000000000000000000000000000000000000000000000000000000815260040180806020018281038252601c8152602001807f4552433732313a20746f6b656e20616c7265616479206d696e7465640000000081525060200191505060405180910390fd5b816001600083815260200190815260200160002060006101000a81548173ffffffffffffffffffffffffffffffffffffffff021916908373ffffffffffffffffffffffffffffffffffffffff160217905550612ebe600360008473ffffffffffffffffffffffffffffffffffffffff1673ffffffffffffffffffffffffffffffffffffffff16815260200190815260200160002061304b565b808273ffffffffffffffffffffffffffffffffffffffff16600073ffffffffffffffffffffffffffffffffffffffff167fddf252ad1be2c89b69c2b068fc378daa952ba7f163c4a11628f55a4df523b3ef60405160405180910390a45050565b6007805490506008600083815260200190815260200160002081905550600781908060018154018082558091505090600182039060005260206000200160009091929091909150555050565b600073ffffffffffffffffffffffffffffffffffffffff166002600083815260200190815260200160002060009054906101000a900473ffffffffffffffffffffffffffffffffffffffff1673ffffffffffffffffffffffffffffffffffffffff16146130255760006002600083815260200190815260200160002060006101000a81548173ffffffffffffffffffffffffffffffffffffffff021916908373ffffffffffffffffffffffffffffffffffffffff1602179055505b50565b6130406001826000015461306190919063ffffffff16565b816000018190555050565b6001816000016000828254019250508190555050565b6000828211156130d9576040517f08c379a000000000000000000000000000000000000000000000000000000000815260040180806020018281038252601e8152602001807f536166654d6174683a207375627472616374696f6e206f766572666c6f77000081525060200191505060405180910390fd5b600082840390508091505092915050565b828054600181600116156101000203166002900490600052602060002090601f016020900481019282601f1061312b57805160ff1916838001178555613159565b82800160010185558215613159579182015b8281111561315857825182559160200191906001019061313d565b5b5090506131669190613196565b5090565b815481835581811115613191578183600052602060002091820191016131909190613196565b5b505050565b6131b891905b808211156131b457600081600090555060010161319c565b5090565b9056fe455243373231456e756d657261626c653a206f776e657220696e646578206f7574206f6620626f756e64734552433732313a207472616e7366657220746f206e6f6e20455243373231526563656976657220696d706c656d656e7465724552433732313a207472616e7366657220746f20746865207a65726f20616464726573734552433732313a206f70657261746f7220717565727920666f72206e6f6e6578697374656e7420746f6b656e4552433732313a20617070726f76652063616c6c6572206973206e6f74206f776e6572206e6f7220617070726f76656420666f7220616c6c4552433732313a2062616c616e636520717565727920666f7220746865207a65726f20616464726573734552433732313a206f776e657220717565727920666f72206e6f6e6578697374656e7420746f6b656e4552433732313a20617070726f76656420717565727920666f72206e6f6e6578697374656e7420746f6b656e4552433732314d657461646174613a2055524920736574206f66206e6f6e6578697374656e7420746f6b656e4552433732313a207472616e73666572206f6620746f6b656e2074686174206973206e6f74206f776e4552433732314d657461646174613a2055524920717565727920666f72206e6f6e6578697374656e7420746f6b656e4552433732313a20617070726f76616c20746f2063757272656e74206f776e65724552433732313a207472616e736665722063616c6c6572206973206e6f74206f776e6572206e6f7220617070726f766564455243373231456e756d657261626c653a20676c6f62616c20696e646578206f7574206f6620626f756e6473a265627a7a723158205a4a0fd765815a636973fc98acafbf43544ecaff014656789feacbce792a62c464736f6c63430005100032",
  "source": "pragma solidity ^0.5.16;\r\nimport \"./ERC721Full.sol\";\r\ncontract GoBang  is ERC721Full{\r\n    address payable[2]  _playerAddress ;\r\n    uint32 _turnLength ;\r\n    bytes32 _p1Commitment;\r\n    uint8 _p2Nonce;\r\n    uint8 [20][20] _board;\r\n    uint8 _currentPlayer;\r\n    uint256 _turnDeadline;\r\n\r\n    bool isMatch;\r\n    uint _fee;\r\n    uint _bonus;\r\n    bool isOver;\r\n    int matchNum;\r\n\r\n    constructor (address payable master, uint32 turnLength, uint fee, uint bonus) \r\n    ERC721Full(\"Memory Token\", \"MEMORY\") public {\r\n        _playerAddress[0] = master;\r\n        _playerAddress[1] = address(0);\r\n        isMatch = false;\r\n        isOver = false;\r\n        _turnLength = turnLength;\r\n        _fee = fee;\r\n        _bonus = bonus;\r\n        matchNum = 0;\r\n    }\r\n    function mint(address _to, string memory _tokenURI) public returns(bool) {\r\n       uint _tokenId = totalSupply().add(1);\r\n       _mint(_to, _tokenId);\r\n       _setTokenURI(_tokenId, _tokenURI);\r\n       return true;\r\n    }\r\n    function setNonce1(bytes32 p1Commitment) public {\r\n        require(msg.sender == _playerAddress[0]);\r\n        _p1Commitment = p1Commitment;\r\n\r\n    }\r\n    // Join a game as the second player .\r\n    function joinGame (uint8 p2Nonce, address payable player) public payable {\r\n        require(isOver == false);\r\n        require(msg.value == _fee);\r\n        //require(isMatch == false);\r\n        if(isMatch == false){\r\n            isMatch = true;\r\n        } else {\r\n            revert();\r\n        }\r\n        _p2Nonce = p2Nonce;\r\n        _playerAddress[1] = player;\r\n    }\r\n    \r\n\r\n    // Revealing player 1s nonce to choose who goes first .\r\n    function startGame (uint8 p1Nonce, bytes32 p1Commitment) public payable{\r\n        require(isOver == false);\r\n    // must open the original commitment\r\n        require (p1Commitment == _p1Commitment);\r\n        // XOR both nonces and take the last bit to pick the first player\r\n        _currentPlayer = (p1Nonce ^ _p2Nonce) & 0x01 ;\r\n\r\n        // start the clock for the next move\r\n        _turnDeadline = block.number + _turnLength ;\r\n    }\r\n    function defineWinned(uint8 winner) public payable{\r\n        require(mint(_playerAddress[winner], \"1\") == true);\r\n        matchNum ++;\r\n        isMatch = false;\r\n        if(address(this).balance == 0) {\r\n            isOver = true;\r\n        }\r\n    }\r\n    function checkGameOver(uint8 index, uint8 indexs) public returns(bool) {\r\n        uint8 columnCount = 0;\r\n        for (uint8 i = indexs + 1; i < 20; i++) {\r\n            if (_board[i][index] == _currentPlayer) {\r\n                columnCount++;\r\n            } else {\r\n                break;\r\n            }\r\n        }\r\n        // \r\n        for (uint8 i = indexs - 1; i >= 0; i--) {\r\n            if (_board[i][index] == _currentPlayer) {\r\n                columnCount++;\r\n            } else {\r\n                break;\r\n            }\r\n        }\r\n        if (columnCount >= 4) {\r\n            this.defineWinned(_currentPlayer);\r\n            columnCount = 0;\r\n            return true;\r\n        }\r\n        //\r\n        uint8 lineCount = 0;\r\n        // \r\n        for (uint8 i = index + 1; i < 20; i++) {\r\n            if (_board[indexs][i] == _currentPlayer) {\r\n                lineCount++;\r\n            } else {\r\n                break;\r\n            }\r\n        }\r\n        // \r\n        for (uint8 i = index - 1; i >= 0; i--) {\r\n            if (_board[indexs][i] == _currentPlayer) {\r\n                lineCount++;\r\n            } else {\r\n                break;\r\n            }\r\n        }\r\n        if (lineCount >= 4) {\r\n            this.defineWinned(_currentPlayer);\r\n            lineCount = 0;\r\n            return true;\r\n        }\r\n        //- \\\r\n        uint8 obliqueLeftCount = 0;\r\n        // \r\n        uint8 i = index + 1;\r\n        uint8 j = indexs + 1;\r\n        while(i < 20 && j < 20) {\r\n             if (_board[i][j] == _currentPlayer) {\r\n                obliqueLeftCount++;\r\n            } else {\r\n                break;\r\n            }\r\n            i ++;\r\n            j ++;\r\n        }\r\n        // \r\n        i = index - 1;\r\n        j = indexs - 1;\r\n        while(i >= 0 && j >= 0) {\r\n             if (_board[j][i] == _currentPlayer) {\r\n                obliqueLeftCount++;\r\n            } else {\r\n                break;\r\n            }\r\n            i --;\r\n            j --;\r\n        }\r\n        if (obliqueLeftCount >= 4) {\r\n            this.defineWinned(_currentPlayer);\r\n            obliqueLeftCount = 0;\r\n            return true;\r\n        }\r\n        //- /\r\n        uint8 obliqueRightCount = 0;\r\n        // \r\n        i = indexs + 1;\r\n        j = index - 1;\r\n        while(i < 20 && j >= 0) {\r\n            if (_board[i][j] == _currentPlayer) {\r\n                obliqueRightCount++;\r\n            } else {\r\n                break;\r\n            }\r\n            i++;\r\n            j--;\r\n        }\r\n        i = indexs- 1;\r\n        j = index + 1;\r\n        while(i >= 0 && j < 20) {\r\n            if (_board[i][j] == _currentPlayer) {\r\n                obliqueRightCount++;\r\n            } else {\r\n                break;\r\n            }\r\n            i--;\r\n            j++;\r\n        }\r\n        if (obliqueRightCount >= 4) {\r\n            this.defineWinned(_currentPlayer);\r\n            obliqueRightCount = 0;\r\n            return true;\r\n        }\r\n        return false;\r\n    }\r\n\r\n    \r\n    // Submit a move\r\n    function playMove(uint8 index, uint8 indexs) public returns(bool){\r\n    // make sure correct player is submitting a move\r\n        require (msg.sender == _playerAddress[_currentPlayer^0x01]) ;\r\n\r\n        // claim this square for the current player .\r\n        _board [index][indexs] = _currentPlayer ;\r\n\r\n        // If the game is won , send the pot to the winner\r\n        if (this.checkGameOver(index, indexs)) {\r\n            return true;\r\n        }\r\n\r\n        // Flip the current player\r\n        _currentPlayer ^= 0x01 ;\r\n\r\n        // start the clock for the next move\r\n        _turnDeadline = block.number + _turnLength ;\r\n        return false;\r\n    }\r\n\r\n    // Default the game if a player takes too long to submit a move\r\n    function defaultGame () public {\r\n        if (block.number + _turnLength > _turnDeadline)\r\n            defineWinned(_currentPlayer^0x01);\r\n    }\r\n}\r\n",
  "sourcePath": "E:\\masterstudy\\2022S1\\cycurrency\\research\\blockchain_game\\src\\contracts\\GoBang.sol",
  "compiler": {
    "name": "solc",
    "version": "0.5.16+commit.9c3226ce.Emscripten.clang"
  },
  "schemaVersion": "3.4.7",
  "updatedAt": "2022-05-24T13:27:50.619Z",
  "devdoc": {
    "methods": {
      "approve(address,uint256)": {
        "details": "Approves another address to transfer the given token ID The zero address indicates there is no approved address. There can only be one approved address per token at a given time. Can only be called by the token owner or an approved operator.",
        "params": {
          "to": "address to be approved for the given token ID",
          "tokenId": "uint256 ID of the token to be approved"
        }
      },
      "balanceOf(address)": {
        "details": "Gets the balance of the specified address.",
        "params": {
          "owner": "address to query the balance of"
        },
        "return": "uint256 representing the amount owned by the passed address"
      },
      "getApproved(uint256)": {
        "details": "Gets the approved address for a token ID, or zero if no address set Reverts if the token ID does not exist.",
        "params": {
          "tokenId": "uint256 ID of the token to query the approval of"
        },
        "return": "address currently approved for the given token ID"
      },
      "isApprovedForAll(address,address)": {
        "details": "Tells whether an operator is approved by a given owner.",
        "params": {
          "operator": "operator address which you want to query the approval of",
          "owner": "owner address which you want to query the approval of"
        },
        "return": "bool whether the given operator is approved by the given owner"
      },
      "name()": {
        "details": "Gets the token name.",
        "return": "string representing the token name"
      },
      "ownerOf(uint256)": {
        "details": "Gets the owner of the specified token ID.",
        "params": {
          "tokenId": "uint256 ID of the token to query the owner of"
        },
        "return": "address currently marked as the owner of the given token ID"
      },
      "safeTransferFrom(address,address,uint256)": {
        "details": "Safely transfers the ownership of a given token ID to another address If the target address is a contract, it must implement `onERC721Received`, which is called upon a safe transfer, and return the magic value `bytes4(keccak256(\"onERC721Received(address,address,uint256,bytes)\"))`; otherwise, the transfer is reverted. Requires the msg.sender to be the owner, approved, or operator",
        "params": {
          "from": "current owner of the token",
          "to": "address to receive the ownership of the given token ID",
          "tokenId": "uint256 ID of the token to be transferred"
        }
      },
      "safeTransferFrom(address,address,uint256,bytes)": {
        "details": "Safely transfers the ownership of a given token ID to another address If the target address is a contract, it must implement `onERC721Received`, which is called upon a safe transfer, and return the magic value `bytes4(keccak256(\"onERC721Received(address,address,uint256,bytes)\"))`; otherwise, the transfer is reverted. Requires the msg.sender to be the owner, approved, or operator",
        "params": {
          "_data": "bytes data to send along with a safe transfer check",
          "from": "current owner of the token",
          "to": "address to receive the ownership of the given token ID",
          "tokenId": "uint256 ID of the token to be transferred"
        }
      },
      "setApprovalForAll(address,bool)": {
        "details": "Sets or unsets the approval of a given operator An operator is allowed to transfer all tokens of the sender on their behalf.",
        "params": {
          "approved": "representing the status of the approval to be set",
          "to": "operator address to set the approval"
        }
      },
      "supportsInterface(bytes4)": {
        "details": "See `IERC165.supportsInterface`.      * Time complexity O(1), guaranteed to always use less than 30 000 gas."
      },
      "symbol()": {
        "details": "Gets the token symbol.",
        "return": "string representing the token symbol"
      },
      "tokenByIndex(uint256)": {
        "details": "Gets the token ID at a given index of all the tokens in this contract Reverts if the index is greater or equal to the total number of tokens.",
        "params": {
          "index": "uint256 representing the index to be accessed of the tokens list"
        },
        "return": "uint256 token ID at the given index of the tokens list"
      },
      "tokenOfOwnerByIndex(address,uint256)": {
        "details": "Gets the token ID at a given index of the tokens list of the requested owner.",
        "params": {
          "index": "uint256 representing the index to be accessed of the requested tokens list",
          "owner": "address owning the tokens list to be accessed"
        },
        "return": "uint256 token ID at the given index of the tokens list owned by the requested address"
      },
      "tokenURI(uint256)": {
        "details": "Returns an URI for a given token ID. Throws if the token ID does not exist. May return an empty string.",
        "params": {
          "tokenId": "uint256 ID of the token to query"
        }
      },
      "totalSupply()": {
        "details": "Gets the total amount of tokens stored by the contract.",
        "return": "uint256 representing the total amount of tokens"
      },
      "transferFrom(address,address,uint256)": {
        "details": "Transfers the ownership of a given token ID to another address. Usage of this method is discouraged, use `safeTransferFrom` whenever possible. Requires the msg.sender to be the owner, approved, or operator.",
        "params": {
          "from": "current owner of the token",
          "to": "address to receive the ownership of the given token ID",
          "tokenId": "uint256 ID of the token to be transferred"
        }
      }
    }
  },
  "userdoc": {
    "methods": {}
  }
}