{
  "contractName": "Master",
  "abi": [
    {
      "inputs": [],
      "payable": false,
      "stateMutability": "nonpayable",
      "type": "constructor"
    },
    {
      "constant": true,
      "inputs": [],
      "name": "getGoBang",
      "outputs": [
        {
          "internalType": "contract GoBang",
          "name": "",
          "type": "address"
        }
      ],
      "payable": false,
      "stateMutability": "view",
      "type": "function"
    }
  ],
  "bytecode": "0x608060405234801561001057600080fd5b5060d38061001f6000396000f3fe6080604052348015600f57600080fd5b506004361060285760003560e01c80639b188a0314602d575b600080fd5b60336075565b604051808273ffffffffffffffffffffffffffffffffffffffff1673ffffffffffffffffffffffffffffffffffffffff16815260200191505060405180910390f35b60008060009054906101000a900473ffffffffffffffffffffffffffffffffffffffff1690509056fea265627a7a72315820051dc80e8902d51bcccdcc1e0daa1bc16f275c45102ffc31195ed5661e4aefa264736f6c63430005100032",
  "source": "pragma solidity ^0.5.16;\r\nimport \"./GoBang.sol\";\r\ncontract Master{\r\n    GoBang gobang;\r\n    constructor() public {\r\n       // gobang = new GoBang(30, 1, 2);\r\n    }\r\n    function getGoBang() view public returns(GoBang) {\r\n        return gobang;\r\n    }\r\n}\r\n",
  "sourcePath": "E:\\masterstudy\\2022S1\\cycurrency\\research\\blockchain_game\\src\\contracts\\Master.sol",
  "compiler": {
    "name": "solc",
    "version": "0.5.16+commit.9c3226ce.Emscripten.clang"
  },
  "schemaVersion": "3.4.7",
  "updatedAt": "2022-05-05T04:53:12.049Z",
  "devdoc": {
    "methods": {}
  },
  "userdoc": {
    "methods": {}
  }
}