{
  "contractName": "MemoryToken",
  "abi": [
    {
      "inputs": [],
      "payable": false,
      "stateMutability": "nonpayable",
      "type": "constructor"
    },
    {
      "constant": true,
      "inputs": [],
      "name": "initialBalance",
      "outputs": [
        {
          "internalType": "uint256",
          "name": "",
          "type": "uint256"
        }
      ],
      "payable": false,
      "stateMutability": "view",
      "type": "function"
    },
    {
      "constant": false,
      "inputs": [],
      "name": "GetRoom",
      "outputs": [
        {
          "internalType": "bool",
          "name": "",
          "type": "bool"
        },
        {
          "internalType": "bool",
          "name": "",
          "type": "bool"
        },
        {
          "internalType": "address",
          "name": "",
          "type": "address"
        },
        {
          "internalType": "bool",
          "name": "",
          "type": "bool"
        }
      ],
      "payable": false,
      "stateMutability": "nonpayable",
      "type": "function"
    },
    {
      "constant": false,
      "inputs": [
        {
          "internalType": "uint8",
          "name": "p1Nonce",
          "type": "uint8"
        },
        {
          "internalType": "address payable",
          "name": "player1",
          "type": "address"
        }
      ],
      "name": "CreateRoom",
      "outputs": [],
      "payable": true,
      "stateMutability": "payable",
      "type": "function"
    },
    {
      "constant": false,
      "inputs": [
        {
          "internalType": "uint8",
          "name": "p2Nonce",
          "type": "uint8"
        },
        {
          "internalType": "address payable",
          "name": "player2",
          "type": "address"
        }
      ],
      "name": "joinGame",
      "outputs": [],
      "payable": true,
      "stateMutability": "payable",
      "type": "function"
    },
    {
      "constant": false,
      "inputs": [
        {
          "internalType": "uint8",
          "name": "p1Nonce",
          "type": "uint8"
        },
        {
          "internalType": "address payable",
          "name": "player1",
          "type": "address"
        }
      ],
      "name": "startGame",
      "outputs": [],
      "payable": true,
      "stateMutability": "payable",
      "type": "function"
    },
    {
      "constant": false,
      "inputs": [],
      "name": "SendMoneyToContract",
      "outputs": [
        {
          "internalType": "address",
          "name": "",
          "type": "address"
        },
        {
          "internalType": "uint256",
          "name": "",
          "type": "uint256"
        },
        {
          "internalType": "address",
          "name": "",
          "type": "address"
        },
        {
          "internalType": "uint256",
          "name": "",
          "type": "uint256"
        }
      ],
      "payable": true,
      "stateMutability": "payable",
      "type": "function"
    },
    {
      "constant": false,
      "inputs": [],
      "name": "destroyThisGame",
      "outputs": [],
      "payable": false,
      "stateMutability": "nonpayable",
      "type": "function"
    },
    {
      "constant": false,
      "inputs": [
        {
          "internalType": "uint8",
          "name": "index",
          "type": "uint8"
        },
        {
          "internalType": "uint8",
          "name": "indexs",
          "type": "uint8"
        },
        {
          "internalType": "uint8",
          "name": "status",
          "type": "uint8"
        }
      ],
      "name": "checkGameOver",
      "outputs": [
        {
          "internalType": "bool",
          "name": "",
          "type": "bool"
        }
      ],
      "payable": false,
      "stateMutability": "nonpayable",
      "type": "function"
    },
    {
      "constant": false,
      "inputs": [],
      "name": "getBalance",
      "outputs": [
        {
          "internalType": "uint256",
          "name": "",
          "type": "uint256"
        }
      ],
      "payable": false,
      "stateMutability": "nonpayable",
      "type": "function"
    },
    {
      "constant": false,
      "inputs": [],
      "name": "getWinner",
      "outputs": [
        {
          "internalType": "bool",
          "name": "",
          "type": "bool"
        },
        {
          "internalType": "address",
          "name": "",
          "type": "address"
        }
      ],
      "payable": false,
      "stateMutability": "nonpayable",
      "type": "function"
    },
    {
      "constant": true,
      "inputs": [],
      "name": "reserveData",
      "outputs": [
        {
          "internalType": "uint8[]",
          "name": "",
          "type": "uint8[]"
        },
        {
          "internalType": "uint8[]",
          "name": "",
          "type": "uint8[]"
        },
        {
          "internalType": "uint8[]",
          "name": "",
          "type": "uint8[]"
        },
        {
          "internalType": "address",
          "name": "",
          "type": "address"
        },
        {
          "internalType": "bool",
          "name": "",
          "type": "bool"
        },
        {
          "internalType": "address",
          "name": "",
          "type": "address"
        },
        {
          "internalType": "bool",
          "name": "",
          "type": "bool"
        },
        {
          "internalType": "address",
          "name": "",
          "type": "address"
        },
        {
          "internalType": "uint8",
          "name": "",
          "type": "uint8"
        },
        {
          "internalType": "uint8",
          "name": "",
          "type": "uint8"
        },
        {
          "internalType": "bool",
          "name": "",
          "type": "bool"
        }
      ],
      "payable": false,
      "stateMutability": "view",
      "type": "function"
    },
    {
      "constant": true,
      "inputs": [],
      "name": "getIndex",
      "outputs": [
        {
          "internalType": "uint8[]",
          "name": "",
          "type": "uint8[]"
        },
        {
          "internalType": "uint8[]",
          "name": "",
          "type": "uint8[]"
        },
        {
          "internalType": "uint8[]",
          "name": "",
          "type": "uint8[]"
        },
        {
          "internalType": "address",
          "name": "",
          "type": "address"
        }
      ],
      "payable": false,
      "stateMutability": "view",
      "type": "function"
    },
    {
      "constant": true,
      "inputs": [],
      "name": "getStart",
      "outputs": [
        {
          "internalType": "bool",
          "name": "",
          "type": "bool"
        }
      ],
      "payable": false,
      "stateMutability": "view",
      "type": "function"
    },
    {
      "constant": true,
      "inputs": [],
      "name": "getPlayer",
      "outputs": [
        {
          "internalType": "address",
          "name": "",
          "type": "address"
        },
        {
          "internalType": "uint8",
          "name": "",
          "type": "uint8"
        },
        {
          "internalType": "address",
          "name": "",
          "type": "address"
        }
      ],
      "payable": false,
      "stateMutability": "view",
      "type": "function"
    },
    {
      "constant": false,
      "inputs": [
        {
          "internalType": "uint8",
          "name": "index",
          "type": "uint8"
        },
        {
          "internalType": "uint8",
          "name": "indexs",
          "type": "uint8"
        },
        {
          "internalType": "uint8",
          "name": "status",
          "type": "uint8"
        },
        {
          "internalType": "bool",
          "name": "isWinner",
          "type": "bool"
        }
      ],
      "name": "playMove",
      "outputs": [
        {
          "internalType": "bool",
          "name": "",
          "type": "bool"
        },
        {
          "internalType": "uint256",
          "name": "",
          "type": "uint256"
        }
      ],
      "payable": true,
      "stateMutability": "payable",
      "type": "function"
    },
    {
      "constant": false,
      "inputs": [],
      "name": "playMoveNew",
      "outputs": [
        {
          "internalType": "string",
          "name": "",
          "type": "string"
        }
      ],
      "payable": false,
      "stateMutability": "nonpayable",
      "type": "function"
    }
  ],
  "bytecode": "0x608060405268056bc75e2d631000006000556000604051908082528060200260200182016040528015620000425781602001602082028038833980820191505090505b50600490805190602001906200005a9291906200037c565b5060006040519080825280602002602001820160405280156200008c5781602001602082028038833980820191505090505b5060059080519060200190620000a49291906200037c565b506000604051908082528060200260200182016040528015620000d65781602001602082028038833980820191505090505b5060069080519060200190620000ee9291906200037c565b50348015620000fc57600080fd5b506000602060016101000a81548173ffffffffffffffffffffffffffffffffffffffff021916908373ffffffffffffffffffffffffffffffffffffffff160217905550600060016000600281106200015057fe5b0160006101000a81548173ffffffffffffffffffffffffffffffffffffffff021916908373ffffffffffffffffffffffffffffffffffffffff1602179055506000600180600281106200019f57fe5b0160006101000a81548173ffffffffffffffffffffffffffffffffffffffff021916908373ffffffffffffffffffffffffffffffffffffffff1602179055506000602260006101000a81548160ff0219169083151502179055506000602560006101000a81548160ff0219169083151502179055506000602260016101000a81548160ff0219169083151502179055506729a2241af62c0000602381905550674563918244f400006024819055506005600360016101000a81548163ffffffff021916908363ffffffff16021790555060006026819055506001602060006101000a81548160ff021916908360ff16021790555060006027819055506000600360056101000a81548160ff021916908360ff1602179055506000600360066101000a81548160ff021916908360ff1602179055506000600360006101000a81548160ff021916908360ff1602179055506000602860026101000a81548160ff0219169083151502179055506000602560016101000a81548160ff0219169083151502179055506000602860036101000a81548160ff0219169083151502179055506000602860006101000a81548160ff0219169083151502179055506000602860016101000a81548160ff0219169083151502179055506200045d565b82805482825590600052602060002090601f01602090048101928215620004175791602002820160005b83821115620003e657835183826101000a81548160ff021916908360ff1602179055509260200192600101602081600001049283019260010302620003a6565b8015620004155782816101000a81549060ff0219169055600101602081600001049283019260010302620003e6565b505b5090506200042691906200042a565b5090565b6200045a91905b808211156200045657600081816101000a81549060ff02191690555060010162000431565b5090565b90565b612079806200046d6000396000f3fe6080604052600436106100f35760003560e01c806380b9f6111161008a578063c5292c6711610059578063c5292c67146107d6578063d9180b6e14610805578063dcb09d4614610856578063f38350a3146108a7576100f3565b806380b9f611146105a357806381045ead146105ba5780638e7ea5b2146106e9578063a7d91a951461074b576100f3565b8063289cc9c8116100c6578063289cc9c8146102365780633308f42d146104065780633f7dfff61461049d57806359cf52f314610513576100f3565b80630c578650146100f857806312065fe014610170578063148e96b31461019b57806318369a2a1461020b575b600080fd5b34801561010457600080fd5b5061010d6108f8565b6040518085151515158152602001841515151581526020018373ffffffffffffffffffffffffffffffffffffffff1673ffffffffffffffffffffffffffffffffffffffff1681526020018215151515815260200194505050505060405180910390f35b34801561017c57600080fd5b5061018561096f565b6040518082815260200191505060405180910390f35b3480156101a757600080fd5b506101f1600480360360608110156101be57600080fd5b81019080803560ff169060200190929190803560ff169060200190929190803560ff169060200190929190505050610977565b604051808215151515815260200191505060405180910390f35b34801561021757600080fd5b50610220610f6e565b6040518082815260200191505060405180910390f35b34801561024257600080fd5b5061024b610f74565b604051808060200180602001806020018c73ffffffffffffffffffffffffffffffffffffffff1673ffffffffffffffffffffffffffffffffffffffff1681526020018b1515151581526020018a73ffffffffffffffffffffffffffffffffffffffff1673ffffffffffffffffffffffffffffffffffffffff168152602001891515151581526020018873ffffffffffffffffffffffffffffffffffffffff1673ffffffffffffffffffffffffffffffffffffffff1681526020018760ff1660ff1681526020018660ff1660ff1681526020018515151515815260200184810384528f818151815260200191508051906020019060200280838360005b83811015610362578082015181840152602081019050610347565b5050505090500184810383528e818151815260200191508051906020019060200280838360005b838110156103a4578082015181840152602081019050610389565b5050505090500184810382528d818151815260200191508051906020019060200280838360005b838110156103e65780820151818401526020810190506103cb565b505050509050019e50505050505050505050505050505060405180910390f35b34801561041257600080fd5b5061041b611254565b604051808473ffffffffffffffffffffffffffffffffffffffff1673ffffffffffffffffffffffffffffffffffffffff1681526020018360ff1660ff1681526020018273ffffffffffffffffffffffffffffffffffffffff1673ffffffffffffffffffffffffffffffffffffffff168152602001935050505060405180910390f35b6104f2600480360360808110156104b357600080fd5b81019080803560ff169060200190929190803560ff169060200190929190803560ff16906020019092919080351515906020019092919050505061131b565b60405180831515151581526020018281526020019250505060405180910390f35b34801561051f57600080fd5b506105286115b9565b6040518080602001828103825283818151815260200191508051906020019080838360005b8381101561056857808201518184015260208101905061054d565b50505050905090810190601f1680156105955780820380516001836020036101000a031916815260200191505b509250505060405180910390f35b3480156105af57600080fd5b506105b86115f6565b005b3480156105c657600080fd5b506105cf611a00565b604051808060200180602001806020018573ffffffffffffffffffffffffffffffffffffffff1673ffffffffffffffffffffffffffffffffffffffff168152602001848103845288818151815260200191508051906020019060200280838360005b8381101561064c578082015181840152602081019050610631565b50505050905001848103835287818151815260200191508051906020019060200280838360005b8381101561068e578082015181840152602081019050610673565b50505050905001848103825286818151815260200191508051906020019060200280838360005b838110156106d05780820151818401526020810190506106b5565b5050505090500197505050505050505060405180910390f35b3480156106f557600080fd5b506106fe611be6565b60405180831515151581526020018273ffffffffffffffffffffffffffffffffffffffff1673ffffffffffffffffffffffffffffffffffffffff1681526020019250505060405180910390f35b610753611c27565b604051808573ffffffffffffffffffffffffffffffffffffffff1673ffffffffffffffffffffffffffffffffffffffff1681526020018481526020018373ffffffffffffffffffffffffffffffffffffffff1673ffffffffffffffffffffffffffffffffffffffff16815260200182815260200194505050505060405180910390f35b3480156107e257600080fd5b506107eb611c59565b604051808215151515815260200191505060405180910390f35b6108546004803603604081101561081b57600080fd5b81019080803560ff169060200190929190803573ffffffffffffffffffffffffffffffffffffffff169060200190929190505050611c70565b005b6108a56004803603604081101561086c57600080fd5b81019080803560ff169060200190929190803573ffffffffffffffffffffffffffffffffffffffff169060200190929190505050611d39565b005b6108f6600480360360408110156108bd57600080fd5b81019080803560ff169060200190929190803573ffffffffffffffffffffffffffffffffffffffff169060200190929190505050611ec1565b005b600080600080602860039054906101000a900460ff16602560019054906101000a900460ff16600160006002811061092c57fe5b0160009054906101000a900473ffffffffffffffffffffffffffffffffffffffff16602260019054906101000a900460ff16819150935093509350935090919293565b600047905090565b6000808260ff169050600080905060006001905060008090505b60158110156109ff5760008090505b60158110156109f1576000600783601981106109b857fe5b0182601981106109c457fe5b602091828204019190066101000a81548160ff021916908360ff16021790555080806001019150506109a0565b508080600101915050610991565b5060008090505b600480549050811015610ab85785600760048381548110610a2357fe5b90600052602060002090602091828204019190069054906101000a900460ff1660ff1660198110610a5057fe5b0160058381548110610a5e57fe5b90600052602060002090602091828204019190069054906101000a900460ff1660ff1660198110610a8b57fe5b602091828204019190066101000a81548160ff021916908360ff1602179055508080600101915050610a06565b5060006001870190505b60148160ff161015610b2c578360078260ff1660198110610adf57fe5b018960ff1660198110610aee57fe5b602091828204019190069054906101000a900460ff1660ff161415610b1a578280600101935050610b1f565b610b2c565b8080600101915050610ac2565b5060006001870390505b60008160ff1610610ba0578360078260ff1660198110610b5257fe5b018960ff1660198110610b6157fe5b602091828204019190069054906101000a900460ff1660ff161415610b8d578280600101935050610b92565b610ba0565b808060019003915050610b36565b508060ff168260ff1610610bbe576000915060019350505050610f67565b600080905060006001890190505b60148160ff161015610c36578460078960ff1660198110610be957fe5b018260ff1660198110610bf857fe5b602091828204019190069054906101000a900460ff1660ff161415610c24578180600101925050610c29565b610c36565b8080600101915050610bcc565b5060006001890390505b60008160ff1610610caa578460078960ff1660198110610c5c57fe5b018260ff1660198110610c6b57fe5b602091828204019190069054906101000a900460ff1660ff161415610c97578180600101925050610c9c565b610caa565b808060019003915050610c40565b508160ff168160ff1610610cc957600090506001945050505050610f67565b6000809050600060018a019050600060018a0190505b60148260ff16108015610cf5575060148160ff16105b15610d60578660078360ff1660198110610d0b57fe5b018260ff1660198110610d1a57fe5b602091828204019190069054906101000a900460ff1660ff161415610d46578280600101935050610d4b565b610d60565b81806001019250508080600101915050610cdf565b60018b03915060018a0390505b60008260ff1610158015610d85575060008160ff1610155b15610df2578660078260ff1660198110610d9b57fe5b018360ff1660198110610daa57fe5b602091828204019190069054906101000a900460ff1660ff161415610dd6578280600101935050610ddb565b610df2565b818060019003925050808060019003915050610d6d565b8460ff168360ff1610610e1357600092506001975050505050505050610f67565b600080905060018b01925060018c0391505b60148360ff16108015610e3c575060008260ff1610155b15610ea8578760078460ff1660198110610e5257fe5b018360ff1660198110610e6157fe5b602091828204019190069054906101000a900460ff1660ff161415610e8d578080600101915050610e92565b610ea8565b8280600101935050818060019003925050610e25565b60018b03925060018c0191505b60008360ff1610158015610ecc575060148260ff16105b15610f38578760078460ff1660198110610ee257fe5b018360ff1660198110610ef157fe5b602091828204019190069054906101000a900460ff1660ff161415610f1d578080600101915050610f22565b610f38565b8280600190039350508180600101925050610eb5565b8560ff168160ff1610610f5a5760009050600198505050505050505050610f67565b6000985050505050505050505b9392505050565b60005481565b606080606060008060008060008060008060001515602860029054906101000a900460ff16151514610fa557600080fd5b6004600560066001602060009054906101000a900460ff1660ff1660028110610fca57fe5b0160009054906101000a900473ffffffffffffffffffffffffffffffffffffffff16602260019054906101000a900460ff16600180602060009054906101000a900460ff161860ff166002811061101d57fe5b0160009054906101000a900473ffffffffffffffffffffffffffffffffffffffff16602560019054906101000a900460ff166001600360009054906101000a900460ff1660ff166002811061106e57fe5b0160009054906101000a900473ffffffffffffffffffffffffffffffffffffffff16600360059054906101000a900460ff16600360069054906101000a900460ff16602560009054906101000a900460ff168a80548060200260200160405190810160405280929190818152602001828054801561113157602002820191906000526020600020906000905b82829054906101000a900460ff1660ff16815260200190600101906020826000010492830192600103820291508084116110fa5790505b50505050509a50898054806020026020016040519081016040528092919081815260200182805480156111a957602002820191906000526020600020906000905b82829054906101000a900460ff1660ff16815260200190600101906020826000010492830192600103820291508084116111725790505b505050505099508880548060200260200160405190810160405280929190818152602001828054801561122157602002820191906000526020600020906000905b82829054906101000a900460ff1660ff16815260200190600101906020826000010492830192600103820291508084116111ea5790505b505050505098508797508595508393509a509a509a509a509a509a509a509a509a509a509a50909192939495969798999a565b6000806000801515602860029054906101000a900460ff1615151461127857600080fd5b6001602060009054906101000a900460ff1660ff166002811061129757fe5b0160009054906101000a900473ffffffffffffffffffffffffffffffffffffffff16602060009054906101000a900460ff166001600360009054906101000a900460ff1660ff16600281106112e857fe5b0160009054906101000a900473ffffffffffffffffffffffffffffffffffffffff16829250809050925092509250909192565b6000806001602060009054906101000a900460ff1660ff166002811061133d57fe5b0160009054906101000a900473ffffffffffffffffffffffffffffffffffffffff1673ffffffffffffffffffffffffffffffffffffffff163373ffffffffffffffffffffffffffffffffffffffff161461139657600080fd5b60001515602860029054906101000a900460ff161515146113b657600080fd5b6001602860026101000a81548160ff021916908315150217905550600115158315151415611452576024544710156113ed57600080fd5b3373ffffffffffffffffffffffffffffffffffffffff166108fc6024549081150290604051600060405180830381858888f19350505050158015611435573d6000803e3d6000fd5b506001602560006101000a81548160ff0219169083151502179055505b600486908060018154018082558091505090600182039060005260206000209060209182820401919006909192909190916101000a81548160ff021916908360ff16021790555050600585908060018154018082558091505090600182039060005260206000209060209182820401919006909192909190916101000a81548160ff021916908360ff16021790555050600684908060018154018082558091505090600182039060005260206000209060209182820401919006909192909190916101000a81548160ff021916908360ff160217905550506001602060008282829054906101000a900460ff161892506101000a81548160ff021916908360ff160217905550600360019054906101000a900463ffffffff1663ffffffff1643016021819055506000602860026101000a81548160ff0219169083151502179055506000602060009054906101000a900460ff168060ff1690509150915094509492505050565b60606040518060400160405280600781526020017f48656c6c6f212500000000000000000000000000000000000000000000000000815250905090565b60011515602560009054906101000a900460ff1615151461161657600080fd5b600160006002811061162457fe5b0160009054906101000a900473ffffffffffffffffffffffffffffffffffffffff1673ffffffffffffffffffffffffffffffffffffffff163373ffffffffffffffffffffffffffffffffffffffff161415611699576001602860006101000a81548160ff021916908315150217905550611721565b600180600281106116a657fe5b0160009054906101000a900473ffffffffffffffffffffffffffffffffffffffff1673ffffffffffffffffffffffffffffffffffffffff163373ffffffffffffffffffffffffffffffffffffffff16141561171b576001602860016101000a81548160ff021916908315150217905550611720565b600080fd5b5b60011515602860009054906101000a900460ff161515148015611757575060011515602860019054906101000a900460ff161515145b156119fe576000600360056101000a81548160ff021916908360ff1602179055506000600360066101000a81548160ff021916908360ff1602179055506000602060016101000a81548173ffffffffffffffffffffffffffffffffffffffff021916908373ffffffffffffffffffffffffffffffffffffffff160217905550600060016000600281106117e657fe5b0160006101000a81548173ffffffffffffffffffffffffffffffffffffffff021916908373ffffffffffffffffffffffffffffffffffffffff16021790555060006001806002811061183457fe5b0160006101000a81548173ffffffffffffffffffffffffffffffffffffffff021916908373ffffffffffffffffffffffffffffffffffffffff1602179055506000602260006101000a81548160ff0219169083151502179055506000602560006101000a81548160ff0219169083151502179055506000602260016101000a81548160ff0219169083151502179055506729a2241af62c0000602381905550674563918244f400006024819055506005600360016101000a81548163ffffffff021916908363ffffffff16021790555060006026819055506001602060006101000a81548160ff021916908360ff16021790555060006027819055506000600360006101000a81548160ff021916908360ff1602179055506000602860026101000a81548160ff0219169083151502179055506000602560016101000a81548160ff0219169083151502179055506000602860036101000a81548160ff0219169083151502179055506000602860006101000a81548160ff0219169083151502179055506000602860016101000a81548160ff021916908315150217905550600460006119e19190611ff7565b600560006119ef9190611ff7565b600660006119fd9190611ff7565b5b565b60608060606000801515602860029054906101000a900460ff16151514611a2657600080fd5b6004600560066001602060009054906101000a900460ff1660ff1660028110611a4b57fe5b0160009054906101000a900473ffffffffffffffffffffffffffffffffffffffff1683805480602002602001604051908101604052809291908181526020018280548015611ade57602002820191906000526020600020906000905b82829054906101000a900460ff1660ff1681526020019060010190602082600001049283019260010382029150808411611aa75790505b5050505050935082805480602002602001604051908101604052809291908181526020018280548015611b5657602002820191906000526020600020906000905b82829054906101000a900460ff1660ff1681526020019060010190602082600001049283019260010382029150808411611b1f5790505b5050505050925081805480602002602001604051908101604052809291908181526020018280548015611bce57602002820191906000526020600020906000905b82829054906101000a900460ff1660ff1681526020019060010190602082600001049283019260010382029150808411611b975790505b50505050509150809050935093509350935090919293565b600080602560009054906101000a900460ff16602060019054906101000a900473ffffffffffffffffffffffffffffffffffffffff16809050915091509091565b6000806000803047333373ffffffffffffffffffffffffffffffffffffffff1631819150935093509350935090919293565b6000602260019054906101000a900460ff16905090565b60001515602860039054906101000a900460ff1615151415611cac576001602860036101000a81548160ff021916908315150217905550611cb1565b600080fd5b6000602560006101000a81548160ff021916908315150217905550336001600060028110611cdb57fe5b0160006101000a81548173ffffffffffffffffffffffffffffffffffffffff021916908373ffffffffffffffffffffffffffffffffffffffff16021790555081600360056101000a81548160ff021916908360ff1602179055505050565b600073ffffffffffffffffffffffffffffffffffffffff1660018060028110611d5e57fe5b0160009054906101000a900473ffffffffffffffffffffffffffffffffffffffff1673ffffffffffffffffffffffffffffffffffffffff161415611da157600080fd5b3373ffffffffffffffffffffffffffffffffffffffff166001600060028110611dc657fe5b0160009054906101000a900473ffffffffffffffffffffffffffffffffffffffff1673ffffffffffffffffffffffffffffffffffffffff1614611e0857600080fd5b60001515602260019054906101000a900460ff16151514611e2857600080fd5b8160ff16600360059054906101000a900460ff1660ff1614611e4957600080fd5b6001600360069054906101000a900460ff16831816602060006101000a81548160ff021916908360ff160217905550602060009054906101000a900460ff16600360006101000a81548160ff021916908360ff1602179055506001602260016101000a81548160ff0219169083151502179055505050565b60011515602860039054906101000a900460ff16151514611ee157600080fd5b60001515602560019054906101000a900460ff16151514611f0157600080fd5b60001515602560009054906101000a900460ff16151514611f2157600080fd5b6023543414611f2f57600080fd5b60001515602260009054906101000a900460ff1615151415611f6b576001602260006101000a81548160ff021916908315150217905550611f70565b600080fd5b81600360066101000a81548160ff021916908360ff1602179055503360018060028110611f9957fe5b0160006101000a81548173ffffffffffffffffffffffffffffffffffffffff021916908373ffffffffffffffffffffffffffffffffffffffff1602179055506001602560016101000a81548160ff0219169083151502179055505050565b50805460008255601f01602090049060005260206000209081019061201c919061201f565b50565b61204191905b8082111561203d576000816000905550600101612025565b5090565b9056fea265627a7a72315820f1d566f20fde192f629cfe1def6eebaac3a823582ce475f5529e4aa938439a2364736f6c63430005100032",
  "source": "pragma solidity ^0.5.0;\r\n\r\nimport \"./ERC721Full.sol\";\r\n\r\ncontract MemoryToken{\r\n    // constructor() ERC721Full(\"Memory Token\", \"MEMORY\") public {\r\n    // }\r\n    // //_tokenURI is png url\r\n\r\n    // function mint(address _to, string memory _tokenURI) public returns(bool) {\r\n    //    uint _tokenId = totalSupply().add(1);\r\n    //    _mint(_to, _tokenId);\r\n    //    _setTokenURI(_tokenId, _tokenURI);\r\n    //    return true;\r\n    // }\r\n    uint public initialBalance = 100 ether;\r\n    address payable[2]  _playerAddress;\r\n    uint8 _firstPlayer;\r\n    uint32 _turnLength ;\r\n    uint8  _p1Commitment;\r\n    uint8 _p2Nonce;\r\n    uint8 [] _index = new uint8[](0);\r\n    uint8 [] _indexs = new uint8[](0);\r\n    uint8 [] _status = new uint8[](0);\r\n    uint8 [25][25] _board;\r\n    //uint8 [20][20] _board;\r\n    uint8 _currentPlayer;\r\n    address payable winnerAddress;\r\n    uint256 _turnDeadline;\r\n\r\n    bool isMatch;\r\n    bool isStart;\r\n    uint _fee;\r\n    uint _bonus;\r\n    bool isOver;\r\n    bool isJoin;\r\n    uint256 matchNum;\r\n    uint cnt;\r\n    bool isPlayer0WantDes;\r\n    bool isPlayer1WantDes;\r\n    bool playLock;\r\n    bool isRoomCreate;\r\n    /*\r\n    function mint(address _to, string memory _tokenURI) public returns(bool) {\r\n       //require(_to != address(0));\r\n       uint _tokenId = totalSupply().add(1);\r\n       _mint(_to, _tokenId);\r\n       _setTokenURI(_tokenId, _tokenURI);\r\n       return true;\r\n    }*/\r\n\r\n    constructor ()  public {\r\n        winnerAddress = address(0);\r\n        _playerAddress[0] = address(0);\r\n        _playerAddress[1] = address(0);\r\n        isMatch = false;\r\n        isOver = false;\r\n        isStart = false;\r\n        _fee = 3 ether;\r\n        _bonus = 5 ether;\r\n        _turnLength = 5;\r\n        matchNum = 0;\r\n        _currentPlayer = 1;\r\n        cnt = 0;\r\n        _p1Commitment = 0;\r\n        _p2Nonce = 0;\r\n        _firstPlayer = 0;\r\n        playLock = false;\r\n        isJoin = false;\r\n        isRoomCreate = false;\r\n        isPlayer0WantDes = false;\r\n        isPlayer1WantDes = false;\r\n\r\n    }\r\n    function stringToBytes32(string memory source) internal returns(bytes32 result){\r\n        assembly{\r\n            result := mload(add(source,32))\r\n        }\r\n    }\r\n    function GetRoom() public returns(bool, bool, address, bool) {\r\n        return (isRoomCreate, isJoin, _playerAddress[0], isStart);\r\n    }\r\n    function CreateRoom(uint8 p1Nonce, address payable player1) public payable {\r\n        if(isRoomCreate == false) {\r\n            isRoomCreate = true;\r\n        } else {\r\n            revert();\r\n        }\r\n        isOver = false;\r\n        _playerAddress[0] = msg.sender;\r\n        _p1Commitment = p1Nonce;\r\n\r\n    }\r\n    // Join a game as the second player .\r\n    function joinGame(uint8 p2Nonce, address payable player2) public payable {\r\n        require(isRoomCreate == true);\r\n        require(isJoin == false);\r\n        require(isOver == false);\r\n        require(msg.value == _fee);\r\n        //require(isMatch == false);\r\n        if(isMatch == false){\r\n            isMatch = true;\r\n        } else {\r\n            revert();\r\n        }\r\n        _p2Nonce = p2Nonce;\r\n        _playerAddress[1] = msg.sender;\r\n        isJoin = true;\r\n\r\n    }\r\n    \r\n    // function getMyWant1(uint tmmp) public returns(bytes32, string memory) {\r\n    //     bytes32 id = sha256(abi.encodePacked(tmmp));\r\n    //     return(id, _p1Commitment);\r\n    // }\r\n    // Revealing player 1s nonce to choose who goes first .\r\n    //function startGame (uint8 p1Nonce, bytes32 p1Commitment) public payable{\r\n    function startGame (uint8 p1Nonce, address payable player1) public payable{\r\n        //require(isOver == false);\r\n        require(_playerAddress[1] != address(0));\r\n        require(_playerAddress[0] == msg.sender);\r\n        require(isStart == false);\r\n        //bytes32 id = sha256(abi.encodePacked(p1Nonce));\r\n        require (_p1Commitment == p1Nonce);\r\n        _currentPlayer = (p1Nonce ^ _p2Nonce) & 0x01 ;\r\n        //_currentPlayer = 1;\r\n        _firstPlayer = _currentPlayer;\r\n        isStart = true;\r\n        //_currentPlayer = 0;\r\n        //_turnDeadline = block.number + _turnLength ;\r\n    }\r\n    function SendMoneyToContract() public payable returns(address,uint,address,uint) {\r\n        //mint(_playerAddress[winner], \"1\");\r\n        //safeTransferFrom(address(this), _playerAddress[winner], matchNum);\r\n        return (address(this), address(this).balance, msg.sender, address(msg.sender).balance);\r\n    }\r\n    /*\r\n    function defineWinned(uint8 winner) public payable returns(address,uint,address,uint) {\r\n        //mint(_playerAddress[winner], \"1\");\r\n        //safeTransferFrom(address(this), _playerAddress[winner], matchNum);\r\n        require(address(this).balance >= _bonus);\r\n        address(msg.sender).transfer(_bonus);\r\n        isMatch = false;\r\n        isOver = true;\r\n        \r\n        return (address(this), address(this).balance / 1e18, msg.sender, address(msg.sender).balance/ 1e18);\r\n    }*/\r\n    \r\n    function destroyThisGame() public {\r\n        require(isOver == true);\r\n        if(msg.sender == _playerAddress[0]) {\r\n            isPlayer0WantDes = true;\r\n        } else if(msg.sender == _playerAddress[1]) {\r\n            isPlayer1WantDes = true;\r\n        } else {\r\n            revert();\r\n        }\r\n        if(isPlayer0WantDes == true && isPlayer1WantDes == true) {\r\n            _p1Commitment = 0;\r\n            _p2Nonce = 0;\r\n            winnerAddress = address(0);\r\n            _playerAddress[0] = address(0);\r\n            _playerAddress[1] = address(0);\r\n            isMatch = false;\r\n            isOver = false;\r\n            isStart = false;\r\n            _fee = 3 ether;\r\n            _bonus = 5 ether;\r\n            _turnLength = 5;\r\n            matchNum = 0;\r\n            _currentPlayer = 1;\r\n            cnt = 0;\r\n            _firstPlayer = 0;\r\n            playLock = false;\r\n            isJoin = false;\r\n            isRoomCreate = false;\r\n            isPlayer0WantDes = false;\r\n            isPlayer1WantDes = false;\r\n            delete _index;\r\n            delete _indexs;\r\n            delete _status;\r\n        }\r\n        \r\n    }\r\n\r\n    function checkGameOver(uint8 index, uint8 indexs, uint8 status) public returns(bool) {\r\n        uint currentPlayerRes = status;\r\n        uint8 columnCount = 0;\r\n        uint8 winlen = 1;\r\n        //uint8[21][21] _board = new uint8[21][21](0);\r\n        for(uint i = 0; i < 21; i ++) {\r\n            for(uint j = 0; j < 21; j ++) {\r\n                _board[i][j] = 0;\r\n            }\r\n        }\r\n        for(uint i = 0; i < _index.length; i ++) {\r\n            _board[_index[i]][_indexs[i]] = status;\r\n        }\r\n        for (uint8 i = indexs + 1; i < 20; i++) {\r\n            if (_board[i][index] == currentPlayerRes) {\r\n                columnCount++;\r\n            } else {\r\n                break;\r\n            }\r\n        }\r\n        for (uint8 i = indexs - 1; i >= 0; i--) {\r\n            if (_board[i][index] == currentPlayerRes) {\r\n                columnCount++;\r\n            } else {\r\n                break;\r\n            }\r\n        }\r\n        \r\n        // \r\n        \r\n        if (columnCount >= winlen) {\r\n           // this.defineWinned(_currentPlayer);\r\n            columnCount = 0;\r\n            return true;\r\n        }\r\n        //\r\n        \r\n        uint8 lineCount = 0;\r\n        // \r\n        for (uint8 i = index + 1; i < 20; i++) {\r\n            if (_board[indexs][i] == currentPlayerRes) {\r\n                lineCount++;\r\n            } else {\r\n                break;\r\n            }\r\n        }\r\n        // \r\n        for (uint8 i = index - 1; i >= 0; i--) {\r\n            if (_board[indexs][i] == currentPlayerRes) {\r\n                lineCount++;\r\n            } else {\r\n                break;\r\n            }\r\n        }\r\n        if (lineCount >= winlen) {\r\n           // this.defineWinned(_currentPlayer);\r\n            lineCount = 0;\r\n            return true;\r\n        }\r\n        //- \\\r\n        uint8 obliqueLeftCount = 0;\r\n        // \r\n        uint8 i = index + 1;\r\n        uint8 j = indexs + 1;\r\n        while(i < 20 && j < 20) {\r\n             if (_board[i][j] == currentPlayerRes) {\r\n                obliqueLeftCount++;\r\n            } else {\r\n                break;\r\n            }\r\n            i ++;\r\n            j ++;\r\n        }\r\n        // \r\n        i = index - 1;\r\n        j = indexs - 1;\r\n        while(i >= 0 && j >= 0) {\r\n             if (_board[j][i] == currentPlayerRes) {\r\n                obliqueLeftCount++;\r\n            } else {\r\n                break;\r\n            }\r\n            i --;\r\n            j --;\r\n        }\r\n        if (obliqueLeftCount >= winlen) {\r\n           // this.defineWinned(_currentPlayer);\r\n            obliqueLeftCount = 0;\r\n            return true;\r\n        }\r\n        //- /\r\n        uint8 obliqueRightCount = 0;\r\n        // \r\n        i = indexs + 1;\r\n        j = index - 1;\r\n        while(i < 20 && j >= 0) {\r\n            if (_board[i][j] == currentPlayerRes) {\r\n                obliqueRightCount++;\r\n            } else {\r\n                break;\r\n            }\r\n            i++;\r\n            j--;\r\n        }\r\n        i = indexs- 1;\r\n        j = index + 1;\r\n        while(i >= 0 && j < 20) {\r\n            if (_board[i][j] == currentPlayerRes) {\r\n                obliqueRightCount++;\r\n            } else {\r\n                break;\r\n            }\r\n            i--;\r\n            j++;\r\n        }\r\n        if (obliqueRightCount >= winlen) {\r\n           // this.defineWinned(_currentPlayer);\r\n            obliqueRightCount = 0;\r\n            return true;\r\n        }\r\n        return false;\r\n    }\r\n  \r\n    function getBalance() public returns(uint) {\r\n        return address(this).balance;\r\n    }\r\n    function getWinner() public returns(bool, address) {\r\n        return (isOver, winnerAddress);\r\n    }\r\n    function reserveData() public view returns(uint8 [] memory, uint8 [] memory, uint8 [] memory\r\n    , address, bool, address, bool, address, uint8, uint8, bool) {\r\n        require(playLock == false);\r\n        return (_index, _indexs, _status, _playerAddress[_currentPlayer],isStart,\r\n         _playerAddress[_currentPlayer^0x01], isJoin, _playerAddress[_firstPlayer],\r\n         _p1Commitment, _p2Nonce,isOver);\r\n    }\r\n    // Submit a move\r\n    function getIndex() public view returns(uint8 [] memory, uint8 [] memory, uint8 [] memory, address) {\r\n        require(playLock == false);\r\n        return (_index, _indexs, _status, _playerAddress[_currentPlayer]);\r\n    }\r\n    function getStart() public view returns(bool) {\r\n        return isStart;\r\n    }\r\n    function getPlayer() public view returns(address, uint8, address) {\r\n        require(playLock == false);\r\n        return  (_playerAddress[_currentPlayer], _currentPlayer, _playerAddress[_firstPlayer]);\r\n    }\r\n    \r\n    function playMove(uint8 index, uint8 indexs, uint8 status, bool isWinner) public payable returns(bool, uint){\r\n    // make sure correct player is submitting a move\r\n        require (msg.sender == _playerAddress[_currentPlayer]);\r\n\r\n        // claim this square for the current player .\r\n        require(playLock == false);\r\n        playLock = true;\r\n        if(isWinner == true) {\r\n            require(address(this).balance >= _bonus);\r\n            address(msg.sender).transfer(_bonus);\r\n            isOver = true;\r\n        }\r\n        _index.push(index);\r\n        _indexs.push(indexs);\r\n        _status.push(status);\r\n        _currentPlayer ^= 0x01 ;\r\n        // If the game is won , send the pot to the winner\r\n        \r\n        // if (this.checkGameOver(index, indexs)) {\r\n        //     return (true,  _board [index][indexs]);\r\n        //  }\r\n        // Flip the current player\r\n       // _currentPlayer = _currentPlayer == 0? 1:0;\r\n\r\n        // start the clock for the next move\r\n        _turnDeadline = block.number + _turnLength ;\r\n        playLock = false;\r\n        return (false,  _currentPlayer);\r\n    }\r\n    function playMoveNew() public returns(string memory){\r\n        return \"Hello!%\";\r\n    }\r\n\r\n    // // Default the game if a player takes too long to submit a move\r\n    // function defaultGame () public {\r\n    //     if (block.number + _turnLength > _turnDeadline)\r\n    //         //defineWinned(_currentPlayer^0x01);\r\n    // }\r\n\r\n    \r\n\r\n}\r\n",
  "sourcePath": "E:\\masterstudy\\2022S1\\cycurrency\\research\\blockchain_game\\src\\contracts\\MemoryToken.sol",
  "compiler": {
    "name": "solc",
    "version": "0.5.16+commit.9c3226ce.Emscripten.clang"
  },
  "schemaVersion": "3.4.7",
  "updatedAt": "2022-05-24T14:20:34.118Z",
  "networkType": "ethereum",
  "devdoc": {
    "methods": {}
  },
  "userdoc": {
    "methods": {}
  }
}