{
  "contractName": "MemoryToken",
  "abi": [
    {
      "inputs": [],
      "payable": false,
      "stateMutability": "nonpayable",
      "type": "constructor"
    },
    {
      "constant": true,
      "inputs": [],
      "name": "initialBalance",
      "outputs": [
        {
          "internalType": "uint256",
          "name": "",
          "type": "uint256"
        }
      ],
      "payable": false,
      "stateMutability": "view",
      "type": "function"
    },
    {
      "constant": false,
      "inputs": [],
      "name": "GetRoom",
      "outputs": [
        {
          "internalType": "bool",
          "name": "",
          "type": "bool"
        },
        {
          "internalType": "bool",
          "name": "",
          "type": "bool"
        },
        {
          "internalType": "address",
          "name": "",
          "type": "address"
        },
        {
          "internalType": "bool",
          "name": "",
          "type": "bool"
        }
      ],
      "payable": false,
      "stateMutability": "nonpayable",
      "type": "function"
    },
    {
      "constant": false,
      "inputs": [
        {
          "internalType": "uint8",
          "name": "p1Nonce",
          "type": "uint8"
        },
        {
          "internalType": "address payable",
          "name": "player1",
          "type": "address"
        }
      ],
      "name": "CreateRoom",
      "outputs": [],
      "payable": true,
      "stateMutability": "payable",
      "type": "function"
    },
    {
      "constant": false,
      "inputs": [
        {
          "internalType": "uint8",
          "name": "p2Nonce",
          "type": "uint8"
        },
        {
          "internalType": "address payable",
          "name": "player2",
          "type": "address"
        }
      ],
      "name": "joinGame",
      "outputs": [],
      "payable": true,
      "stateMutability": "payable",
      "type": "function"
    },
    {
      "constant": false,
      "inputs": [
        {
          "internalType": "uint8",
          "name": "p1Nonce",
          "type": "uint8"
        },
        {
          "internalType": "address payable",
          "name": "player1",
          "type": "address"
        }
      ],
      "name": "startGame",
      "outputs": [],
      "payable": true,
      "stateMutability": "payable",
      "type": "function"
    },
    {
      "constant": false,
      "inputs": [],
      "name": "SendMoneyToContract",
      "outputs": [
        {
          "internalType": "address",
          "name": "",
          "type": "address"
        },
        {
          "internalType": "uint256",
          "name": "",
          "type": "uint256"
        },
        {
          "internalType": "address",
          "name": "",
          "type": "address"
        },
        {
          "internalType": "uint256",
          "name": "",
          "type": "uint256"
        }
      ],
      "payable": true,
      "stateMutability": "payable",
      "type": "function"
    },
    {
      "constant": false,
      "inputs": [],
      "name": "destroyThisGame",
      "outputs": [],
      "payable": false,
      "stateMutability": "nonpayable",
      "type": "function"
    },
    {
      "constant": true,
      "inputs": [],
      "name": "getTmp",
      "outputs": [
        {
          "internalType": "uint8",
          "name": "",
          "type": "uint8"
        },
        {
          "internalType": "uint8",
          "name": "",
          "type": "uint8"
        },
        {
          "internalType": "uint8",
          "name": "",
          "type": "uint8"
        },
        {
          "internalType": "uint8",
          "name": "",
          "type": "uint8"
        },
        {
          "internalType": "uint8[25][25]",
          "name": "",
          "type": "uint8[25][25]"
        }
      ],
      "payable": false,
      "stateMutability": "view",
      "type": "function"
    },
    {
      "constant": false,
      "inputs": [],
      "name": "getBalance",
      "outputs": [
        {
          "internalType": "uint256",
          "name": "",
          "type": "uint256"
        }
      ],
      "payable": false,
      "stateMutability": "nonpayable",
      "type": "function"
    },
    {
      "constant": false,
      "inputs": [],
      "name": "getWinner",
      "outputs": [
        {
          "internalType": "bool",
          "name": "",
          "type": "bool"
        },
        {
          "internalType": "address",
          "name": "",
          "type": "address"
        }
      ],
      "payable": false,
      "stateMutability": "nonpayable",
      "type": "function"
    },
    {
      "constant": true,
      "inputs": [],
      "name": "reserveData",
      "outputs": [
        {
          "internalType": "uint8[]",
          "name": "",
          "type": "uint8[]"
        },
        {
          "internalType": "uint8[]",
          "name": "",
          "type": "uint8[]"
        },
        {
          "internalType": "uint8[]",
          "name": "",
          "type": "uint8[]"
        },
        {
          "internalType": "address",
          "name": "",
          "type": "address"
        },
        {
          "internalType": "bool",
          "name": "",
          "type": "bool"
        },
        {
          "internalType": "address",
          "name": "",
          "type": "address"
        },
        {
          "internalType": "bool",
          "name": "",
          "type": "bool"
        },
        {
          "internalType": "address",
          "name": "",
          "type": "address"
        },
        {
          "internalType": "uint8",
          "name": "",
          "type": "uint8"
        },
        {
          "internalType": "uint8",
          "name": "",
          "type": "uint8"
        },
        {
          "internalType": "bool",
          "name": "",
          "type": "bool"
        }
      ],
      "payable": false,
      "stateMutability": "view",
      "type": "function"
    },
    {
      "constant": true,
      "inputs": [],
      "name": "getIndex",
      "outputs": [
        {
          "internalType": "uint8[]",
          "name": "",
          "type": "uint8[]"
        },
        {
          "internalType": "uint8[]",
          "name": "",
          "type": "uint8[]"
        },
        {
          "internalType": "uint8[]",
          "name": "",
          "type": "uint8[]"
        },
        {
          "internalType": "address",
          "name": "",
          "type": "address"
        }
      ],
      "payable": false,
      "stateMutability": "view",
      "type": "function"
    },
    {
      "constant": true,
      "inputs": [],
      "name": "getStart",
      "outputs": [
        {
          "internalType": "bool",
          "name": "",
          "type": "bool"
        }
      ],
      "payable": false,
      "stateMutability": "view",
      "type": "function"
    },
    {
      "constant": true,
      "inputs": [],
      "name": "getPlayer",
      "outputs": [
        {
          "internalType": "address",
          "name": "",
          "type": "address"
        },
        {
          "internalType": "uint8",
          "name": "",
          "type": "uint8"
        },
        {
          "internalType": "address",
          "name": "",
          "type": "address"
        }
      ],
      "payable": false,
      "stateMutability": "view",
      "type": "function"
    },
    {
      "constant": false,
      "inputs": [
        {
          "internalType": "uint8",
          "name": "index",
          "type": "uint8"
        },
        {
          "internalType": "uint8",
          "name": "indexs",
          "type": "uint8"
        },
        {
          "internalType": "uint8",
          "name": "status",
          "type": "uint8"
        },
        {
          "internalType": "bool",
          "name": "isWinner",
          "type": "bool"
        }
      ],
      "name": "playMove",
      "outputs": [
        {
          "internalType": "bool",
          "name": "",
          "type": "bool"
        },
        {
          "internalType": "uint256",
          "name": "",
          "type": "uint256"
        }
      ],
      "payable": true,
      "stateMutability": "payable",
      "type": "function"
    }
  ],
  "bytecode": "0x608060405268056bc75e2d631000006000556000604051908082528060200260200182016040528015620000425781602001602082028038833980820191505090505b50600490805190602001906200005a929190620003ec565b5060006040519080825280602002602001820160405280156200008c5781602001602082028038833980820191505090505b5060059080519060200190620000a4929190620003ec565b506000604051908082528060200260200182016040528015620000d65781602001602082028038833980820191505090505b5060069080519060200190620000ee929190620003ec565b50348015620000fc57600080fd5b506000602060016101000a81548173ffffffffffffffffffffffffffffffffffffffff021916908373ffffffffffffffffffffffffffffffffffffffff160217905550600060016000600281106200015057fe5b0160006101000a81548173ffffffffffffffffffffffffffffffffffffffff021916908373ffffffffffffffffffffffffffffffffffffffff1602179055506000600180600281106200019f57fe5b0160006101000a81548173ffffffffffffffffffffffffffffffffffffffff021916908373ffffffffffffffffffffffffffffffffffffffff1602179055506000602260006101000a81548160ff0219169083151502179055506000602560006101000a81548160ff0219169083151502179055506000602260016101000a81548160ff0219169083151502179055506729a2241af62c0000602381905550674563918244f400006024819055506005600360016101000a81548163ffffffff021916908363ffffffff16021790555060006026819055506001602060006101000a81548160ff021916908360ff16021790555060006027819055506000600360056101000a81548160ff021916908360ff1602179055506000600360066101000a81548160ff021916908360ff1602179055506000600360006101000a81548160ff021916908360ff1602179055506000602860026101000a81548160ff0219169083151502179055506000602560016101000a81548160ff0219169083151502179055506000602860036101000a81548160ff0219169083151502179055506000602860006101000a81548160ff0219169083151502179055506000602860016101000a81548160ff0219169083151502179055506000602860046101000a81548160ff021916908360ff1602179055506000602860056101000a81548160ff021916908360ff1602179055506000602860066101000a81548160ff021916908360ff1602179055506000602860076101000a81548160ff021916908360ff160217905550620004cd565b82805482825590600052602060002090601f01602090048101928215620004875791602002820160005b838211156200045657835183826101000a81548160ff021916908360ff160217905550926020019260010160208160000104928301926001030262000416565b8015620004855782816101000a81549060ff021916905560010160208160000104928301926001030262000456565b505b5090506200049691906200049a565b5090565b620004ca91905b80821115620004c657600081816101000a81549060ff021916905550600101620004a1565b5090565b90565b611b1e80620004dd6000396000f3fe6080604052600436106100e85760003560e01c806381045ead1161008a578063c5292c6711610059578063c5292c6714610775578063d9180b6e146107a4578063dcb09d46146107f5578063f38350a314610846576100e8565b806381045ead146104af5780638e7ea5b2146105de578063a7d91a9514610640578063b80ebb84146106cb576100e8565b8063289cc9c8116100c6578063289cc9c8146101bb5780633308f42d1461038b5780633f7dfff61461042257806380b9f61114610498576100e8565b80630c578650146100ed57806312065fe01461016557806318369a2a14610190575b600080fd5b3480156100f957600080fd5b50610102610897565b6040518085151515158152602001841515151581526020018373ffffffffffffffffffffffffffffffffffffffff1673ffffffffffffffffffffffffffffffffffffffff1681526020018215151515815260200194505050505060405180910390f35b34801561017157600080fd5b5061017a61090e565b6040518082815260200191505060405180910390f35b34801561019c57600080fd5b506101a5610916565b6040518082815260200191505060405180910390f35b3480156101c757600080fd5b506101d061091c565b604051808060200180602001806020018c73ffffffffffffffffffffffffffffffffffffffff1673ffffffffffffffffffffffffffffffffffffffff1681526020018b1515151581526020018a73ffffffffffffffffffffffffffffffffffffffff1673ffffffffffffffffffffffffffffffffffffffff168152602001891515151581526020018873ffffffffffffffffffffffffffffffffffffffff1673ffffffffffffffffffffffffffffffffffffffff1681526020018760ff1660ff1681526020018660ff1660ff1681526020018515151515815260200184810384528f818151815260200191508051906020019060200280838360005b838110156102e75780820151818401526020810190506102cc565b5050505090500184810383528e818151815260200191508051906020019060200280838360005b8381101561032957808201518184015260208101905061030e565b5050505090500184810382528d818151815260200191508051906020019060200280838360005b8381101561036b578082015181840152602081019050610350565b505050509050019e50505050505050505050505050505060405180910390f35b34801561039757600080fd5b506103a0610bfc565b604051808473ffffffffffffffffffffffffffffffffffffffff1673ffffffffffffffffffffffffffffffffffffffff1681526020018360ff1660ff1681526020018273ffffffffffffffffffffffffffffffffffffffff1673ffffffffffffffffffffffffffffffffffffffff168152602001935050505060405180910390f35b6104776004803603608081101561043857600080fd5b81019080803560ff169060200190929190803560ff169060200190929190803560ff169060200190929190803515159060200190929190505050610cc3565b60405180831515151581526020018281526020019250505060405180910390f35b3480156104a457600080fd5b506104ad610f61565b005b3480156104bb57600080fd5b506104c461136b565b604051808060200180602001806020018573ffffffffffffffffffffffffffffffffffffffff1673ffffffffffffffffffffffffffffffffffffffff168152602001848103845288818151815260200191508051906020019060200280838360005b83811015610541578082015181840152602081019050610526565b50505050905001848103835287818151815260200191508051906020019060200280838360005b83811015610583578082015181840152602081019050610568565b50505050905001848103825286818151815260200191508051906020019060200280838360005b838110156105c55780820151818401526020810190506105aa565b5050505090500197505050505050505060405180910390f35b3480156105ea57600080fd5b506105f3611551565b60405180831515151581526020018273ffffffffffffffffffffffffffffffffffffffff1673ffffffffffffffffffffffffffffffffffffffff1681526020019250505060405180910390f35b610648611592565b604051808573ffffffffffffffffffffffffffffffffffffffff1673ffffffffffffffffffffffffffffffffffffffff1681526020018481526020018373ffffffffffffffffffffffffffffffffffffffff1673ffffffffffffffffffffffffffffffffffffffff16815260200182815260200194505050505060405180910390f35b3480156106d757600080fd5b506106e06115c4565b604051808660ff1660ff1681526020018560ff1660ff1681526020018460ff1660ff1681526020018360ff1660ff1681526020018260196000925b818410156107615782846020020151601960200280838360005b83811015610750578082015181840152602081019050610735565b50505050905001926001019261071b565b925050509550505050505060405180910390f35b34801561078157600080fd5b5061078a6116bf565b604051808215151515815260200191505060405180910390f35b6107f3600480360360408110156107ba57600080fd5b81019080803560ff169060200190929190803573ffffffffffffffffffffffffffffffffffffffff1690602001909291905050506116d6565b005b6108446004803603604081101561080b57600080fd5b81019080803560ff169060200190929190803573ffffffffffffffffffffffffffffffffffffffff16906020019092919050505061179f565b005b6108956004803603604081101561085c57600080fd5b81019080803560ff169060200190929190803573ffffffffffffffffffffffffffffffffffffffff169060200190929190505050611915565b005b600080600080602860039054906101000a900460ff16602560019054906101000a900460ff1660016000600281106108cb57fe5b0160009054906101000a900473ffffffffffffffffffffffffffffffffffffffff16602260019054906101000a900460ff16819150935093509350935090919293565b600047905090565b60005481565b606080606060008060008060008060008060001515602860029054906101000a900460ff1615151461094d57600080fd5b6004600560066001602060009054906101000a900460ff1660ff166002811061097257fe5b0160009054906101000a900473ffffffffffffffffffffffffffffffffffffffff16602260019054906101000a900460ff16600180602060009054906101000a900460ff161860ff16600281106109c557fe5b0160009054906101000a900473ffffffffffffffffffffffffffffffffffffffff16602560019054906101000a900460ff166001600360009054906101000a900460ff1660ff1660028110610a1657fe5b0160009054906101000a900473ffffffffffffffffffffffffffffffffffffffff16600360059054906101000a900460ff16600360069054906101000a900460ff16602560009054906101000a900460ff168a805480602002602001604051908101604052809291908181526020018280548015610ad957602002820191906000526020600020906000905b82829054906101000a900460ff1660ff1681526020019060010190602082600001049283019260010382029150808411610aa25790505b50505050509a5089805480602002602001604051908101604052809291908181526020018280548015610b5157602002820191906000526020600020906000905b82829054906101000a900460ff1660ff1681526020019060010190602082600001049283019260010382029150808411610b1a5790505b5050505050995088805480602002602001604051908101604052809291908181526020018280548015610bc957602002820191906000526020600020906000905b82829054906101000a900460ff1660ff1681526020019060010190602082600001049283019260010382029150808411610b925790505b505050505098508797508595508393509a509a509a509a509a509a509a509a509a509a509a50909192939495969798999a565b6000806000801515602860029054906101000a900460ff16151514610c2057600080fd5b6001602060009054906101000a900460ff1660ff1660028110610c3f57fe5b0160009054906101000a900473ffffffffffffffffffffffffffffffffffffffff16602060009054906101000a900460ff166001600360009054906101000a900460ff1660ff1660028110610c9057fe5b0160009054906101000a900473ffffffffffffffffffffffffffffffffffffffff16829250809050925092509250909192565b6000806001602060009054906101000a900460ff1660ff1660028110610ce557fe5b0160009054906101000a900473ffffffffffffffffffffffffffffffffffffffff1673ffffffffffffffffffffffffffffffffffffffff163373ffffffffffffffffffffffffffffffffffffffff1614610d3e57600080fd5b60001515602860029054906101000a900460ff16151514610d5e57600080fd5b6001602860026101000a81548160ff021916908315150217905550600115158315151415610dfa57602454471015610d9557600080fd5b3373ffffffffffffffffffffffffffffffffffffffff166108fc6024549081150290604051600060405180830381858888f19350505050158015610ddd573d6000803e3d6000fd5b506001602560006101000a81548160ff0219169083151502179055505b600486908060018154018082558091505090600182039060005260206000209060209182820401919006909192909190916101000a81548160ff021916908360ff16021790555050600585908060018154018082558091505090600182039060005260206000209060209182820401919006909192909190916101000a81548160ff021916908360ff16021790555050600684908060018154018082558091505090600182039060005260206000209060209182820401919006909192909190916101000a81548160ff021916908360ff160217905550506001602060008282829054906101000a900460ff161892506101000a81548160ff021916908360ff160217905550600360019054906101000a900463ffffffff1663ffffffff1643016021819055506000602860026101000a81548160ff0219169083151502179055506000602060009054906101000a900460ff168060ff1690509150915094509492505050565b60011515602560009054906101000a900460ff16151514610f8157600080fd5b6001600060028110610f8f57fe5b0160009054906101000a900473ffffffffffffffffffffffffffffffffffffffff1673ffffffffffffffffffffffffffffffffffffffff163373ffffffffffffffffffffffffffffffffffffffff161415611004576001602860006101000a81548160ff02191690831515021790555061108c565b6001806002811061101157fe5b0160009054906101000a900473ffffffffffffffffffffffffffffffffffffffff1673ffffffffffffffffffffffffffffffffffffffff163373ffffffffffffffffffffffffffffffffffffffff161415611086576001602860016101000a81548160ff02191690831515021790555061108b565b600080fd5b5b60011515602860009054906101000a900460ff1615151480156110c2575060011515602860019054906101000a900460ff161515145b15611369576000600360056101000a81548160ff021916908360ff1602179055506000600360066101000a81548160ff021916908360ff1602179055506000602060016101000a81548173ffffffffffffffffffffffffffffffffffffffff021916908373ffffffffffffffffffffffffffffffffffffffff1602179055506000600160006002811061115157fe5b0160006101000a81548173ffffffffffffffffffffffffffffffffffffffff021916908373ffffffffffffffffffffffffffffffffffffffff16021790555060006001806002811061119f57fe5b0160006101000a81548173ffffffffffffffffffffffffffffffffffffffff021916908373ffffffffffffffffffffffffffffffffffffffff1602179055506000602260006101000a81548160ff0219169083151502179055506000602560006101000a81548160ff0219169083151502179055506000602260016101000a81548160ff0219169083151502179055506729a2241af62c0000602381905550674563918244f400006024819055506005600360016101000a81548163ffffffff021916908363ffffffff16021790555060006026819055506001602060006101000a81548160ff021916908360ff16021790555060006027819055506000600360006101000a81548160ff021916908360ff1602179055506000602860026101000a81548160ff0219169083151502179055506000602560016101000a81548160ff0219169083151502179055506000602860036101000a81548160ff0219169083151502179055506000602860006101000a81548160ff0219169083151502179055506000602860016101000a81548160ff0219169083151502179055506004600061134c9190611a4b565b6005600061135a9190611a4b565b600660006113689190611a4b565b5b565b60608060606000801515602860029054906101000a900460ff1615151461139157600080fd5b6004600560066001602060009054906101000a900460ff1660ff16600281106113b657fe5b0160009054906101000a900473ffffffffffffffffffffffffffffffffffffffff168380548060200260200160405190810160405280929190818152602001828054801561144957602002820191906000526020600020906000905b82829054906101000a900460ff1660ff16815260200190600101906020826000010492830192600103820291508084116114125790505b50505050509350828054806020026020016040519081016040528092919081815260200182805480156114c157602002820191906000526020600020906000905b82829054906101000a900460ff1660ff168152602001906001019060208260000104928301926001038202915080841161148a5790505b505050505092508180548060200260200160405190810160405280929190818152602001828054801561153957602002820191906000526020600020906000905b82829054906101000a900460ff1660ff16815260200190600101906020826000010492830192600103820291508084116115025790505b50505050509150809050935093509350935090919293565b600080602560009054906101000a900460ff16602060019054906101000a900473ffffffffffffffffffffffffffffffffffffffff16809050915091509091565b6000806000803047333373ffffffffffffffffffffffffffffffffffffffff1631819150935093509350935090919293565b6000806000806115d2611a73565b602860049054906101000a900460ff16602860059054906101000a900460ff16602860069054906101000a900460ff16602860079054906101000a900460ff16600780601980602002604051908101604052809291906000905b828210156116a857838201601980602002604051908101604052809291908260198015611694576020028201916000905b82829054906101000a900460ff1660ff168152602001906001019060208260000104928301926001038202915080841161165d5790505b50505050508152602001906001019061162c565b505050509050945094509450945094509091929394565b6000602260019054906101000a900460ff16905090565b60001515602860039054906101000a900460ff1615151415611712576001602860036101000a81548160ff021916908315150217905550611717565b600080fd5b6000602560006101000a81548160ff02191690831515021790555033600160006002811061174157fe5b0160006101000a81548173ffffffffffffffffffffffffffffffffffffffff021916908373ffffffffffffffffffffffffffffffffffffffff16021790555081600360056101000a81548160ff021916908360ff1602179055505050565b600073ffffffffffffffffffffffffffffffffffffffff16600180600281106117c457fe5b0160009054906101000a900473ffffffffffffffffffffffffffffffffffffffff1673ffffffffffffffffffffffffffffffffffffffff16141561180757600080fd5b3373ffffffffffffffffffffffffffffffffffffffff16600160006002811061182c57fe5b0160009054906101000a900473ffffffffffffffffffffffffffffffffffffffff1673ffffffffffffffffffffffffffffffffffffffff161461186e57600080fd5b602354341461187c57600080fd5b8160ff16600360059054906101000a900460ff1660ff161461189d57600080fd5b6001600360069054906101000a900460ff16831816602060006101000a81548160ff021916908360ff160217905550602060009054906101000a900460ff16600360006101000a81548160ff021916908360ff1602179055506001602260016101000a81548160ff0219169083151502179055505050565b60011515602860039054906101000a900460ff1615151461193557600080fd5b60001515602560019054906101000a900460ff1615151461195557600080fd5b60001515602560009054906101000a900460ff1615151461197557600080fd5b602354341461198357600080fd5b60001515602260009054906101000a900460ff16151514156119bf576001602260006101000a81548160ff0219169083151502179055506119c4565b600080fd5b81600360066101000a81548160ff021916908360ff16021790555033600180600281106119ed57fe5b0160006101000a81548173ffffffffffffffffffffffffffffffffffffffff021916908373ffffffffffffffffffffffffffffffffffffffff1602179055506001602560016101000a81548160ff0219169083151502179055505050565b50805460008255601f016020900490600052602060002090810190611a709190611aa1565b50565b6040518061032001604052806019905b611a8b611ac6565b815260200190600190039081611a835790505090565b611ac391905b80821115611abf576000816000905550600101611aa7565b5090565b90565b60405180610320016040528060199060208202803883398082019150509050509056fea265627a7a7231582033b408239df86be62af7ab43ba783b9e61af4e6da0813858b1c9cebb439af95e64736f6c63430005100032",
  "source": "pragma solidity ^0.5.0;\r\n\r\nimport \"./ERC721Full.sol\";\r\n\r\ncontract MemoryToken{\r\n    uint public initialBalance = 100 ether;\r\n    address payable[2]  _playerAddress;\r\n    uint8 _firstPlayer;\r\n    uint32 _turnLength ;\r\n    uint8  _p1Commitment;\r\n    uint8 _p2Nonce;\r\n    uint8 [] _index = new uint8[](0);\r\n    uint8 [] _indexs = new uint8[](0);\r\n    uint8 [] _status = new uint8[](0);\r\n    uint8 [25][25] _board;\r\n    uint8 _currentPlayer;\r\n    address payable winnerAddress;\r\n    uint256 _turnDeadline;\r\n\r\n    bool isMatch;\r\n    bool isStart;\r\n    uint _fee;\r\n    uint _bonus;\r\n    bool isOver;\r\n    bool isJoin;\r\n    uint256 matchNum;\r\n    uint cnt;\r\n    bool isPlayer0WantDes;\r\n    bool isPlayer1WantDes;\r\n    bool playLock;\r\n    bool isRoomCreate;\r\n\r\n    uint8 tmp1;\r\n    uint8 tmp2;\r\n    uint8 tmp3;\r\n    uint8 tmp4;\r\n \r\n\r\n    constructor ()  public {\r\n        winnerAddress = address(0);\r\n        _playerAddress[0] = address(0);\r\n        _playerAddress[1] = address(0);\r\n        isMatch = false;\r\n        isOver = false;\r\n        isStart = false;\r\n        _fee = 3 ether;\r\n        _bonus = 5 ether;\r\n        _turnLength = 5;\r\n        matchNum = 0;\r\n        _currentPlayer = 1;\r\n        cnt = 0;\r\n        _p1Commitment = 0;\r\n        _p2Nonce = 0;\r\n        _firstPlayer = 0;\r\n        playLock = false;\r\n        isJoin = false;\r\n        isRoomCreate = false;\r\n        isPlayer0WantDes = false;\r\n        isPlayer1WantDes = false;\r\n        tmp1 = 0;\r\n        tmp2 = 0;\r\n        tmp3 = 0;\r\n        tmp4 = 0;\r\n\r\n    }\r\n    function stringToBytes32(string memory source) internal returns(bytes32 result){\r\n        assembly{\r\n            result := mload(add(source,32))\r\n        }\r\n    }\r\n    function GetRoom() public returns(bool, bool, address, bool) {\r\n        return (isRoomCreate, isJoin, _playerAddress[0], isStart);\r\n    }\r\n    function CreateRoom(uint8 p1Nonce, address payable player1) public payable {\r\n        if(isRoomCreate == false) {\r\n            isRoomCreate = true;\r\n        } else {\r\n            revert();\r\n        }\r\n        isOver = false;\r\n        _playerAddress[0] = msg.sender;\r\n        _p1Commitment = p1Nonce;\r\n\r\n    }\r\n    // Join a game as the second player .\r\n    function joinGame(uint8 p2Nonce, address payable player2) public payable {\r\n        require(isRoomCreate == true);\r\n        require(isJoin == false);\r\n        require(isOver == false);\r\n        require(msg.value == _fee);\r\n        if(isMatch == false){\r\n            isMatch = true;\r\n        } else {\r\n            revert();\r\n        }\r\n        _p2Nonce = p2Nonce;\r\n        _playerAddress[1] = msg.sender;\r\n        isJoin = true;\r\n\r\n    }\r\n    \r\n    function startGame (uint8 p1Nonce, address payable player1) public payable{\r\n        //require(isOver == false);\r\n        require(_playerAddress[1] != address(0));\r\n        require(_playerAddress[0] == msg.sender);\r\n        require(msg.value == _fee);\r\n        require (_p1Commitment == p1Nonce);\r\n        _currentPlayer = (p1Nonce ^ _p2Nonce) & 0x01 ;\r\n        _firstPlayer = _currentPlayer;\r\n        isStart = true;\r\n    }\r\n    function SendMoneyToContract() public payable returns(address,uint,address,uint) {\r\n        return (address(this), address(this).balance, msg.sender, address(msg.sender).balance);\r\n    }\r\n    \r\n    function destroyThisGame() public {\r\n        require(isOver == true);\r\n        if(msg.sender == _playerAddress[0]) {\r\n            isPlayer0WantDes = true;\r\n        } else if(msg.sender == _playerAddress[1]) {\r\n            isPlayer1WantDes = true;\r\n        } else {\r\n            revert();\r\n        }\r\n        if(isPlayer0WantDes == true && isPlayer1WantDes == true) {\r\n            _p1Commitment = 0;\r\n            _p2Nonce = 0;\r\n            winnerAddress = address(0);\r\n            _playerAddress[0] = address(0);\r\n            _playerAddress[1] = address(0);\r\n            isMatch = false;\r\n            isOver = false;\r\n            isStart = false;\r\n            _fee = 3 ether;\r\n            _bonus = 5 ether;\r\n            _turnLength = 5;\r\n            matchNum = 0;\r\n            _currentPlayer = 1;\r\n            cnt = 0;\r\n            _firstPlayer = 0;\r\n            playLock = false;\r\n            isJoin = false;\r\n            isRoomCreate = false;\r\n            isPlayer0WantDes = false;\r\n            isPlayer1WantDes = false;\r\n            delete _index;\r\n            delete _indexs;\r\n            delete _status;\r\n        }\r\n        \r\n    }\r\n\r\n    \r\n    function getTmp() public view returns(uint8, uint8, uint8, uint8, uint8 [25][25] memory) {\r\n        return (tmp1, tmp2, tmp3, tmp4, _board);\r\n    }\r\n    function getBalance() public returns(uint) {\r\n        return address(this).balance;\r\n    }\r\n    function getWinner() public returns(bool, address) {\r\n        return (isOver, winnerAddress);\r\n    }\r\n    function reserveData() public view returns(uint8 [] memory, uint8 [] memory, uint8 [] memory\r\n    , address, bool, address, bool, address, uint8, uint8, bool) {\r\n        require(playLock == false);\r\n        return (_index, _indexs, _status, _playerAddress[_currentPlayer],isStart,\r\n         _playerAddress[_currentPlayer^0x01], isJoin, _playerAddress[_firstPlayer],\r\n         _p1Commitment, _p2Nonce,isOver);\r\n    }\r\n    // Submit a move\r\n    function getIndex() public view returns(uint8 [] memory, uint8 [] memory, uint8 [] memory, address) {\r\n        require(playLock == false);\r\n        return (_index, _indexs, _status, _playerAddress[_currentPlayer]);\r\n    }\r\n    function getStart() public view returns(bool) {\r\n        return isStart;\r\n    }\r\n    function getPlayer() public view returns(address, uint8, address) {\r\n        require(playLock == false);\r\n        return  (_playerAddress[_currentPlayer], _currentPlayer, _playerAddress[_firstPlayer]);\r\n    }\r\n    \r\n    function playMove(uint8 index, uint8 indexs, uint8 status, bool isWinner) public payable returns(bool, uint){\r\n    // make sure correct player is submitting a move\r\n        require (msg.sender == _playerAddress[_currentPlayer]);\r\n\r\n        // claim this square for the current player .\r\n        require(playLock == false);\r\n        playLock = true;\r\n        //checkGameOver(index, indexs, status);\r\n        if(isWinner == true) {\r\n            require(address(this).balance >= _bonus);\r\n            address(msg.sender).transfer(_bonus);\r\n            isOver = true;\r\n        }\r\n        _index.push(index);\r\n        _indexs.push(indexs);\r\n        _status.push(status);\r\n        _currentPlayer ^= 0x01 ;\r\n       \r\n        _turnDeadline = block.number + _turnLength ;\r\n        playLock = false;\r\n        return (false,  _currentPlayer);\r\n    }\r\n\r\n\r\n    \r\n    \r\n\r\n}\r\n",
  "sourcePath": "E:\\masterstudy\\2022S1\\cycurrency\\research\\blockchain_game\\src\\contracts\\MemoryToken.sol",
  "compiler": {
    "name": "solc",
    "version": "0.5.16+commit.9c3226ce.Emscripten.clang"
  },
  "schemaVersion": "3.4.7",
  "updatedAt": "2022-05-25T06:53:08.475Z",
  "networkType": "ethereum",
  "devdoc": {
    "methods": {}
  },
  "userdoc": {
    "methods": {}
  }
}