{
  "contractName": "MemoryToken",
  "abi": [
    {
      "inputs": [],
      "payable": false,
      "stateMutability": "nonpayable",
      "type": "constructor"
    },
    {
      "constant": true,
      "inputs": [],
      "name": "initialBalance",
      "outputs": [
        {
          "internalType": "uint256",
          "name": "",
          "type": "uint256"
        }
      ],
      "payable": false,
      "stateMutability": "view",
      "type": "function"
    },
    {
      "constant": false,
      "inputs": [],
      "name": "GetRoom",
      "outputs": [
        {
          "internalType": "bool",
          "name": "",
          "type": "bool"
        },
        {
          "internalType": "bool",
          "name": "",
          "type": "bool"
        },
        {
          "internalType": "address",
          "name": "",
          "type": "address"
        },
        {
          "internalType": "bool",
          "name": "",
          "type": "bool"
        }
      ],
      "payable": false,
      "stateMutability": "nonpayable",
      "type": "function"
    },
    {
      "constant": false,
      "inputs": [
        {
          "internalType": "uint8",
          "name": "p1Nonce",
          "type": "uint8"
        },
        {
          "internalType": "address payable",
          "name": "player1",
          "type": "address"
        }
      ],
      "name": "CreateRoom",
      "outputs": [],
      "payable": true,
      "stateMutability": "payable",
      "type": "function"
    },
    {
      "constant": false,
      "inputs": [
        {
          "internalType": "uint8",
          "name": "p2Nonce",
          "type": "uint8"
        },
        {
          "internalType": "address payable",
          "name": "player2",
          "type": "address"
        }
      ],
      "name": "joinGame",
      "outputs": [],
      "payable": true,
      "stateMutability": "payable",
      "type": "function"
    },
    {
      "constant": false,
      "inputs": [
        {
          "internalType": "uint8",
          "name": "p1Nonce",
          "type": "uint8"
        },
        {
          "internalType": "address payable",
          "name": "player1",
          "type": "address"
        }
      ],
      "name": "startGame",
      "outputs": [],
      "payable": true,
      "stateMutability": "payable",
      "type": "function"
    },
    {
      "constant": false,
      "inputs": [],
      "name": "SendMoneyToContract",
      "outputs": [
        {
          "internalType": "address",
          "name": "",
          "type": "address"
        },
        {
          "internalType": "uint256",
          "name": "",
          "type": "uint256"
        },
        {
          "internalType": "address",
          "name": "",
          "type": "address"
        },
        {
          "internalType": "uint256",
          "name": "",
          "type": "uint256"
        }
      ],
      "payable": true,
      "stateMutability": "payable",
      "type": "function"
    },
    {
      "constant": false,
      "inputs": [],
      "name": "destroyThisGame",
      "outputs": [],
      "payable": false,
      "stateMutability": "nonpayable",
      "type": "function"
    },
    {
      "constant": false,
      "inputs": [
        {
          "internalType": "uint8",
          "name": "index",
          "type": "uint8"
        },
        {
          "internalType": "uint8",
          "name": "indexs",
          "type": "uint8"
        },
        {
          "internalType": "uint8",
          "name": "status",
          "type": "uint8"
        }
      ],
      "name": "checkGameOver",
      "outputs": [
        {
          "internalType": "bool",
          "name": "",
          "type": "bool"
        }
      ],
      "payable": false,
      "stateMutability": "nonpayable",
      "type": "function"
    },
    {
      "constant": true,
      "inputs": [],
      "name": "getTmp",
      "outputs": [
        {
          "internalType": "uint8",
          "name": "",
          "type": "uint8"
        },
        {
          "internalType": "uint8",
          "name": "",
          "type": "uint8"
        },
        {
          "internalType": "uint8",
          "name": "",
          "type": "uint8"
        },
        {
          "internalType": "uint8",
          "name": "",
          "type": "uint8"
        },
        {
          "internalType": "uint8[25][25]",
          "name": "",
          "type": "uint8[25][25]"
        }
      ],
      "payable": false,
      "stateMutability": "view",
      "type": "function"
    },
    {
      "constant": false,
      "inputs": [],
      "name": "getBalance",
      "outputs": [
        {
          "internalType": "uint256",
          "name": "",
          "type": "uint256"
        }
      ],
      "payable": false,
      "stateMutability": "nonpayable",
      "type": "function"
    },
    {
      "constant": false,
      "inputs": [],
      "name": "getWinner",
      "outputs": [
        {
          "internalType": "bool",
          "name": "",
          "type": "bool"
        },
        {
          "internalType": "address",
          "name": "",
          "type": "address"
        }
      ],
      "payable": false,
      "stateMutability": "nonpayable",
      "type": "function"
    },
    {
      "constant": true,
      "inputs": [],
      "name": "reserveData",
      "outputs": [
        {
          "internalType": "uint8[]",
          "name": "",
          "type": "uint8[]"
        },
        {
          "internalType": "uint8[]",
          "name": "",
          "type": "uint8[]"
        },
        {
          "internalType": "uint8[]",
          "name": "",
          "type": "uint8[]"
        },
        {
          "internalType": "address",
          "name": "",
          "type": "address"
        },
        {
          "internalType": "bool",
          "name": "",
          "type": "bool"
        },
        {
          "internalType": "address",
          "name": "",
          "type": "address"
        },
        {
          "internalType": "bool",
          "name": "",
          "type": "bool"
        },
        {
          "internalType": "address",
          "name": "",
          "type": "address"
        },
        {
          "internalType": "uint8",
          "name": "",
          "type": "uint8"
        },
        {
          "internalType": "uint8",
          "name": "",
          "type": "uint8"
        },
        {
          "internalType": "bool",
          "name": "",
          "type": "bool"
        }
      ],
      "payable": false,
      "stateMutability": "view",
      "type": "function"
    },
    {
      "constant": true,
      "inputs": [],
      "name": "getIndex",
      "outputs": [
        {
          "internalType": "uint8[]",
          "name": "",
          "type": "uint8[]"
        },
        {
          "internalType": "uint8[]",
          "name": "",
          "type": "uint8[]"
        },
        {
          "internalType": "uint8[]",
          "name": "",
          "type": "uint8[]"
        },
        {
          "internalType": "address",
          "name": "",
          "type": "address"
        }
      ],
      "payable": false,
      "stateMutability": "view",
      "type": "function"
    },
    {
      "constant": true,
      "inputs": [],
      "name": "getStart",
      "outputs": [
        {
          "internalType": "bool",
          "name": "",
          "type": "bool"
        }
      ],
      "payable": false,
      "stateMutability": "view",
      "type": "function"
    },
    {
      "constant": true,
      "inputs": [],
      "name": "getPlayer",
      "outputs": [
        {
          "internalType": "address",
          "name": "",
          "type": "address"
        },
        {
          "internalType": "uint8",
          "name": "",
          "type": "uint8"
        },
        {
          "internalType": "address",
          "name": "",
          "type": "address"
        }
      ],
      "payable": false,
      "stateMutability": "view",
      "type": "function"
    },
    {
      "constant": false,
      "inputs": [
        {
          "internalType": "uint8",
          "name": "index",
          "type": "uint8"
        },
        {
          "internalType": "uint8",
          "name": "indexs",
          "type": "uint8"
        },
        {
          "internalType": "uint8",
          "name": "status",
          "type": "uint8"
        },
        {
          "internalType": "bool",
          "name": "isWinner",
          "type": "bool"
        }
      ],
      "name": "playMove",
      "outputs": [
        {
          "internalType": "bool",
          "name": "",
          "type": "bool"
        },
        {
          "internalType": "uint256",
          "name": "",
          "type": "uint256"
        }
      ],
      "payable": true,
      "stateMutability": "payable",
      "type": "function"
    },
    {
      "constant": false,
      "inputs": [],
      "name": "playMoveNew",
      "outputs": [
        {
          "internalType": "string",
          "name": "",
          "type": "string"
        }
      ],
      "payable": false,
      "stateMutability": "nonpayable",
      "type": "function"
    }
  ],
  "bytecode": "0x608060405268056bc75e2d631000006000556000604051908082528060200260200182016040528015620000425781602001602082028038833980820191505090505b50600490805190602001906200005a92919062000467565b5060006040519080825280602002602001820160405280156200008c5781602001602082028038833980820191505090505b5060059080519060200190620000a492919062000467565b506000604051908082528060200260200182016040528015620000d65781602001602082028038833980820191505090505b5060069080519060200190620000ee92919062000467565b50348015620000fc57600080fd5b506000602060016101000a81548173ffffffffffffffffffffffffffffffffffffffff021916908373ffffffffffffffffffffffffffffffffffffffff160217905550600060016000600281106200015057fe5b0160006101000a81548173ffffffffffffffffffffffffffffffffffffffff021916908373ffffffffffffffffffffffffffffffffffffffff1602179055506000600180600281106200019f57fe5b0160006101000a81548173ffffffffffffffffffffffffffffffffffffffff021916908373ffffffffffffffffffffffffffffffffffffffff1602179055506000602260006101000a81548160ff0219169083151502179055506000602560006101000a81548160ff0219169083151502179055506000602260016101000a81548160ff0219169083151502179055506729a2241af62c0000602381905550674563918244f400006024819055506005600360016101000a81548163ffffffff021916908363ffffffff16021790555060006026819055506001602060006101000a81548160ff021916908360ff16021790555060006027819055506000600360056101000a81548160ff021916908360ff1602179055506000600360066101000a81548160ff021916908360ff1602179055506000600360006101000a81548160ff021916908360ff1602179055506000602860026101000a81548160ff0219169083151502179055506000602560016101000a81548160ff0219169083151502179055506000602860036101000a81548160ff0219169083151502179055506000602860006101000a81548160ff0219169083151502179055506000602860016101000a81548160ff02191690831515021790555060008090505b6015811015620003f05760008090505b6015811015620003e157600060078360198110620003a657fe5b018260198110620003b357fe5b602091828204019190066101000a81548160ff021916908360ff16021790555080806001019150506200038c565b5080806001019150506200037c565b506000602860046101000a81548160ff021916908360ff1602179055506000602860056101000a81548160ff021916908360ff1602179055506000602860066101000a81548160ff021916908360ff1602179055506000602860076101000a81548160ff021916908360ff16021790555062000548565b82805482825590600052602060002090601f01602090048101928215620005025791602002820160005b83821115620004d157835183826101000a81548160ff021916908360ff160217905550926020019260010160208160000104928301926001030262000491565b8015620005005782816101000a81549060ff0219169055600101602081600001049283019260010302620004d1565b505b50905062000511919062000515565b5090565b6200054591905b808211156200054157600081816101000a81549060ff0219169055506001016200051c565b5090565b90565b61226b80620005586000396000f3fe6080604052600436106100fe5760003560e01c806380b9f61111610095578063b80ebb8411610064578063b80ebb84146107e1578063c5292c671461088b578063d9180b6e146108ba578063dcb09d461461090b578063f38350a31461095c576100fe565b806380b9f611146105ae57806381045ead146105c55780638e7ea5b2146106f4578063a7d91a9514610756576100fe565b8063289cc9c8116100d1578063289cc9c8146102415780633308f42d146104115780633f7dfff6146104a857806359cf52f31461051e576100fe565b80630c5786501461010357806312065fe01461017b578063148e96b3146101a657806318369a2a14610216575b600080fd5b34801561010f57600080fd5b506101186109ad565b6040518085151515158152602001841515151581526020018373ffffffffffffffffffffffffffffffffffffffff1673ffffffffffffffffffffffffffffffffffffffff1681526020018215151515815260200194505050505060405180910390f35b34801561018757600080fd5b50610190610a24565b6040518082815260200191505060405180910390f35b3480156101b257600080fd5b506101fc600480360360608110156101c957600080fd5b81019080803560ff169060200190929190803560ff169060200190929190803560ff169060200190929190505050610a2c565b604051808215151515815260200191505060405180910390f35b34801561022257600080fd5b5061022b610f71565b6040518082815260200191505060405180910390f35b34801561024d57600080fd5b50610256610f77565b604051808060200180602001806020018c73ffffffffffffffffffffffffffffffffffffffff1673ffffffffffffffffffffffffffffffffffffffff1681526020018b1515151581526020018a73ffffffffffffffffffffffffffffffffffffffff1673ffffffffffffffffffffffffffffffffffffffff168152602001891515151581526020018873ffffffffffffffffffffffffffffffffffffffff1673ffffffffffffffffffffffffffffffffffffffff1681526020018760ff1660ff1681526020018660ff1660ff1681526020018515151515815260200184810384528f818151815260200191508051906020019060200280838360005b8381101561036d578082015181840152602081019050610352565b5050505090500184810383528e818151815260200191508051906020019060200280838360005b838110156103af578082015181840152602081019050610394565b5050505090500184810382528d818151815260200191508051906020019060200280838360005b838110156103f15780820151818401526020810190506103d6565b505050509050019e50505050505050505050505050505060405180910390f35b34801561041d57600080fd5b50610426611257565b604051808473ffffffffffffffffffffffffffffffffffffffff1673ffffffffffffffffffffffffffffffffffffffff1681526020018360ff1660ff1681526020018273ffffffffffffffffffffffffffffffffffffffff1673ffffffffffffffffffffffffffffffffffffffff168152602001935050505060405180910390f35b6104fd600480360360808110156104be57600080fd5b81019080803560ff169060200190929190803560ff169060200190929190803560ff16906020019092919080351515906020019092919050505061131e565b60405180831515151581526020018281526020019250505060405180910390f35b34801561052a57600080fd5b506105336115fc565b6040518080602001828103825283818151815260200191508051906020019080838360005b83811015610573578082015181840152602081019050610558565b50505050905090810190601f1680156105a05780820380516001836020036101000a031916815260200191505b509250505060405180910390f35b3480156105ba57600080fd5b506105c3611639565b005b3480156105d157600080fd5b506105da611ab8565b604051808060200180602001806020018573ffffffffffffffffffffffffffffffffffffffff1673ffffffffffffffffffffffffffffffffffffffff168152602001848103845288818151815260200191508051906020019060200280838360005b8381101561065757808201518184015260208101905061063c565b50505050905001848103835287818151815260200191508051906020019060200280838360005b8381101561069957808201518184015260208101905061067e565b50505050905001848103825286818151815260200191508051906020019060200280838360005b838110156106db5780820151818401526020810190506106c0565b5050505090500197505050505050505060405180910390f35b34801561070057600080fd5b50610709611c9e565b60405180831515151581526020018273ffffffffffffffffffffffffffffffffffffffff1673ffffffffffffffffffffffffffffffffffffffff1681526020019250505060405180910390f35b61075e611cdf565b604051808573ffffffffffffffffffffffffffffffffffffffff1673ffffffffffffffffffffffffffffffffffffffff1681526020018481526020018373ffffffffffffffffffffffffffffffffffffffff1673ffffffffffffffffffffffffffffffffffffffff16815260200182815260200194505050505060405180910390f35b3480156107ed57600080fd5b506107f6611d11565b604051808660ff1660ff1681526020018560ff1660ff1681526020018460ff1660ff1681526020018360ff1660ff1681526020018260196000925b818410156108775782846020020151601960200280838360005b8381101561086657808201518184015260208101905061084b565b505050509050019260010192610831565b925050509550505050505060405180910390f35b34801561089757600080fd5b506108a0611e0c565b604051808215151515815260200191505060405180910390f35b610909600480360360408110156108d057600080fd5b81019080803560ff169060200190929190803573ffffffffffffffffffffffffffffffffffffffff169060200190929190505050611e23565b005b61095a6004803603604081101561092157600080fd5b81019080803560ff169060200190929190803573ffffffffffffffffffffffffffffffffffffffff169060200190929190505050611eec565b005b6109ab6004803603604081101561097257600080fd5b81019080803560ff169060200190929190803573ffffffffffffffffffffffffffffffffffffffff169060200190929190505050612062565b005b600080600080602860039054906101000a900460ff16602560019054906101000a900460ff1660016000600281106109e157fe5b0160009054906101000a900473ffffffffffffffffffffffffffffffffffffffff16602260019054906101000a900460ff16819150935093509350935090919293565b600047905090565b600080829050600080905060006002905060006001870190505b60148160ff161015610ab3578360ff1660078260ff1660198110610a6657fe5b018960ff1660198110610a7557fe5b602091828204019190069054906101000a900460ff1660ff161415610aa1578280600101935050610aa6565b610ab3565b8080600101915050610a46565b5060006001870390505b60008160ff1610610b2a578360ff1660078260ff1660198110610adc57fe5b018960ff1660198110610aeb57fe5b602091828204019190069054906101000a900460ff1660ff161415610b17578280600101935050610b1c565b610b2a565b808060019003915050610abd565b5081602860046101000a81548160ff021916908360ff1602179055508060ff168260ff1610610b63576000915060019350505050610f6a565b600080905060006001890190505b60148160ff161015610bde578460ff1660078960ff1660198110610b9157fe5b018260ff1660198110610ba057fe5b602091828204019190069054906101000a900460ff1660ff161415610bcc578180600101925050610bd1565b610bde565b8080600101915050610b71565b5060006001890390505b60008160ff1610610c55578460ff1660078960ff1660198110610c0757fe5b018260ff1660198110610c1657fe5b602091828204019190069054906101000a900460ff1660ff161415610c42578180600101925050610c47565b610c55565b808060019003915050610be8565b5080602860056101000a81548160ff021916908360ff1602179055508160ff168160ff1610610c8f57600090506001945050505050610f6a565b60008090506000600189019050600060018b0190505b60148260ff16108015610cbb575060148160ff16105b15610d29578660ff1660078360ff1660198110610cd457fe5b018260ff1660198110610ce357fe5b602091828204019190069054906101000a900460ff1660ff161415610d0f578280600101935050610d14565b610d29565b81806001019250508080600101915050610ca5565b60018a03915060018b0390505b60008260ff1610158015610d4e575060008160ff1610155b15610dbe578660ff1660078360ff1660198110610d6757fe5b018260ff1660198110610d7657fe5b602091828204019190069054906101000a900460ff1660ff161415610da2578280600101935050610da7565b610dbe565b818060019003925050808060019003915050610d36565b82602860066101000a81548160ff021916908360ff1602179055508460ff168360ff1610610dfa57600092506001975050505050505050610f6a565b600080905060018b01925060018c0391505b60148360ff16108015610e23575060008260ff1610155b15610e8d578760ff1660078460ff1660198110610e3c57fe5b018360ff1660198110610e4b57fe5b602091828204019190069054906101000a900460ff1660ff161415610e77578080600101915050610e7c565b610e8d565b600183019250600182039150610e0c565b60018b03925060018c0191505b60008360ff1610158015610eb1575060148260ff16105b15610f20578760ff1660078460ff1660198110610eca57fe5b018360ff1660198110610ed957fe5b602091828204019190069054906101000a900460ff1660ff161415610f05578080600101915050610f0a565b610f20565b8280600190039350508180600101925050610e9a565b80602860076101000a81548160ff021916908360ff1602179055508560ff168160ff1610610f5d5760009050600198505050505050505050610f6a565b6000985050505050505050505b9392505050565b60005481565b606080606060008060008060008060008060001515602860029054906101000a900460ff16151514610fa857600080fd5b6004600560066001602060009054906101000a900460ff1660ff1660028110610fcd57fe5b0160009054906101000a900473ffffffffffffffffffffffffffffffffffffffff16602260019054906101000a900460ff16600180602060009054906101000a900460ff161860ff166002811061102057fe5b0160009054906101000a900473ffffffffffffffffffffffffffffffffffffffff16602560019054906101000a900460ff166001600360009054906101000a900460ff1660ff166002811061107157fe5b0160009054906101000a900473ffffffffffffffffffffffffffffffffffffffff16600360059054906101000a900460ff16600360069054906101000a900460ff16602560009054906101000a900460ff168a80548060200260200160405190810160405280929190818152602001828054801561113457602002820191906000526020600020906000905b82829054906101000a900460ff1660ff16815260200190600101906020826000010492830192600103820291508084116110fd5790505b50505050509a50898054806020026020016040519081016040528092919081815260200182805480156111ac57602002820191906000526020600020906000905b82829054906101000a900460ff1660ff16815260200190600101906020826000010492830192600103820291508084116111755790505b505050505099508880548060200260200160405190810160405280929190818152602001828054801561122457602002820191906000526020600020906000905b82829054906101000a900460ff1660ff16815260200190600101906020826000010492830192600103820291508084116111ed5790505b505050505098508797508595508393509a509a509a509a509a509a509a509a509a509a509a50909192939495969798999a565b6000806000801515602860029054906101000a900460ff1615151461127b57600080fd5b6001602060009054906101000a900460ff1660ff166002811061129a57fe5b0160009054906101000a900473ffffffffffffffffffffffffffffffffffffffff16602060009054906101000a900460ff166001600360009054906101000a900460ff1660ff16600281106112eb57fe5b0160009054906101000a900473ffffffffffffffffffffffffffffffffffffffff16829250809050925092509250909192565b6000806001602060009054906101000a900460ff1660ff166002811061134057fe5b0160009054906101000a900473ffffffffffffffffffffffffffffffffffffffff1673ffffffffffffffffffffffffffffffffffffffff163373ffffffffffffffffffffffffffffffffffffffff161461139957600080fd5b60001515602860029054906101000a900460ff161515146113b957600080fd5b6001602860026101000a81548160ff021916908315150217905550600115158315151415611455576024544710156113f057600080fd5b3373ffffffffffffffffffffffffffffffffffffffff166108fc6024549081150290604051600060405180830381858888f19350505050158015611438573d6000803e3d6000fd5b506001602560006101000a81548160ff0219169083151502179055505b8360078660ff166019811061146657fe5b018760ff166019811061147557fe5b602091828204019190066101000a81548160ff021916908360ff160217905550600486908060018154018082558091505090600182039060005260206000209060209182820401919006909192909190916101000a81548160ff021916908360ff16021790555050600585908060018154018082558091505090600182039060005260206000209060209182820401919006909192909190916101000a81548160ff021916908360ff16021790555050600684908060018154018082558091505090600182039060005260206000209060209182820401919006909192909190916101000a81548160ff021916908360ff160217905550506001602060008282829054906101000a900460ff161892506101000a81548160ff021916908360ff160217905550600360019054906101000a900463ffffffff1663ffffffff1643016021819055506000602860026101000a81548160ff0219169083151502179055506000602060009054906101000a900460ff168060ff1690509150915094509492505050565b60606040518060400160405280600781526020017f48656c6c6f212500000000000000000000000000000000000000000000000000815250905090565b60011515602560009054906101000a900460ff1615151461165957600080fd5b600160006002811061166757fe5b0160009054906101000a900473ffffffffffffffffffffffffffffffffffffffff1673ffffffffffffffffffffffffffffffffffffffff163373ffffffffffffffffffffffffffffffffffffffff1614156116dc576001602860006101000a81548160ff021916908315150217905550611764565b600180600281106116e957fe5b0160009054906101000a900473ffffffffffffffffffffffffffffffffffffffff1673ffffffffffffffffffffffffffffffffffffffff163373ffffffffffffffffffffffffffffffffffffffff16141561175e576001602860016101000a81548160ff021916908315150217905550611763565b600080fd5b5b60011515602860009054906101000a900460ff16151514801561179a575060011515602860019054906101000a900460ff161515145b15611ab6576000600360056101000a81548160ff021916908360ff1602179055506000600360066101000a81548160ff021916908360ff1602179055506000602060016101000a81548173ffffffffffffffffffffffffffffffffffffffff021916908373ffffffffffffffffffffffffffffffffffffffff1602179055506000600160006002811061182957fe5b0160006101000a81548173ffffffffffffffffffffffffffffffffffffffff021916908373ffffffffffffffffffffffffffffffffffffffff16021790555060006001806002811061187757fe5b0160006101000a81548173ffffffffffffffffffffffffffffffffffffffff021916908373ffffffffffffffffffffffffffffffffffffffff1602179055506000602260006101000a81548160ff0219169083151502179055506000602560006101000a81548160ff0219169083151502179055506000602260016101000a81548160ff0219169083151502179055506729a2241af62c0000602381905550674563918244f400006024819055506005600360016101000a81548163ffffffff021916908363ffffffff16021790555060006026819055506001602060006101000a81548160ff021916908360ff16021790555060006027819055506000600360006101000a81548160ff021916908360ff1602179055506000602860026101000a81548160ff0219169083151502179055506000602560016101000a81548160ff0219169083151502179055506000602860036101000a81548160ff0219169083151502179055506000602860006101000a81548160ff0219169083151502179055506000602860016101000a81548160ff02191690831515021790555060046000611a249190612198565b60056000611a329190612198565b60066000611a409190612198565b60008090505b6015811015611ab45760008090505b6015811015611aa657600060078360198110611a6d57fe5b018260198110611a7957fe5b602091828204019190066101000a81548160ff021916908360ff1602179055508080600101915050611a55565b508080600101915050611a46565b505b565b60608060606000801515602860029054906101000a900460ff16151514611ade57600080fd5b6004600560066001602060009054906101000a900460ff1660ff1660028110611b0357fe5b0160009054906101000a900473ffffffffffffffffffffffffffffffffffffffff1683805480602002602001604051908101604052809291908181526020018280548015611b9657602002820191906000526020600020906000905b82829054906101000a900460ff1660ff1681526020019060010190602082600001049283019260010382029150808411611b5f5790505b5050505050935082805480602002602001604051908101604052809291908181526020018280548015611c0e57602002820191906000526020600020906000905b82829054906101000a900460ff1660ff1681526020019060010190602082600001049283019260010382029150808411611bd75790505b5050505050925081805480602002602001604051908101604052809291908181526020018280548015611c8657602002820191906000526020600020906000905b82829054906101000a900460ff1660ff1681526020019060010190602082600001049283019260010382029150808411611c4f5790505b50505050509150809050935093509350935090919293565b600080602560009054906101000a900460ff16602060019054906101000a900473ffffffffffffffffffffffffffffffffffffffff16809050915091509091565b6000806000803047333373ffffffffffffffffffffffffffffffffffffffff1631819150935093509350935090919293565b600080600080611d1f6121c0565b602860049054906101000a900460ff16602860059054906101000a900460ff16602860069054906101000a900460ff16602860079054906101000a900460ff16600780601980602002604051908101604052809291906000905b82821015611df557838201601980602002604051908101604052809291908260198015611de1576020028201916000905b82829054906101000a900460ff1660ff1681526020019060010190602082600001049283019260010382029150808411611daa5790505b505050505081526020019060010190611d79565b505050509050945094509450945094509091929394565b6000602260019054906101000a900460ff16905090565b60001515602860039054906101000a900460ff1615151415611e5f576001602860036101000a81548160ff021916908315150217905550611e64565b600080fd5b6000602560006101000a81548160ff021916908315150217905550336001600060028110611e8e57fe5b0160006101000a81548173ffffffffffffffffffffffffffffffffffffffff021916908373ffffffffffffffffffffffffffffffffffffffff16021790555081600360056101000a81548160ff021916908360ff1602179055505050565b600073ffffffffffffffffffffffffffffffffffffffff1660018060028110611f1157fe5b0160009054906101000a900473ffffffffffffffffffffffffffffffffffffffff1673ffffffffffffffffffffffffffffffffffffffff161415611f5457600080fd5b3373ffffffffffffffffffffffffffffffffffffffff166001600060028110611f7957fe5b0160009054906101000a900473ffffffffffffffffffffffffffffffffffffffff1673ffffffffffffffffffffffffffffffffffffffff1614611fbb57600080fd5b6023543414611fc957600080fd5b8160ff16600360059054906101000a900460ff1660ff1614611fea57600080fd5b6001600360069054906101000a900460ff16831816602060006101000a81548160ff021916908360ff160217905550602060009054906101000a900460ff16600360006101000a81548160ff021916908360ff1602179055506001602260016101000a81548160ff0219169083151502179055505050565b60011515602860039054906101000a900460ff1615151461208257600080fd5b60001515602560019054906101000a900460ff161515146120a257600080fd5b60001515602560009054906101000a900460ff161515146120c257600080fd5b60235434146120d057600080fd5b60001515602260009054906101000a900460ff161515141561210c576001602260006101000a81548160ff021916908315150217905550612111565b600080fd5b81600360066101000a81548160ff021916908360ff160217905550336001806002811061213a57fe5b0160006101000a81548173ffffffffffffffffffffffffffffffffffffffff021916908373ffffffffffffffffffffffffffffffffffffffff1602179055506001602560016101000a81548160ff0219169083151502179055505050565b50805460008255601f0160209004906000526020600020908101906121bd91906121ee565b50565b6040518061032001604052806019905b6121d8612213565b8152602001906001900390816121d05790505090565b61221091905b8082111561220c5760008160009055506001016121f4565b5090565b90565b60405180610320016040528060199060208202803883398082019150509050509056fea265627a7a72315820c0c57f74bbb699ffb6fca2418e647c26410bc25aace2707e40ecace0dc7bd3c064736f6c63430005100032",
  "source": "pragma solidity ^0.5.0;\r\n\r\nimport \"./ERC721Full.sol\";\r\n\r\ncontract MemoryToken{\r\n    // constructor() ERC721Full(\"Memory Token\", \"MEMORY\") public {\r\n    // }\r\n    // //_tokenURI is png url\r\n\r\n    // function mint(address _to, string memory _tokenURI) public returns(bool) {\r\n    //    uint _tokenId = totalSupply().add(1);\r\n    //    _mint(_to, _tokenId);\r\n    //    _setTokenURI(_tokenId, _tokenURI);\r\n    //    return true;\r\n    // }\r\n    uint public initialBalance = 100 ether;\r\n    address payable[2]  _playerAddress;\r\n    uint8 _firstPlayer;\r\n    uint32 _turnLength ;\r\n    uint8  _p1Commitment;\r\n    uint8 _p2Nonce;\r\n    uint8 [] _index = new uint8[](0);\r\n    uint8 [] _indexs = new uint8[](0);\r\n    uint8 [] _status = new uint8[](0);\r\n    uint8 [25][25] _board;\r\n    //uint8 [20][20] _board;\r\n    uint8 _currentPlayer;\r\n    address payable winnerAddress;\r\n    uint256 _turnDeadline;\r\n\r\n    bool isMatch;\r\n    bool isStart;\r\n    uint _fee;\r\n    uint _bonus;\r\n    bool isOver;\r\n    bool isJoin;\r\n    uint256 matchNum;\r\n    uint cnt;\r\n    bool isPlayer0WantDes;\r\n    bool isPlayer1WantDes;\r\n    bool playLock;\r\n    bool isRoomCreate;\r\n\r\n    uint8 tmp1;\r\n    uint8 tmp2;\r\n    uint8 tmp3;\r\n    uint8 tmp4;\r\n    /*\r\n    function mint(address _to, string memory _tokenURI) public returns(bool) {\r\n       //require(_to != address(0));\r\n       uint _tokenId = totalSupply().add(1);\r\n       _mint(_to, _tokenId);\r\n       _setTokenURI(_tokenId, _tokenURI);\r\n       return true;\r\n    }*/\r\n\r\n    constructor ()  public {\r\n        winnerAddress = address(0);\r\n        _playerAddress[0] = address(0);\r\n        _playerAddress[1] = address(0);\r\n        isMatch = false;\r\n        isOver = false;\r\n        isStart = false;\r\n        _fee = 3 ether;\r\n        _bonus = 5 ether;\r\n        _turnLength = 5;\r\n        matchNum = 0;\r\n        _currentPlayer = 1;\r\n        cnt = 0;\r\n        _p1Commitment = 0;\r\n        _p2Nonce = 0;\r\n        _firstPlayer = 0;\r\n        playLock = false;\r\n        isJoin = false;\r\n        isRoomCreate = false;\r\n        isPlayer0WantDes = false;\r\n        isPlayer1WantDes = false;\r\n        for(uint i = 0; i < 21; i ++) {\r\n            for(uint j = 0; j < 21; j ++) {\r\n                _board[i][j] = 0;\r\n            }\r\n        }\r\n        tmp1 = 0;\r\n        tmp2 = 0;\r\n        tmp3 = 0;\r\n        tmp4 = 0;\r\n\r\n    }\r\n    function stringToBytes32(string memory source) internal returns(bytes32 result){\r\n        assembly{\r\n            result := mload(add(source,32))\r\n        }\r\n    }\r\n    function GetRoom() public returns(bool, bool, address, bool) {\r\n        return (isRoomCreate, isJoin, _playerAddress[0], isStart);\r\n    }\r\n    function CreateRoom(uint8 p1Nonce, address payable player1) public payable {\r\n        if(isRoomCreate == false) {\r\n            isRoomCreate = true;\r\n        } else {\r\n            revert();\r\n        }\r\n        isOver = false;\r\n        _playerAddress[0] = msg.sender;\r\n        _p1Commitment = p1Nonce;\r\n\r\n    }\r\n    // Join a game as the second player .\r\n    function joinGame(uint8 p2Nonce, address payable player2) public payable {\r\n        require(isRoomCreate == true);\r\n        require(isJoin == false);\r\n        require(isOver == false);\r\n        require(msg.value == _fee);\r\n        //require(isMatch == false);\r\n        if(isMatch == false){\r\n            isMatch = true;\r\n        } else {\r\n            revert();\r\n        }\r\n        _p2Nonce = p2Nonce;\r\n        _playerAddress[1] = msg.sender;\r\n        isJoin = true;\r\n\r\n    }\r\n    \r\n    // function getMyWant1(uint tmmp) public returns(bytes32, string memory) {\r\n    //     bytes32 id = sha256(abi.encodePacked(tmmp));\r\n    //     return(id, _p1Commitment);\r\n    // }\r\n    // Revealing player 1s nonce to choose who goes first .\r\n    //function startGame (uint8 p1Nonce, bytes32 p1Commitment) public payable{\r\n    function startGame (uint8 p1Nonce, address payable player1) public payable{\r\n        //require(isOver == false);\r\n        require(_playerAddress[1] != address(0));\r\n        require(_playerAddress[0] == msg.sender);\r\n        require(msg.value == _fee);\r\n        //bytes32 id = sha256(abi.encodePacked(p1Nonce));\r\n        require (_p1Commitment == p1Nonce);\r\n        _currentPlayer = (p1Nonce ^ _p2Nonce) & 0x01 ;\r\n        //_currentPlayer = 1;\r\n        _firstPlayer = _currentPlayer;\r\n        isStart = true;\r\n        //_currentPlayer = 0;\r\n        //_turnDeadline = block.number + _turnLength ;\r\n    }\r\n    function SendMoneyToContract() public payable returns(address,uint,address,uint) {\r\n        //mint(_playerAddress[winner], \"1\");\r\n        //safeTransferFrom(address(this), _playerAddress[winner], matchNum);\r\n        return (address(this), address(this).balance, msg.sender, address(msg.sender).balance);\r\n    }\r\n    /*\r\n    function defineWinned(uint8 winner) public payable returns(address,uint,address,uint) {\r\n        //mint(_playerAddress[winner], \"1\");\r\n        //safeTransferFrom(address(this), _playerAddress[winner], matchNum);\r\n        require(address(this).balance >= _bonus);\r\n        address(msg.sender).transfer(_bonus);\r\n        isMatch = false;\r\n        isOver = true;\r\n        \r\n        return (address(this), address(this).balance / 1e18, msg.sender, address(msg.sender).balance/ 1e18);\r\n    }*/\r\n    \r\n    function destroyThisGame() public {\r\n        require(isOver == true);\r\n        if(msg.sender == _playerAddress[0]) {\r\n            isPlayer0WantDes = true;\r\n        } else if(msg.sender == _playerAddress[1]) {\r\n            isPlayer1WantDes = true;\r\n        } else {\r\n            revert();\r\n        }\r\n        if(isPlayer0WantDes == true && isPlayer1WantDes == true) {\r\n            _p1Commitment = 0;\r\n            _p2Nonce = 0;\r\n            winnerAddress = address(0);\r\n            _playerAddress[0] = address(0);\r\n            _playerAddress[1] = address(0);\r\n            isMatch = false;\r\n            isOver = false;\r\n            isStart = false;\r\n            _fee = 3 ether;\r\n            _bonus = 5 ether;\r\n            _turnLength = 5;\r\n            matchNum = 0;\r\n            _currentPlayer = 1;\r\n            cnt = 0;\r\n            _firstPlayer = 0;\r\n            playLock = false;\r\n            isJoin = false;\r\n            isRoomCreate = false;\r\n            isPlayer0WantDes = false;\r\n            isPlayer1WantDes = false;\r\n            delete _index;\r\n            delete _indexs;\r\n            delete _status;\r\n            for(uint i = 0; i < 21; i ++) {\r\n                for(uint j = 0; j < 21; j ++) {\r\n                    _board[i][j] = 0;\r\n                }\r\n        }\r\n        }\r\n        \r\n    }\r\n\r\n    function checkGameOver(uint8 index, uint8 indexs, uint8 status) public returns(bool) {\r\n        uint8 currentPlayerRes = status;\r\n        uint8 columnCount = 0;\r\n        uint8 winlen = 2;\r\n        //uint8[21][21] _board = new uint8[21][21](0);\r\n        \r\n        for (uint8 i = indexs + 1; i < 20; i++) {\r\n            if (_board[i][index] == currentPlayerRes) {\r\n                columnCount++;\r\n            } else {\r\n                break;\r\n            }\r\n        }\r\n        for (uint8 i = indexs - 1; i >= 0; i--) {\r\n            if (_board[i][index] == currentPlayerRes) {\r\n                columnCount++;\r\n            } else {\r\n                break;\r\n            }\r\n        }\r\n        \r\n        // \r\n        tmp1 = columnCount;\r\n        if (columnCount >= winlen) {\r\n           // this.defineWinned(_currentPlayer);\r\n            columnCount = 0;\r\n            return true;\r\n        }\r\n        //\r\n        \r\n        uint8 lineCount = 0;\r\n        // \r\n        for (uint8 i = index + 1; i < 20; i++) {\r\n            if (_board[indexs][i] == currentPlayerRes) {\r\n                lineCount++;\r\n            } else {\r\n                break;\r\n            }\r\n        }\r\n        // \r\n        for (uint8 i = index - 1; i >= 0; i--) {\r\n            if (_board[indexs][i] == currentPlayerRes) {\r\n                lineCount++;\r\n            } else {\r\n                break;\r\n            }\r\n        }\r\n        tmp2 = lineCount;\r\n        if (lineCount >= winlen) {\r\n           // this.defineWinned(_currentPlayer);\r\n            lineCount = 0;\r\n            return true;\r\n        }\r\n        //- \\\r\n        uint8 obliqueLeftCount = 0;\r\n        // \r\n        uint8 i = indexs + 1;\r\n        uint8 j = index + 1;\r\n        while(i < 20 && j < 20) {\r\n             if (_board[i][j] == currentPlayerRes) {\r\n                obliqueLeftCount++;\r\n            } else {\r\n                break;\r\n            }\r\n            i ++;\r\n            j ++;\r\n        }\r\n        // \r\n        i = indexs - 1;\r\n        j = index - 1;\r\n        while(i >= 0 && j >= 0) {\r\n             if (_board[i][j] == currentPlayerRes) {\r\n                obliqueLeftCount++;\r\n            } else {\r\n                break;\r\n            }\r\n            i --;\r\n            j --;\r\n        }\r\n        tmp3 = obliqueLeftCount;\r\n        if (obliqueLeftCount >= winlen) {\r\n           // this.defineWinned(_currentPlayer);\r\n            obliqueLeftCount = 0;\r\n            return true;\r\n        }\r\n        //- /\r\n        uint8 obliqueRightCount = 0;\r\n        // \r\n        i = indexs + 1;\r\n        j = index - 1;\r\n        while(i < 20 && j >= 0) {\r\n            if (_board[i][j] == currentPlayerRes) {\r\n                obliqueRightCount++;\r\n            } else {\r\n                break;\r\n            }\r\n            i = i + 1;\r\n            j = j - 1;\r\n        }\r\n        i = indexs- 1;\r\n        j = index + 1;\r\n        while(i >= 0 && j < 20) {\r\n            if (_board[i][j] == currentPlayerRes) {\r\n                obliqueRightCount++;\r\n            } else {\r\n                break;\r\n            }\r\n            i--;\r\n            j++;\r\n        }\r\n        tmp4 = obliqueRightCount;\r\n        if (obliqueRightCount >= winlen) {\r\n           // this.defineWinned(_currentPlayer);\r\n            obliqueRightCount = 0;\r\n            return true;\r\n        }\r\n        return false;\r\n    }\r\n    \r\n    function getTmp() public view returns(uint8, uint8, uint8, uint8, uint8 [25][25] memory) {\r\n        return (tmp1, tmp2, tmp3, tmp4, _board);\r\n    }\r\n    function getBalance() public returns(uint) {\r\n        return address(this).balance;\r\n    }\r\n    function getWinner() public returns(bool, address) {\r\n        return (isOver, winnerAddress);\r\n    }\r\n    function reserveData() public view returns(uint8 [] memory, uint8 [] memory, uint8 [] memory\r\n    , address, bool, address, bool, address, uint8, uint8, bool) {\r\n        require(playLock == false);\r\n        return (_index, _indexs, _status, _playerAddress[_currentPlayer],isStart,\r\n         _playerAddress[_currentPlayer^0x01], isJoin, _playerAddress[_firstPlayer],\r\n         _p1Commitment, _p2Nonce,isOver);\r\n    }\r\n    // Submit a move\r\n    function getIndex() public view returns(uint8 [] memory, uint8 [] memory, uint8 [] memory, address) {\r\n        require(playLock == false);\r\n        return (_index, _indexs, _status, _playerAddress[_currentPlayer]);\r\n    }\r\n    function getStart() public view returns(bool) {\r\n        return isStart;\r\n    }\r\n    function getPlayer() public view returns(address, uint8, address) {\r\n        require(playLock == false);\r\n        return  (_playerAddress[_currentPlayer], _currentPlayer, _playerAddress[_firstPlayer]);\r\n    }\r\n    \r\n    function playMove(uint8 index, uint8 indexs, uint8 status, bool isWinner) public payable returns(bool, uint){\r\n    // make sure correct player is submitting a move\r\n        require (msg.sender == _playerAddress[_currentPlayer]);\r\n\r\n        // claim this square for the current player .\r\n        require(playLock == false);\r\n        playLock = true;\r\n        //checkGameOver(index, indexs, status);\r\n        if(isWinner == true) {\r\n            //if(checkGameOver(index, indexs, status)) {\r\n                require(address(this).balance >= _bonus);\r\n                address(msg.sender).transfer(_bonus);\r\n                isOver = true;\r\n            //} else {\r\n            //     revert();\r\n            //}\r\n        }\r\n        _board[indexs][index] = status;\r\n        _index.push(index);\r\n        _indexs.push(indexs);\r\n        _status.push(status);\r\n        _currentPlayer ^= 0x01 ;\r\n        // If the game is won , send the pot to the winner\r\n        \r\n        // if (this.checkGameOver(index, indexs)) {\r\n        //     return (true,  _board [index][indexs]);\r\n        //  }\r\n        // Flip the current player\r\n       // _currentPlayer = _currentPlayer == 0? 1:0;\r\n\r\n        // start the clock for the next move\r\n        _turnDeadline = block.number + _turnLength ;\r\n        playLock = false;\r\n        return (false,  _currentPlayer);\r\n    }\r\n    function playMoveNew() public returns(string memory){\r\n        return \"Hello!%\";\r\n    }\r\n\r\n    // // Default the game if a player takes too long to submit a move\r\n    // function defaultGame () public {\r\n    //     if (block.number + _turnLength > _turnDeadline)\r\n    //         //defineWinned(_currentPlayer^0x01);\r\n    // }\r\n\r\n    \r\n\r\n}\r\n",
  "sourcePath": "E:\\masterstudy\\2022S1\\cycurrency\\research\\blockchain_game\\src\\contracts\\MemoryToken.sol",
  "compiler": {
    "name": "solc",
    "version": "0.5.16+commit.9c3226ce.Emscripten.clang"
  },
  "schemaVersion": "3.4.7",
  "updatedAt": "2022-05-25T03:44:50.595Z",
  "networkType": "ethereum",
  "devdoc": {
    "methods": {}
  },
  "userdoc": {
    "methods": {}
  }
}