{
  "contractName": "MemoryToken",
  "abi": [
    {
      "inputs": [],
      "payable": false,
      "stateMutability": "nonpayable",
      "type": "constructor"
    },
    {
      "constant": true,
      "inputs": [],
      "name": "initialBalance",
      "outputs": [
        {
          "internalType": "uint256",
          "name": "",
          "type": "uint256"
        }
      ],
      "payable": false,
      "stateMutability": "view",
      "type": "function"
    },
    {
      "constant": false,
      "inputs": [
        {
          "internalType": "bytes32",
          "name": "p1Commitment",
          "type": "bytes32"
        }
      ],
      "name": "setNonce1",
      "outputs": [],
      "payable": false,
      "stateMutability": "nonpayable",
      "type": "function"
    },
    {
      "constant": false,
      "inputs": [
        {
          "internalType": "uint8",
          "name": "p2Nonce",
          "type": "uint8"
        },
        {
          "internalType": "address payable",
          "name": "player1",
          "type": "address"
        }
      ],
      "name": "joinGame",
      "outputs": [],
      "payable": true,
      "stateMutability": "payable",
      "type": "function"
    },
    {
      "constant": false,
      "inputs": [],
      "name": "startGame",
      "outputs": [],
      "payable": true,
      "stateMutability": "payable",
      "type": "function"
    },
    {
      "constant": false,
      "inputs": [],
      "name": "SendMoneyToContract",
      "outputs": [
        {
          "internalType": "address",
          "name": "",
          "type": "address"
        },
        {
          "internalType": "uint256",
          "name": "",
          "type": "uint256"
        },
        {
          "internalType": "address",
          "name": "",
          "type": "address"
        },
        {
          "internalType": "uint256",
          "name": "",
          "type": "uint256"
        }
      ],
      "payable": true,
      "stateMutability": "payable",
      "type": "function"
    },
    {
      "constant": false,
      "inputs": [
        {
          "internalType": "uint8",
          "name": "winner",
          "type": "uint8"
        }
      ],
      "name": "defineWinned",
      "outputs": [
        {
          "internalType": "address",
          "name": "",
          "type": "address"
        },
        {
          "internalType": "uint256",
          "name": "",
          "type": "uint256"
        },
        {
          "internalType": "address",
          "name": "",
          "type": "address"
        },
        {
          "internalType": "uint256",
          "name": "",
          "type": "uint256"
        }
      ],
      "payable": true,
      "stateMutability": "payable",
      "type": "function"
    },
    {
      "constant": false,
      "inputs": [],
      "name": "getBalance",
      "outputs": [
        {
          "internalType": "uint256",
          "name": "",
          "type": "uint256"
        }
      ],
      "payable": false,
      "stateMutability": "nonpayable",
      "type": "function"
    },
    {
      "constant": false,
      "inputs": [
        {
          "internalType": "uint8",
          "name": "index",
          "type": "uint8"
        },
        {
          "internalType": "uint8",
          "name": "indexs",
          "type": "uint8"
        }
      ],
      "name": "checkGameOver",
      "outputs": [
        {
          "internalType": "bool",
          "name": "",
          "type": "bool"
        }
      ],
      "payable": false,
      "stateMutability": "nonpayable",
      "type": "function"
    },
    {
      "constant": false,
      "inputs": [
        {
          "internalType": "uint8",
          "name": "index",
          "type": "uint8"
        },
        {
          "internalType": "uint8",
          "name": "indexs",
          "type": "uint8"
        }
      ],
      "name": "playMove",
      "outputs": [
        {
          "internalType": "bool",
          "name": "",
          "type": "bool"
        }
      ],
      "payable": false,
      "stateMutability": "nonpayable",
      "type": "function"
    },
    {
      "constant": false,
      "inputs": [],
      "name": "playMoveNew",
      "outputs": [
        {
          "internalType": "string",
          "name": "",
          "type": "string"
        }
      ],
      "payable": false,
      "stateMutability": "nonpayable",
      "type": "function"
    },
    {
      "constant": false,
      "inputs": [],
      "name": "defaultGame",
      "outputs": [],
      "payable": false,
      "stateMutability": "nonpayable",
      "type": "function"
    }
  ],
  "bytecode": "0x608060405268056bc75e2d6310000060005534801561001d57600080fd5b506000600160006002811061002e57fe5b0160006101000a81548173ffffffffffffffffffffffffffffffffffffffff021916908373ffffffffffffffffffffffffffffffffffffffff16021790555060006001806002811061007c57fe5b0160006101000a81548173ffffffffffffffffffffffffffffffffffffffff021916908373ffffffffffffffffffffffffffffffffffffffff1602179055506000601c60006101000a81548160ff0219169083151502179055506000601f60006101000a81548160ff0219169083151502179055506729a2241af62c0000601d81905550671bc16d674ec80000601e819055506005600360006101000a81548163ffffffff021916908363ffffffff1602179055506000602081905550611258806101486000396000f3fe60806040526004361061009c5760003560e01c806359cf52f31161006457806359cf52f31461022357806369e79036146102b3578063a7d91a95146102ee578063d65ab5f214610379578063f1cd0e3114610383578063f38350a3146103e65761009c565b806304e4cbb8146100a157806312065fe0146100b857806318369a2a146100e357806327bd0db61461010e57806352c681d1146101c0575b600080fd5b3480156100ad57600080fd5b506100b6610437565b005b3480156100c457600080fd5b506100cd61047d565b6040518082815260200191505060405180910390f35b3480156100ef57600080fd5b506100f8610485565b6040518082815260200191505060405180910390f35b61013d6004803603602081101561012457600080fd5b81019080803560ff16906020019092919050505061048b565b604051808573ffffffffffffffffffffffffffffffffffffffff1673ffffffffffffffffffffffffffffffffffffffff1681526020018481526020018373ffffffffffffffffffffffffffffffffffffffff1673ffffffffffffffffffffffffffffffffffffffff16815260200182815260200194505050505060405180910390f35b3480156101cc57600080fd5b50610209600480360360408110156101e357600080fd5b81019080803560ff169060200190929190803560ff16906020019092919050505061057e565b604051808215151515815260200191505060405180910390f35b34801561022f57600080fd5b50610238610753565b6040518080602001828103825283818151815260200191508051906020019080838360005b8381101561027857808201518184015260208101905061025d565b50505050905090810190601f1680156102a55780820380516001836020036101000a031916815260200191505b509250505060405180910390f35b3480156102bf57600080fd5b506102ec600480360360208110156102d657600080fd5b8101908080359060200190929190505050610790565b005b6102f6610801565b604051808573ffffffffffffffffffffffffffffffffffffffff1673ffffffffffffffffffffffffffffffffffffffff1681526020018481526020018373ffffffffffffffffffffffffffffffffffffffff1673ffffffffffffffffffffffffffffffffffffffff16815260200182815260200194505050505060405180910390f35b610381610833565b005b34801561038f57600080fd5b506103cc600480360360408110156103a657600080fd5b81019080803560ff169060200190929190803560ff1690602001909291905050506108fa565b604051808215151515815260200191505060405180910390f35b610435600480360360408110156103fc57600080fd5b81019080803560ff169060200190929190803573ffffffffffffffffffffffffffffffffffffffff169060200190929190505050611147565b005b601b54600360009054906101000a900463ffffffff1663ffffffff164301111561047b576104766001601a60009054906101000a900460ff161861048b565b505050505b565b600047905090565b60005481565b600080600080601e544710156104a057600080fd5b3373ffffffffffffffffffffffffffffffffffffffff166108fc678ac7230489e800009081150290604051600060405180830381858888f193505050501580156104ee573d6000803e3d6000fd5b506000601c60006101000a81548160ff021916908315150217905550600047141561052f576001601f60006101000a81548160ff0219169083151502179055505b30670de0b6b3a7640000478161054157fe5b0433670de0b6b3a76400003373ffffffffffffffffffffffffffffffffffffffff16318161056b57fe5b0481915093509350935093509193509193565b6000600180601a60009054906101000a900460ff161860ff16600281106105a157fe5b0160009054906101000a900473ffffffffffffffffffffffffffffffffffffffff1673ffffffffffffffffffffffffffffffffffffffff163373ffffffffffffffffffffffffffffffffffffffff16146105fa57600080fd5b601a60009054906101000a900460ff1660068460ff166014811061061a57fe5b018360ff166014811061062957fe5b602091828204019190066101000a81548160ff021916908360ff1602179055503073ffffffffffffffffffffffffffffffffffffffff1663f1cd0e3184846040518363ffffffff1660e01b8152600401808360ff1660ff1681526020018260ff1660ff16815260200192505050602060405180830381600087803b1580156106b057600080fd5b505af11580156106c4573d6000803e3d6000fd5b505050506040513d60208110156106da57600080fd5b8101908080519060200190929190505050156106f9576001905061074d565b6001601a60008282829054906101000a900460ff161892506101000a81548160ff021916908360ff160217905550600360009054906101000a900463ffffffff1663ffffffff164301601b81905550600090505b92915050565b60606040518060400160405280600781526020017f48656c6c6f212500000000000000000000000000000000000000000000000000815250905090565b600160006002811061079e57fe5b0160009054906101000a900473ffffffffffffffffffffffffffffffffffffffff1673ffffffffffffffffffffffffffffffffffffffff163373ffffffffffffffffffffffffffffffffffffffff16146107f757600080fd5b8060048190555050565b6000806000803047333373ffffffffffffffffffffffffffffffffffffffff1631819150935093509350935090919293565b60001515601f60009054906101000a900460ff1615151461085357600080fd5b600073ffffffffffffffffffffffffffffffffffffffff166001806002811061087857fe5b0160009054906101000a900473ffffffffffffffffffffffffffffffffffffffff1673ffffffffffffffffffffffffffffffffffffffff1614156108bb57600080fd5b6000601a60006101000a81548160ff021916908360ff160217905550600360009054906101000a900463ffffffff1663ffffffff164301601b81905550565b6000806000905060006001840190505b60148160ff16101561098657601a60009054906101000a900460ff1660ff1660068260ff166014811061093957fe5b018660ff166014811061094857fe5b602091828204019190069054906101000a900460ff1660ff161415610974578180600101925050610979565b610986565b808060010191505061090a565b5060006001840390505b60008160ff1610610a0c57601a60009054906101000a900460ff1660ff1660068260ff16601481106109be57fe5b018660ff16601481106109cd57fe5b602091828204019190069054906101000a900460ff1660ff1614156109f95781806001019250506109fe565b610a0c565b808060019003915050610990565b5060048160ff1610610aeb573073ffffffffffffffffffffffffffffffffffffffff166327bd0db6601a60009054906101000a900460ff166040518263ffffffff1660e01b8152600401808260ff1660ff168152602001915050608060405180830381600087803b158015610a8057600080fd5b505af1158015610a94573d6000803e3d6000fd5b505050506040513d6080811015610aaa57600080fd5b810190808051906020019092919080519060200190929190805190602001909291908051906020019092919050505050505050600090506001915050611141565b600080905060006001860190505b60148160ff161015610b7557601a60009054906101000a900460ff1660ff1660068660ff1660148110610b2857fe5b018260ff1660148110610b3757fe5b602091828204019190069054906101000a900460ff1660ff161415610b63578180600101925050610b68565b610b75565b8080600101915050610af9565b5060006001860390505b60008160ff1610610bfb57601a60009054906101000a900460ff1660ff1660068660ff1660148110610bad57fe5b018260ff1660148110610bbc57fe5b602091828204019190069054906101000a900460ff1660ff161415610be8578180600101925050610bed565b610bfb565b808060019003915050610b7f565b5060048160ff1610610cdb573073ffffffffffffffffffffffffffffffffffffffff166327bd0db6601a60009054906101000a900460ff166040518263ffffffff1660e01b8152600401808260ff1660ff168152602001915050608060405180830381600087803b158015610c6f57600080fd5b505af1158015610c83573d6000803e3d6000fd5b505050506040513d6080811015610c9957600080fd5b81019080805190602001909291908051906020019092919080519060200190929190805190602001909291905050505050505060009050600192505050611141565b6000809050600060018701905060006001870190505b60148260ff16108015610d07575060148160ff16105b15610d8457601a60009054906101000a900460ff1660ff1660068360ff1660148110610d2f57fe5b018260ff1660148110610d3e57fe5b602091828204019190069054906101000a900460ff1660ff161415610d6a578280600101935050610d6f565b610d84565b81806001019250508080600101915050610cf1565b6001880391506001870390505b60008260ff1610158015610da9575060008160ff1610155b15610e2857601a60009054906101000a900460ff1660ff1660068260ff1660148110610dd157fe5b018360ff1660148110610de057fe5b602091828204019190069054906101000a900460ff1660ff161415610e0c578280600101935050610e11565b610e28565b818060019003925050808060019003915050610d91565b60048360ff1610610f0a573073ffffffffffffffffffffffffffffffffffffffff166327bd0db6601a60009054906101000a900460ff166040518263ffffffff1660e01b8152600401808260ff1660ff168152602001915050608060405180830381600087803b158015610e9b57600080fd5b505af1158015610eaf573d6000803e3d6000fd5b505050506040513d6080811015610ec557600080fd5b81019080805190602001909291908051906020019092919080519060200190929190805190602001909291905050505050505060009250600195505050505050611141565b60008090506001880192506001890391505b60148360ff16108015610f33575060008260ff1610155b15610fb157601a60009054906101000a900460ff1660ff1660068460ff1660148110610f5b57fe5b018360ff1660148110610f6a57fe5b602091828204019190069054906101000a900460ff1660ff161415610f96578080600101915050610f9b565b610fb1565b8280600101935050818060019003925050610f1c565b6001880392506001890191505b60008360ff1610158015610fd5575060148260ff16105b1561105357601a60009054906101000a900460ff1660ff1660068460ff1660148110610ffd57fe5b018360ff166014811061100c57fe5b602091828204019190069054906101000a900460ff1660ff16141561103857808060010191505061103d565b611053565b8280600190039350508180600101925050610fbe565b60048160ff1610611136573073ffffffffffffffffffffffffffffffffffffffff166327bd0db6601a60009054906101000a900460ff166040518263ffffffff1660e01b8152600401808260ff1660ff168152602001915050608060405180830381600087803b1580156110c657600080fd5b505af11580156110da573d6000803e3d6000fd5b505050506040513d60808110156110f057600080fd5b8101908080519060200190929190805190602001909291908051906020019092919080519060200190929190505050505050506000905060019650505050505050611141565b600096505050505050505b92915050565b60001515601f60009054906101000a900460ff1615151461116757600080fd5b601d54341461117557600080fd5b60001515601c60009054906101000a900460ff16151514156111b1576001601c60006101000a81548160ff0219169083151502179055506111b6565b600080fd5b81600560006101000a81548160ff021916908360ff1602179055508060016000600281106111e057fe5b0160006101000a81548173ffffffffffffffffffffffffffffffffffffffff021916908373ffffffffffffffffffffffffffffffffffffffff160217905550505056fea265627a7a72315820ea9d635dfd17b5268ccb5556932e8cd75f57c407142f10bd0731d9644b39e78564736f6c63430005100032",
  "source": "pragma solidity ^0.5.0;\r\n\r\nimport \"./ERC721Full.sol\";\r\n\r\ncontract MemoryToken{\r\n    // constructor() ERC721Full(\"Memory Token\", \"MEMORY\") public {\r\n    // }\r\n    // //_tokenURI is png url\r\n\r\n    // function mint(address _to, string memory _tokenURI) public returns(bool) {\r\n    //    uint _tokenId = totalSupply().add(1);\r\n    //    _mint(_to, _tokenId);\r\n    //    _setTokenURI(_tokenId, _tokenURI);\r\n    //    return true;\r\n    // }\r\n    uint public initialBalance = 100 ether;\r\n    address payable[2]  _playerAddress ;\r\n    uint32 _turnLength ;\r\n    bytes32 _p1Commitment;\r\n    uint8 _p2Nonce;\r\n    uint8 [20][20] _board;\r\n    uint8 _currentPlayer;\r\n    uint256 _turnDeadline;\r\n\r\n    bool isMatch;\r\n    uint _fee;\r\n    uint _bonus;\r\n    bool isOver;\r\n    uint256 matchNum;\r\n    /*\r\n    function mint(address _to, string memory _tokenURI) public returns(bool) {\r\n       //require(_to != address(0));\r\n       uint _tokenId = totalSupply().add(1);\r\n       _mint(_to, _tokenId);\r\n       _setTokenURI(_tokenId, _tokenURI);\r\n       return true;\r\n    }*/\r\n\r\n    constructor ()  public {\r\n        _playerAddress[0] = address(0);\r\n        _playerAddress[1] = address(0);\r\n        isMatch = false;\r\n        isOver = false;\r\n        _fee = 3 ether;\r\n        _bonus = 2 ether;\r\n        _turnLength = 5;\r\n        matchNum = 0;\r\n    }\r\n    function setNonce1(bytes32 p1Commitment) public {\r\n        require(msg.sender == _playerAddress[0]);\r\n        _p1Commitment = p1Commitment;\r\n\r\n    }\r\n    // Join a game as the second player .\r\n    function joinGame (uint8 p2Nonce, address payable player1) public payable {\r\n        require(isOver == false);\r\n        require(msg.value == _fee);\r\n        //require(isMatch == false);\r\n        if(isMatch == false){\r\n            isMatch = true;\r\n        } else {\r\n            revert();\r\n        }\r\n        _p2Nonce = p2Nonce;\r\n        _playerAddress[0] = player1;\r\n\r\n    }\r\n    \r\n\r\n    // Revealing player 1’s nonce to choose who goes first .\r\n    //function startGame (uint8 p1Nonce, bytes32 p1Commitment) public payable{\r\n    function startGame () public payable{\r\n        require(isOver == false);\r\n        require(_playerAddress[1] != address(0));\r\n        // require (p1Commitment == _p1Commitment);\r\n        // _currentPlayer = (p1Nonce ^ _p2Nonce) & 0x01 ;\r\n        _currentPlayer = 0;\r\n        _turnDeadline = block.number + _turnLength ;\r\n    }\r\n    function SendMoneyToContract() public payable returns(address,uint,address,uint) {\r\n        //mint(_playerAddress[winner], \"1\");\r\n        //safeTransferFrom(address(this), _playerAddress[winner], matchNum);\r\n        return (address(this), address(this).balance, msg.sender, address(msg.sender).balance);\r\n    }\r\n    function defineWinned(uint8 winner) public payable returns(address,uint,address,uint) {\r\n        //mint(_playerAddress[winner], \"1\");\r\n        //safeTransferFrom(address(this), _playerAddress[winner], matchNum);\r\n        require(address(this).balance >= _bonus);\r\n        address(msg.sender).transfer(10 ether);\r\n        isMatch = false;\r\n        if(address(this).balance == 0) {\r\n            isOver = true;\r\n        }\r\n        return (address(this), address(this).balance / 1e18, msg.sender, address(msg.sender).balance/ 1e18);\r\n    }\r\n    function getBalance() public returns(uint) {\r\n        return address(this).balance;\r\n    }\r\n    \r\n    function checkGameOver(uint8 index, uint8 indexs) public returns(bool) {\r\n        uint8 columnCount = 0;\r\n        for (uint8 i = indexs + 1; i < 20; i++) {\r\n            if (_board[i][index] == _currentPlayer) {\r\n                columnCount++;\r\n            } else {\r\n                break;\r\n            }\r\n        }\r\n        // 向下下棋\r\n        for (uint8 i = indexs - 1; i >= 0; i--) {\r\n            if (_board[i][index] == _currentPlayer) {\r\n                columnCount++;\r\n            } else {\r\n                break;\r\n            }\r\n        }\r\n        if (columnCount >= 4) {\r\n            this.defineWinned(_currentPlayer);\r\n            columnCount = 0;\r\n            return true;\r\n        }\r\n        //行计数\r\n        uint8 lineCount = 0;\r\n        // 向左下棋\r\n        for (uint8 i = index + 1; i < 20; i++) {\r\n            if (_board[indexs][i] == _currentPlayer) {\r\n                lineCount++;\r\n            } else {\r\n                break;\r\n            }\r\n        }\r\n        // 向右下棋\r\n        for (uint8 i = index - 1; i >= 0; i--) {\r\n            if (_board[indexs][i] == _currentPlayer) {\r\n                lineCount++;\r\n            } else {\r\n                break;\r\n            }\r\n        }\r\n        if (lineCount >= 4) {\r\n            this.defineWinned(_currentPlayer);\r\n            lineCount = 0;\r\n            return true;\r\n        }\r\n        //斜行计数-左斜 \\\r\n        uint8 obliqueLeftCount = 0;\r\n        // 向左上下棋↖\r\n        uint8 i = index + 1;\r\n        uint8 j = indexs + 1;\r\n        while(i < 20 && j < 20) {\r\n             if (_board[i][j] == _currentPlayer) {\r\n                obliqueLeftCount++;\r\n            } else {\r\n                break;\r\n            }\r\n            i ++;\r\n            j ++;\r\n        }\r\n        // 向左下下棋↘\r\n        i = index - 1;\r\n        j = indexs - 1;\r\n        while(i >= 0 && j >= 0) {\r\n             if (_board[j][i] == _currentPlayer) {\r\n                obliqueLeftCount++;\r\n            } else {\r\n                break;\r\n            }\r\n            i --;\r\n            j --;\r\n        }\r\n        if (obliqueLeftCount >= 4) {\r\n            this.defineWinned(_currentPlayer);\r\n            obliqueLeftCount = 0;\r\n            return true;\r\n        }\r\n        //斜行计数-右斜 /\r\n        uint8 obliqueRightCount = 0;\r\n        // 向右上下棋↗\r\n        i = indexs + 1;\r\n        j = index - 1;\r\n        while(i < 20 && j >= 0) {\r\n            if (_board[i][j] == _currentPlayer) {\r\n                obliqueRightCount++;\r\n            } else {\r\n                break;\r\n            }\r\n            i++;\r\n            j--;\r\n        }\r\n        i = indexs- 1;\r\n        j = index + 1;\r\n        while(i >= 0 && j < 20) {\r\n            if (_board[i][j] == _currentPlayer) {\r\n                obliqueRightCount++;\r\n            } else {\r\n                break;\r\n            }\r\n            i--;\r\n            j++;\r\n        }\r\n        if (obliqueRightCount >= 4) {\r\n            this.defineWinned(_currentPlayer);\r\n            obliqueRightCount = 0;\r\n            return true;\r\n        }\r\n        return false;\r\n    }\r\n\r\n    \r\n    // Submit a move\r\n    function playMove(uint8 index, uint8 indexs) public returns(bool){\r\n    // make sure correct player is submitting a move\r\n        require (msg.sender == _playerAddress[_currentPlayer^0x01]) ;\r\n\r\n        // claim this square for the current player .\r\n        _board [index][indexs] = _currentPlayer ;\r\n\r\n        // If the game is won , send the pot to the winner\r\n        if (this.checkGameOver(index, indexs)) {\r\n            return true;\r\n        }\r\n\r\n        // Flip the current player\r\n        _currentPlayer ^= 0x01 ;\r\n\r\n        // start the clock for the next move\r\n        _turnDeadline = block.number + _turnLength ;\r\n        return false;\r\n    }\r\n    function playMoveNew() public returns(string memory){\r\n        return \"Hello!%\";\r\n    }\r\n\r\n    // Default the game if a player takes too long to submit a move\r\n    function defaultGame () public {\r\n        if (block.number + _turnLength > _turnDeadline)\r\n            defineWinned(_currentPlayer^0x01);\r\n    }\r\n\r\n    \r\n\r\n}\r\n",
  "sourcePath": "E:\\masterstudy\\2022S1\\cycurrency\\research\\blockchain_game\\src\\contracts\\MemoryToken.sol",
  "compiler": {
    "name": "solc",
    "version": "0.5.16+commit.9c3226ce.Emscripten.clang"
  },
  "schemaVersion": "3.4.7",
  "updatedAt": "2022-05-04T01:33:42.196Z",
  "networkType": "ethereum",
  "devdoc": {
    "methods": {}
  },
  "userdoc": {
    "methods": {}
  }
}