{
  "contractName": "MemoryToken",
  "abi": [
    {
      "inputs": [],
      "payable": false,
      "stateMutability": "nonpayable",
      "type": "constructor"
    },
    {
      "constant": true,
      "inputs": [],
      "name": "initialBalance",
      "outputs": [
        {
          "internalType": "uint256",
          "name": "",
          "type": "uint256"
        }
      ],
      "payable": false,
      "stateMutability": "view",
      "type": "function"
    },
    {
      "constant": false,
      "inputs": [
        {
          "internalType": "bytes32",
          "name": "p1Commitment",
          "type": "bytes32"
        }
      ],
      "name": "setNonce1",
      "outputs": [],
      "payable": false,
      "stateMutability": "nonpayable",
      "type": "function"
    },
    {
      "constant": false,
      "inputs": [
        {
          "internalType": "uint8",
          "name": "p2Nonce",
          "type": "uint8"
        },
        {
          "internalType": "address payable",
          "name": "player2",
          "type": "address"
        }
      ],
      "name": "joinGame",
      "outputs": [],
      "payable": true,
      "stateMutability": "payable",
      "type": "function"
    },
    {
      "constant": false,
      "inputs": [
        {
          "internalType": "uint8",
          "name": "p2Nonce",
          "type": "uint8"
        },
        {
          "internalType": "address payable",
          "name": "player1",
          "type": "address"
        }
      ],
      "name": "startGame",
      "outputs": [],
      "payable": true,
      "stateMutability": "payable",
      "type": "function"
    },
    {
      "constant": false,
      "inputs": [],
      "name": "SendMoneyToContract",
      "outputs": [
        {
          "internalType": "address",
          "name": "",
          "type": "address"
        },
        {
          "internalType": "uint256",
          "name": "",
          "type": "uint256"
        },
        {
          "internalType": "address",
          "name": "",
          "type": "address"
        },
        {
          "internalType": "uint256",
          "name": "",
          "type": "uint256"
        }
      ],
      "payable": true,
      "stateMutability": "payable",
      "type": "function"
    },
    {
      "constant": false,
      "inputs": [
        {
          "internalType": "uint8",
          "name": "winner",
          "type": "uint8"
        }
      ],
      "name": "defineWinned",
      "outputs": [
        {
          "internalType": "address",
          "name": "",
          "type": "address"
        },
        {
          "internalType": "uint256",
          "name": "",
          "type": "uint256"
        },
        {
          "internalType": "address",
          "name": "",
          "type": "address"
        },
        {
          "internalType": "uint256",
          "name": "",
          "type": "uint256"
        }
      ],
      "payable": true,
      "stateMutability": "payable",
      "type": "function"
    },
    {
      "constant": false,
      "inputs": [],
      "name": "getBalance",
      "outputs": [
        {
          "internalType": "uint256",
          "name": "",
          "type": "uint256"
        }
      ],
      "payable": false,
      "stateMutability": "nonpayable",
      "type": "function"
    },
    {
      "constant": true,
      "inputs": [],
      "name": "getIndex",
      "outputs": [
        {
          "internalType": "uint8[]",
          "name": "",
          "type": "uint8[]"
        },
        {
          "internalType": "uint8[]",
          "name": "",
          "type": "uint8[]"
        },
        {
          "internalType": "uint8[]",
          "name": "",
          "type": "uint8[]"
        },
        {
          "internalType": "address",
          "name": "",
          "type": "address"
        }
      ],
      "payable": false,
      "stateMutability": "view",
      "type": "function"
    },
    {
      "constant": true,
      "inputs": [],
      "name": "getStart",
      "outputs": [
        {
          "internalType": "bool",
          "name": "",
          "type": "bool"
        }
      ],
      "payable": false,
      "stateMutability": "view",
      "type": "function"
    },
    {
      "constant": true,
      "inputs": [],
      "name": "getPlayer",
      "outputs": [
        {
          "internalType": "address",
          "name": "",
          "type": "address"
        },
        {
          "internalType": "uint8",
          "name": "",
          "type": "uint8"
        }
      ],
      "payable": false,
      "stateMutability": "view",
      "type": "function"
    },
    {
      "constant": false,
      "inputs": [
        {
          "internalType": "uint8",
          "name": "index",
          "type": "uint8"
        },
        {
          "internalType": "uint8",
          "name": "indexs",
          "type": "uint8"
        },
        {
          "internalType": "uint8",
          "name": "status",
          "type": "uint8"
        }
      ],
      "name": "playMove",
      "outputs": [
        {
          "internalType": "bool",
          "name": "",
          "type": "bool"
        },
        {
          "internalType": "uint256",
          "name": "",
          "type": "uint256"
        }
      ],
      "payable": false,
      "stateMutability": "nonpayable",
      "type": "function"
    },
    {
      "constant": false,
      "inputs": [],
      "name": "playMoveNew",
      "outputs": [
        {
          "internalType": "string",
          "name": "",
          "type": "string"
        }
      ],
      "payable": false,
      "stateMutability": "nonpayable",
      "type": "function"
    },
    {
      "constant": false,
      "inputs": [],
      "name": "defaultGame",
      "outputs": [],
      "payable": false,
      "stateMutability": "nonpayable",
      "type": "function"
    }
  ],
  "bytecode": "0x608060405268056bc75e2d631000006000556000604051908082528060200260200182016040528015620000425781602001602082028038833980820191505090505b50600690805190602001906200005a9291906200027a565b5060006040519080825280602002602001820160405280156200008c5781602001602082028038833980820191505090505b5060079080519060200190620000a49291906200027a565b506000604051908082528060200260200182016040528015620000d65781602001602082028038833980820191505090505b5060089080519060200190620000ee9291906200027a565b50348015620000fc57600080fd5b50600060016000600281106200010e57fe5b0160006101000a81548173ffffffffffffffffffffffffffffffffffffffff021916908373ffffffffffffffffffffffffffffffffffffffff1602179055506000600180600281106200015d57fe5b0160006101000a81548173ffffffffffffffffffffffffffffffffffffffff021916908373ffffffffffffffffffffffffffffffffffffffff1602179055506000600b60006101000a81548160ff0219169083151502179055506000600e60006101000a81548160ff0219169083151502179055506000600b60016101000a81548160ff0219169083151502179055506729a2241af62c0000600c81905550671bc16d674ec80000600d819055506005600360006101000a81548163ffffffff021916908363ffffffff1602179055506000600f819055506001600960006101000a81548160ff021916908360ff16021790555060006010819055506000601160006101000a81548160ff0219169083151502179055506200035b565b82805482825590600052602060002090601f01602090048101928215620003155791602002820160005b83821115620002e457835183826101000a81548160ff021916908360ff1602179055509260200192600101602081600001049283019260010302620002a4565b8015620003135782816101000a81549060ff0219169055600101602081600001049283019260010302620002e4565b505b50905062000324919062000328565b5090565b6200035891905b808211156200035457600081816101000a81549060ff0219169055506001016200032f565b5090565b90565b610e9b806200036b6000396000f3fe6080604052600436106100c25760003560e01c806359cf52f31161007f578063a7d91a9511610059578063a7d91a95146104bb578063c5292c6714610546578063dcb09d4614610575578063f38350a3146105c6576100c2565b806359cf52f3146102c157806369e790361461035157806381045ead1461038c576100c2565b806302e9d75d146100c757806304e4cbb81461013e57806312065fe01461015557806318369a2a1461018057806327bd0db6146101ab5780633308f42d1461025d575b600080fd5b3480156100d357600080fd5b5061011d600480360360608110156100ea57600080fd5b81019080803560ff169060200190929190803560ff169060200190929190803560ff169060200190929190505050610617565b60405180831515151581526020018281526020019250505060405180910390f35b34801561014a57600080fd5b506101536107bb565b005b34801561016157600080fd5b5061016a610801565b6040518082815260200191505060405180910390f35b34801561018c57600080fd5b50610195610809565b6040518082815260200191505060405180910390f35b6101da600480360360208110156101c157600080fd5b81019080803560ff16906020019092919050505061080f565b604051808573ffffffffffffffffffffffffffffffffffffffff1673ffffffffffffffffffffffffffffffffffffffff1681526020018481526020018373ffffffffffffffffffffffffffffffffffffffff1673ffffffffffffffffffffffffffffffffffffffff16815260200182815260200194505050505060405180910390f35b34801561026957600080fd5b50610272610902565b604051808373ffffffffffffffffffffffffffffffffffffffff1673ffffffffffffffffffffffffffffffffffffffff1681526020018260ff1660ff1681526020019250505060405180910390f35b3480156102cd57600080fd5b506102d6610981565b6040518080602001828103825283818151815260200191508051906020019080838360005b838110156103165780820151818401526020810190506102fb565b50505050905090810190601f1680156103435780820380516001836020036101000a031916815260200191505b509250505060405180910390f35b34801561035d57600080fd5b5061038a6004803603602081101561037457600080fd5b81019080803590602001909291905050506109be565b005b34801561039857600080fd5b506103a1610a2f565b604051808060200180602001806020018573ffffffffffffffffffffffffffffffffffffffff1673ffffffffffffffffffffffffffffffffffffffff168152602001848103845288818151815260200191508051906020019060200280838360005b8381101561041e578082015181840152602081019050610403565b50505050905001848103835287818151815260200191508051906020019060200280838360005b83811015610460578082015181840152602081019050610445565b50505050905001848103825286818151815260200191508051906020019060200280838360005b838110156104a2578082015181840152602081019050610487565b5050505090500197505050505050505060405180910390f35b6104c3610c15565b604051808573ffffffffffffffffffffffffffffffffffffffff1673ffffffffffffffffffffffffffffffffffffffff1681526020018481526020018373ffffffffffffffffffffffffffffffffffffffff1673ffffffffffffffffffffffffffffffffffffffff16815260200182815260200194505050505060405180910390f35b34801561055257600080fd5b5061055b610c47565b604051808215151515815260200191505060405180910390f35b6105c46004803603604081101561058b57600080fd5b81019080803560ff169060200190929190803573ffffffffffffffffffffffffffffffffffffffff169060200190929190505050610c5e565b005b610615600480360360408110156105dc57600080fd5b81019080803560ff169060200190929190803573ffffffffffffffffffffffffffffffffffffffff169060200190929190505050610d8b565b005b60008060001515601160009054906101000a900460ff1615151461063a57600080fd5b6001601160006101000a81548160ff0219169083151502179055506001600960008282829054906101000a900460ff161892506101000a81548160ff021916908360ff160217905550600685908060018154018082558091505090600182039060005260206000209060209182820401919006909192909190916101000a81548160ff021916908360ff16021790555050600784908060018154018082558091505090600182039060005260206000209060209182820401919006909192909190916101000a81548160ff021916908360ff16021790555050600883908060018154018082558091505090600182039060005260206000209060209182820401919006909192909190916101000a81548160ff021916908360ff16021790555050600360009054906101000a900463ffffffff1663ffffffff164301600a819055506000601160006101000a81548160ff0219169083151502179055506000600960009054906101000a900460ff168060ff16905091509150935093915050565b600a54600360009054906101000a900463ffffffff1663ffffffff16430111156107ff576107fa6001600960009054906101000a900460ff161861080f565b505050505b565b600047905090565b60005481565b600080600080600d5447101561082457600080fd5b3373ffffffffffffffffffffffffffffffffffffffff166108fc671bc16d674ec800009081150290604051600060405180830381858888f19350505050158015610872573d6000803e3d6000fd5b506000600b60006101000a81548160ff02191690831515021790555060004714156108b3576001600e60006101000a81548160ff0219169083151502179055505b30670de0b6b3a764000047816108c557fe5b0433670de0b6b3a76400003373ffffffffffffffffffffffffffffffffffffffff1631816108ef57fe5b0481915093509350935093509193509193565b60008060001515601160009054906101000a900460ff1615151461092557600080fd5b6001600960009054906101000a900460ff1660ff166002811061094457fe5b0160009054906101000a900473ffffffffffffffffffffffffffffffffffffffff16600960009054906101000a900460ff16819150915091509091565b60606040518060400160405280600781526020017f48656c6c6f212500000000000000000000000000000000000000000000000000815250905090565b60016000600281106109cc57fe5b0160009054906101000a900473ffffffffffffffffffffffffffffffffffffffff1673ffffffffffffffffffffffffffffffffffffffff163373ffffffffffffffffffffffffffffffffffffffff1614610a2557600080fd5b8060048190555050565b60608060606000801515601160009054906101000a900460ff16151514610a5557600080fd5b6006600760086001600960009054906101000a900460ff1660ff1660028110610a7a57fe5b0160009054906101000a900473ffffffffffffffffffffffffffffffffffffffff1683805480602002602001604051908101604052809291908181526020018280548015610b0d57602002820191906000526020600020906000905b82829054906101000a900460ff1660ff1681526020019060010190602082600001049283019260010382029150808411610ad65790505b5050505050935082805480602002602001604051908101604052809291908181526020018280548015610b8557602002820191906000526020600020906000905b82829054906101000a900460ff1660ff1681526020019060010190602082600001049283019260010382029150808411610b4e5790505b5050505050925081805480602002602001604051908101604052809291908181526020018280548015610bfd57602002820191906000526020600020906000905b82829054906101000a900460ff1660ff1681526020019060010190602082600001049283019260010382029150808411610bc65790505b50505050509150809050935093509350935090919293565b6000806000803047333373ffffffffffffffffffffffffffffffffffffffff1631819150935093509350935090919293565b6000600b60019054906101000a900460ff16905090565b600073ffffffffffffffffffffffffffffffffffffffff1660018060028110610c8357fe5b0160009054906101000a900473ffffffffffffffffffffffffffffffffffffffff1673ffffffffffffffffffffffffffffffffffffffff161415610cc657600080fd5b81600560006101000a81548160ff021916908360ff1602179055506001600b60016101000a81548160ff021916908315150217905550806001600060028110610d0b57fe5b0160006101000a81548173ffffffffffffffffffffffffffffffffffffffff021916908373ffffffffffffffffffffffffffffffffffffffff1602179055506000600960006101000a81548160ff021916908360ff160217905550600360009054906101000a900463ffffffff1663ffffffff164301600a819055505050565b60001515600e60009054906101000a900460ff16151514610dab57600080fd5b600c543414610db957600080fd5b60001515600b60009054906101000a900460ff1615151415610df5576001600b60006101000a81548160ff021916908315150217905550610dfa565b600080fd5b81600560006101000a81548160ff021916908360ff1602179055508060018060028110610e2357fe5b0160006101000a81548173ffffffffffffffffffffffffffffffffffffffff021916908373ffffffffffffffffffffffffffffffffffffffff160217905550505056fea265627a7a72315820b0bc1b22f7c2184ed0ba7987901eeb21f9b756d949409715310d35b829307b9264736f6c63430005100032",
  "source": "pragma solidity ^0.5.0;\r\n\r\nimport \"./ERC721Full.sol\";\r\n\r\ncontract MemoryToken{\r\n    // constructor() ERC721Full(\"Memory Token\", \"MEMORY\") public {\r\n    // }\r\n    // //_tokenURI is png url\r\n\r\n    // function mint(address _to, string memory _tokenURI) public returns(bool) {\r\n    //    uint _tokenId = totalSupply().add(1);\r\n    //    _mint(_to, _tokenId);\r\n    //    _setTokenURI(_tokenId, _tokenURI);\r\n    //    return true;\r\n    // }\r\n    uint public initialBalance = 100 ether;\r\n    address payable[2]  _playerAddress ;\r\n    uint32 _turnLength ;\r\n    bytes32 _p1Commitment;\r\n    uint8 _p2Nonce;\r\n    uint8 [] _index = new uint8[](0);\r\n    uint8 [] _indexs = new uint8[](0);\r\n    uint8 [] _status = new uint8[](0);\r\n    //uint8 [20][20] _board;\r\n    uint8 _currentPlayer;\r\n    uint256 _turnDeadline;\r\n\r\n    bool isMatch;\r\n    bool isStart;\r\n    uint _fee;\r\n    uint _bonus;\r\n    bool isOver;\r\n    uint256 matchNum;\r\n    uint cnt;\r\n    bool playLock;\r\n    /*\r\n    function mint(address _to, string memory _tokenURI) public returns(bool) {\r\n       //require(_to != address(0));\r\n       uint _tokenId = totalSupply().add(1);\r\n       _mint(_to, _tokenId);\r\n       _setTokenURI(_tokenId, _tokenURI);\r\n       return true;\r\n    }*/\r\n\r\n    constructor ()  public {\r\n        _playerAddress[0] = address(0);\r\n        _playerAddress[1] = address(0);\r\n        isMatch = false;\r\n        isOver = false;\r\n        isStart = false;\r\n        _fee = 3 ether;\r\n        _bonus = 2 ether;\r\n        _turnLength = 5;\r\n        matchNum = 0;\r\n        _currentPlayer = 1;\r\n        cnt = 0;\r\n        playLock = false;\r\n    }\r\n    function setNonce1(bytes32 p1Commitment) public {\r\n        require(msg.sender == _playerAddress[0]);\r\n        _p1Commitment = p1Commitment;\r\n\r\n    }\r\n    // Join a game as the second player .\r\n    function joinGame (uint8 p2Nonce, address payable player2) public payable {\r\n        require(isOver == false);\r\n        require(msg.value == _fee);\r\n        //require(isMatch == false);\r\n        if(isMatch == false){\r\n            isMatch = true;\r\n        } else {\r\n            revert();\r\n        }\r\n        _p2Nonce = p2Nonce;\r\n        _playerAddress[1] = player2;\r\n\r\n    }\r\n    \r\n\r\n    // Revealing player 1’s nonce to choose who goes first .\r\n    //function startGame (uint8 p1Nonce, bytes32 p1Commitment) public payable{\r\n    function startGame (uint8 p2Nonce, address payable player1) public payable{\r\n        //require(isOver == false);\r\n        require(_playerAddress[1] != address(0));\r\n        // require (p1Commitment == _p1Commitment);\r\n        // _currentPlayer = (p1Nonce ^ _p2Nonce) & 0x01 ;\r\n         _p2Nonce = p2Nonce;\r\n         isStart = true;\r\n        _playerAddress[0] = player1;\r\n        _currentPlayer = 0;\r\n        _turnDeadline = block.number + _turnLength ;\r\n    }\r\n    function SendMoneyToContract() public payable returns(address,uint,address,uint) {\r\n        //mint(_playerAddress[winner], \"1\");\r\n        //safeTransferFrom(address(this), _playerAddress[winner], matchNum);\r\n        return (address(this), address(this).balance, msg.sender, address(msg.sender).balance);\r\n    }\r\n    function defineWinned(uint8 winner) public payable returns(address,uint,address,uint) {\r\n        //mint(_playerAddress[winner], \"1\");\r\n        //safeTransferFrom(address(this), _playerAddress[winner], matchNum);\r\n        require(address(this).balance >= _bonus);\r\n        address(msg.sender).transfer(2 ether);\r\n        isMatch = false;\r\n        if(address(this).balance == 0) {\r\n            isOver = true;\r\n        }\r\n        return (address(this), address(this).balance / 1e18, msg.sender, address(msg.sender).balance/ 1e18);\r\n    }\r\n    function getBalance() public returns(uint) {\r\n        return address(this).balance;\r\n    }\r\n    /*\r\n    function checkGameOver(uint8 index, uint8 indexs) public returns(bool) {\r\n        uint currentPlayerRes = _currentPlayer + 1;\r\n        uint8 columnCount = 0;\r\n        \r\n        for (uint8 i = indexs + 1; i < 20; i++) {\r\n            if (_board[i][index] == currentPlayerRes) {\r\n                columnCount++;\r\n            } else {\r\n                break;\r\n            }\r\n        }\r\n        for (uint8 i = indexs - 1; i >= 0; i--) {\r\n            if (_board[i][index] == currentPlayerRes) {\r\n                columnCount++;\r\n            } else {\r\n                break;\r\n            }\r\n        }\r\n        \r\n        // 向下下棋\r\n        \r\n        if (columnCount >= 4) {\r\n           // this.defineWinned(_currentPlayer);\r\n            columnCount = 0;\r\n            return true;\r\n        }\r\n        return false;\r\n        //行计数\r\n        /*\r\n        uint8 lineCount = 0;\r\n        // 向左下棋\r\n        for (uint8 i = index + 1; i < 20; i++) {\r\n            if (_board[indexs][i] == currentPlayerRes) {\r\n                lineCount++;\r\n            } else {\r\n                break;\r\n            }\r\n        }\r\n        // 向右下棋\r\n        for (uint8 i = index - 1; i >= 0; i--) {\r\n            if (_board[indexs][i] == currentPlayerRes) {\r\n                lineCount++;\r\n            } else {\r\n                break;\r\n            }\r\n        }\r\n        if (lineCount >= 4) {\r\n           // this.defineWinned(_currentPlayer);\r\n            lineCount = 0;\r\n            return true;\r\n        }\r\n        //斜行计数-左斜 \\\r\n        uint8 obliqueLeftCount = 0;\r\n        // 向左上下棋↖\r\n        uint8 i = index + 1;\r\n        uint8 j = indexs + 1;\r\n        while(i < 20 && j < 20) {\r\n             if (_board[i][j] == currentPlayerRes) {\r\n                obliqueLeftCount++;\r\n            } else {\r\n                break;\r\n            }\r\n            i ++;\r\n            j ++;\r\n        }\r\n        // 向左下下棋↘\r\n        i = index - 1;\r\n        j = indexs - 1;\r\n        while(i >= 0 && j >= 0) {\r\n             if (_board[j][i] == currentPlayerRes) {\r\n                obliqueLeftCount++;\r\n            } else {\r\n                break;\r\n            }\r\n            i --;\r\n            j --;\r\n        }\r\n        if (obliqueLeftCount >= 4) {\r\n           // this.defineWinned(_currentPlayer);\r\n            obliqueLeftCount = 0;\r\n            return true;\r\n        }\r\n        //斜行计数-右斜 /\r\n        uint8 obliqueRightCount = 0;\r\n        // 向右上下棋↗\r\n        i = indexs + 1;\r\n        j = index - 1;\r\n        while(i < 20 && j >= 0) {\r\n            if (_board[i][j] == currentPlayerRes) {\r\n                obliqueRightCount++;\r\n            } else {\r\n                break;\r\n            }\r\n            i++;\r\n            j--;\r\n        }\r\n        i = indexs- 1;\r\n        j = index + 1;\r\n        while(i >= 0 && j < 20) {\r\n            if (_board[i][j] == currentPlayerRes) {\r\n                obliqueRightCount++;\r\n            } else {\r\n                break;\r\n            }\r\n            i--;\r\n            j++;\r\n        }\r\n        if (obliqueRightCount >= 4) {\r\n           // this.defineWinned(_currentPlayer);\r\n            obliqueRightCount = 0;\r\n            return true;\r\n        }\r\n        return false;\r\n    }*/\r\n\r\n    \r\n    // Submit a move\r\n    function getIndex() public view returns(uint8 [] memory, uint8 [] memory, uint8 [] memory, address) {\r\n        require(playLock == false);\r\n        return (_index, _indexs, _status, _playerAddress[_currentPlayer]);\r\n    }\r\n    function getStart() public view returns(bool) {\r\n        return isStart;\r\n    }\r\n    function getPlayer() public view returns(address, uint8) {\r\n        require(playLock == false);\r\n        return  (_playerAddress[_currentPlayer], _currentPlayer);\r\n    }\r\n    \r\n    function playMove(uint8 index, uint8 indexs, uint8 status) public returns(bool, uint){\r\n    // make sure correct player is submitting a move\r\n        //require (msg.sender == _playerAddress[_currentPlayer^0x01]) ;\r\n\r\n        // claim this square for the current player .\r\n        require(playLock == false);\r\n        playLock = true;\r\n        _currentPlayer ^= 0x01 ;\r\n        _index.push(index);\r\n        _indexs.push(indexs);\r\n        _status.push(status);\r\n        // If the game is won , send the pot to the winner\r\n        \r\n        // if (this.checkGameOver(index, indexs)) {\r\n        //     return (true,  _board [index][indexs]);\r\n        //  }\r\n        // Flip the current player\r\n       // _currentPlayer = _currentPlayer == 0? 1:0;\r\n\r\n        // start the clock for the next move\r\n        _turnDeadline = block.number + _turnLength ;\r\n        playLock = false;\r\n        return (false,  _currentPlayer);\r\n    }\r\n    function playMoveNew() public returns(string memory){\r\n        return \"Hello!%\";\r\n    }\r\n\r\n    // Default the game if a player takes too long to submit a move\r\n    function defaultGame () public {\r\n        if (block.number + _turnLength > _turnDeadline)\r\n            defineWinned(_currentPlayer^0x01);\r\n    }\r\n\r\n    \r\n\r\n}\r\n",
  "sourcePath": "E:\\masterstudy\\2022S1\\cycurrency\\research\\blockchain_game\\src\\contracts\\MemoryToken.sol",
  "compiler": {
    "name": "solc",
    "version": "0.5.16+commit.9c3226ce.Emscripten.clang"
  },
  "schemaVersion": "3.4.7",
  "updatedAt": "2022-05-05T10:15:25.156Z",
  "networkType": "ethereum",
  "devdoc": {
    "methods": {}
  },
  "userdoc": {
    "methods": {}
  }
}