{
  "contractName": "Player",
  "abi": [
    {
      "inputs": [
        {
          "internalType": "address",
          "name": "_playerAddress",
          "type": "address"
        },
        {
          "internalType": "contract GoBang",
          "name": "_gobang",
          "type": "address"
        }
      ],
      "payable": false,
      "stateMutability": "nonpayable",
      "type": "constructor"
    },
    {
      "constant": false,
      "inputs": [
        {
          "internalType": "contract GoBang",
          "name": "_gobang",
          "type": "address"
        }
      ],
      "name": "setGoBang",
      "outputs": [],
      "payable": false,
      "stateMutability": "nonpayable",
      "type": "function"
    },
    {
      "constant": false,
      "inputs": [],
      "name": "callWithdraw",
      "outputs": [
        {
          "internalType": "bool",
          "name": "success",
          "type": "bool"
        }
      ],
      "payable": false,
      "stateMutability": "nonpayable",
      "type": "function"
    },
    {
      "constant": false,
      "inputs": [
        {
          "internalType": "uint256",
          "name": "fee",
          "type": "uint256"
        }
      ],
      "name": "join",
      "outputs": [
        {
          "internalType": "bool",
          "name": "success",
          "type": "bool"
        }
      ],
      "payable": false,
      "stateMutability": "nonpayable",
      "type": "function"
    }
  ],
  "bytecode": "0x608060405234801561001057600080fd5b5060405161052f38038061052f8339818101604052604081101561003357600080fd5b81019080805190602001909291908051906020019092919050505061005d816100a560201b60201c565b81600160006101000a81548173ffffffffffffffffffffffffffffffffffffffff021916908373ffffffffffffffffffffffffffffffffffffffff16021790555050506100e8565b806000806101000a81548173ffffffffffffffffffffffffffffffffffffffff021916908373ffffffffffffffffffffffffffffffffffffffff16021790555050565b610438806100f76000396000f3fe608060405234801561001057600080fd5b50600436106100415760003560e01c8063049878f31461004657806315e3dd0e1461008c578063dad901be146100d0575b600080fd5b6100726004803603602081101561005c57600080fd5b81019080803590602001909291905050506100f2565b604051808215151515815260200191505060405180910390f35b6100ce600480360360208110156100a257600080fd5b81019080803573ffffffffffffffffffffffffffffffffffffffff16906020019092919050505061025b565b005b6100d861029e565b604051808215151515815260200191505060405180910390f35b60008060009054906101000a900473ffffffffffffffffffffffffffffffffffffffff1673ffffffffffffffffffffffffffffffffffffffff168262030d40906040516024016040516020818303038152906040527fb688a363000000000000000000000000000000000000000000000000000000007bffffffffffffffffffffffffffffffffffffffffffffffffffffffff19166020820180517bffffffffffffffffffffffffffffffffffffffffffffffffffffffff83818316178352505050506040518082805190602001908083835b602083106101e857805182526020820191506020810190506020830392506101c5565b6001836020036101000a038019825116818451168082178552505050505050905001915050600060405180830381858888f193505050503d806000811461024b576040519150601f19603f3d011682016040523d82523d6000602084013e610250565b606091505b505080915050919050565b806000806101000a81548173ffffffffffffffffffffffffffffffffffffffff021916908373ffffffffffffffffffffffffffffffffffffffff16021790555050565b60008060009054906101000a900473ffffffffffffffffffffffffffffffffffffffff1673ffffffffffffffffffffffffffffffffffffffff1662030d406040516024016040516020818303038152906040527f3ccfd60b000000000000000000000000000000000000000000000000000000007bffffffffffffffffffffffffffffffffffffffffffffffffffffffff19166020820180517bffffffffffffffffffffffffffffffffffffffffffffffffffffffff83818316178352505050506040518082805190602001908083835b60208310610392578051825260208201915060208101905060208303925061036f565b6001836020036101000a03801982511681845116808217855250505050505090500191505060006040518083038160008787f1925050503d80600081146103f5576040519150601f19603f3d011682016040523d82523d6000602084013e6103fa565b606091505b5050809150509056fea265627a7a723158205006704cf6320b2747a794026a4096ee8c9bcea8b8bb228e7ead4398b7ff116c64736f6c63430005100032",
  "source": "pragma solidity ^0.5.16;\r\nimport \"./GoBang.sol\";\r\ncontract Player {\r\n    GoBang gobang;\r\n    address playerAddress;\r\n    constructor (address _playerAddress, GoBang _gobang) public {\r\n        setGoBang(_gobang);\r\n        playerAddress = _playerAddress;\r\n    }\r\n    function setGoBang(GoBang _gobang) public {\r\n        gobang = _gobang;\r\n    }\r\n   \r\n\r\n    //wrapped call\r\n    function callWithdraw() public returns (bool success)  {\r\n        (success, ) = address(gobang).call.gas(200000)(abi.encodeWithSignature(\"withdraw()\"));\r\n    }\r\n    function join(uint fee) public returns (bool success){\r\n        (success, ) = address(gobang).call.value(fee).gas(200000)(abi.encodeWithSignature(\"join()\"));\r\n    }\r\n    //receive() external payable {}\r\n\r\n}",
  "sourcePath": "E:\\masterstudy\\2022S1\\cycurrency\\research\\blockchain_game\\src\\contracts\\Player.sol",
  "compiler": {
    "name": "solc",
    "version": "0.5.16+commit.9c3226ce.Emscripten.clang"
  },
  "schemaVersion": "3.4.7",
  "updatedAt": "2022-05-24T14:20:31.073Z",
  "devdoc": {
    "methods": {}
  },
  "userdoc": {
    "methods": {}
  }
}